:100000000C9435030C9452030C9452030C94520339
:100010000C9452030C9452030C9452030C9452030C
:100020000C9452030C9452030C94172D0C94D22B65
:100030000C940A2F0C9452030C9452030C94520308
:100040000C9452030C9452030C9452030C945203DC
:100050000C9452030C94BD2E0C9452030C94520336
:100060000C9452030C9452030C9452030C945203BC
:100070000C9452030C9452030C9452030C945203AC
:100080000C9452030C9452030C9452030C9452039C
:100090000C9452030C9452030C9452030C9452038C
:1000A0000C9452030C9452030C9452036B096E0986
:1000B000A109BA09C009CB09CE09CE09CE09050BA1
:1000C000050B500A520A560A7C0A9F0AA20AA50A80
:1000D000CA0AEB0AF60AB40DC20DC70DCE0DD30D38
:1000E000D80DDD0DE20DE70DEC0DF10DF60DF90D5E
:1000F000FC0DFF0D7E0D7E0D7E0D7E0D7E0D7E0DA9
:100100007C0E7C0EB20EB20E3B0F590F66106610BD
:100110005E0FD40FE60FE60F63208A2033228A2079
:100120003322D620F9203322EE21FE2100000000E8
:1001300000000000000000000000000000000000BF
:1001400000000000000000000000000000000000AF
:100150007E0F00D4FFFFFFC7000000780000000002
:10016000000000002A2B2800000000000000000012
:100170000000000000000029000000002C1E3420B8
:10018000212224342627252E362D3738271E1F20DE
:100190002122232425263333362E37381F04050623
:1001A0000708090A0B0C0D0E0F1011121314151667
:1001B0001718191A1B1C1D2F3130232D3504050665
:1001C0000708090A0B0C0D0E0F1011121314151647
:1001D0001718191A1B1C1D2F3130354C0501090247
:1001E000A10185020901A1000509190129081500CD
:1001F0002501950875018102050109300931158134
:10020000257F95027508810609381581257F95019E
:1002100075088106050C0A38021581257F95017540
:10022000088106C0C005010980A101850319012AC2
:10023000B700150126B700950175108100C0050CA7
:100240000901A101850419012AA002150126A002B5
:10025000950175108100C00660FF0961A101096266
:10026000150026FF009520750881020963150026F8
:10027000FF00952075089102C005010906A101053E
:100280000719E029E71500250195087501810295F8
:1002900001750881010507190029FF150026FF00D7
:1002A0009506750881000508190129051500250125
:1002B000950575019102950175039101C009025BD5
:1002C00000030100A0FA0904000001030101000974
:1002D00021110100012244000705810308000109E2
:1002E0000401000203000000092111010001222283
:1002F0000007058203200001070503032000010910
:100300000402000103000000092111010001227B09
:10031000000705840320000112010002000000080C
:1003200009126A510100010200012E03540052001B
:1003300065004B002000470054003400300050009E
:100340006C00750073002000500041005200410015
:100350004C004C004100580000001A036400690082
:100360006700690074006100720068007900740021
:1003700068006D00000004030904167C14001A00D4
:100380000800150017004A002B2104001600070082
:1003900009000A004D00E1001D001B0006001900C5
:1003A000050023526152000091242A282C420000AB
:1003B000A8004B001C0018000C00120033002D0098
:1003C0004E000B000D000E000F00130034002352EE
:1003D0000500110010003600370038320000000020
:1003E0002C42283890310000AE00010001000100CD
:1003F00001000100010001000100010001000100F5
:1004000001000100010001000100010001000100E4
:10041000010001006152000001002A2101000000DA
:1004200001000100010001000100010001000100C4
:1004300001000100010001000100010001000100B4
:1004400001000100010001000100010000000000A6
:100450000100283190380000010035001E001F0007
:100460002000210022002300010001000100010002
:100470000100010001000100010001000100010074
:10048000010001000100000001004C0023520000A7
:1004900020782400230024002500260027002E00B9
:1004A00001005000510052004F00010031000100D6
:1004B00001002F0830082F0030000100000000006C
:1004C00023523B00010000000100A6003A003B005F
:1004D0003C003D003E003F00010027782878297845
:1004E0002A782178227801002378247825782678C4
:1004F00001000100010000000100010001000000F6
:1005000001004000410042004300440045006800F3
:1005100001000100010001000100010001000100D3
:1005200001000100010001000100010000000000C5
:10053000010001000100000001004E014B01D90043
:10054000DA00A900AA000100010001000100010079
:10055000010001000100DC00DB00010001000100DE
:100560000100010001000100010000010101010181
:10057000010101010202020202020202020303035C
:10058000030303030304040404040404050505052C
:1005900005060606060607070707070808080809EC
:1005A0000909090A0A0A0B0B0B0C0C0C0D0D0D0E98
:1005B0000E0E0F0F0F10101111111212131314142D
:1005C000151516161717181819191A1A1B1B1C1DA2
:1005D0001D1E1E1F202021222223242425262627FB
:1005E0002829292A2B2C2D2D2E2F3031323233342D
:1005F00035363738393A3B3C3D3E3F404142434433
:1006000045464748494A4C4D4E4F50515354555614
:1006100058595A5B5D5E5F616264656668696B6CC0
:100620006D6F7072737577787A7B7D7E808283853B
:1006300087888A8C8E8F91939596989A9C9EA0A27B
:10064000A3A5A7A9ABADAFB1B3B5B7BABCBEC0C285
:10065000C4C6C9CBCDCFD1D4D6D8DBDDDFE2E4E749
:10066000E9EBEEF0F3F5F8FAFDFF11241FBECFEF32
:10067000DAE0DEBFCDBF12E0A0E0B1E0E4E6FDE6E7
:1006800002C005900D92AE34B107D9F724E0AEE474
:10069000B2E001C01D92A53EB207E1F70E945403EB
:1006A0000C94B0360C940000ACE4B0E0EAE5F3E062
:1006B0000C94423585B7806885BF85B7806885BF53
:1006C00084B7877F84BF0FB6F894A89580916000A7
:1006D000886180936000109260000FBE90E080E817
:1006E0000FB6F89480936100909361000FBE87E885
:1006F00096E290934F0280934E020E94162C0E9425
:10070000BC2C8091E20084608093E2007894809118
:100710007F038823A1F01091E9001F709091EC00F5
:10072000892F817090FD80E8182B1092E90080914C
:10073000E80083FD0E947E1F1F701093E90082E095
:1007400084BD93E095BD9AEF97BD80936E000E94A3
:10075000EE22811102C00E94772483E080936C0214
:10076000A5E4B1E042E451E0F8E4EF2EF1E0FF2E21
:100770008A019D0161E070E0F90181919F01E82FFC
:10078000E295EF70F0E0D1A08F705B0102C0AA0C7F
:10079000BB1C8A95E2F7C5019A2D90959D2191A3E6
:1007A00092A1892B82A3F80181918F01E82FE29514
:1007B000EF70F0E0D1A08F705B0102C0AA0CBB1CEF
:1007C0008A95E2F7C5019A2D90959D2191A392A15A
:1007D000892B82A3E216F30679F68FE891E0019760
:1007E000F1F700C0000070916C020DE612E060E0CD
:1007F000671751F12D91822F82958F7090E0FC0147
:1008000080A190E02F7002C0959587952A95E2F718
:100810008170FA019191AF01292F22952F7030E05C
:10082000F90120A130E09F7002C0359527959A9577
:10083000E2F720FF02C092E001C090E0892BF801AE
:1008400081938F016F5FD4CFA0E2B1E028E231E065
:10085000AD0161E070E0FA018191AF01E82FE2950E
:10086000EF70F0E011A18F705B0102C0AA0CBB1CFD
:100870008A95E2F7C5019A2D9095912391A392A1B3
:10088000892B82A32417350731F748E251E06FE244
:1008900071E08A01EE24E394F12CF80181918F013B
:1008A000E82FE295EF70F0E0D1A08F70570102C001
:1008B000AA0CBB1C8A95E2F7C5019A2D90959D2143
:1008C00091A392A1892B82A36017710731F701E0F0
:1008D00010E0FA018191AF01E82FE295EF70F0E0AE
:1008E000F1A08F70580102C0AA0CBB1C8A95E2F7D8
:1008F000C5019A2D90959F2191A392A1892B82A346
:100900006417750731F761E070E08D91E82FE2958B
:10091000EF70F0E041A18F706B0102C0CC0CDD1CC8
:100920008A95E2F7C6019C2D9095942391A392A1FC
:10093000892B82A32A173B0741F7E2E5F2E08AE51B
:1009400092E0A1E7B2E011921D928E179F07D9F7AE
:1009500088E390E00E947935AC0190935102809336
:10096000500220E030E0FA01E20FF31F97E011920D
:100970009150E9F7295F3F4F28333105A1F70E94D5
:100980005E2A811102C00E946A2A82E090E00E94E1
:10099000683480935D0284E090E00E94703490930C
:1009A0005C0280935B020E9474270FEF11EE24E03B
:1009B000015010402040E1F700C000000E94742761
:1009C0008091710280FF08C06FEF7FEF80E090E0C0
:1009D0000E94A4340E94AC2E83E090E00E94683410
:1009E0000E94001B0E94842210929503EEEAF3E01D
:1009F0008EEB93E02FEF3FEF219331938E179F07FC
:100A0000D9F71092BE03E7EDF3E087EE93E02FEF06
:100A10003FEF219331938E179F07D9F70E945E2AEB
:100A2000811104C00E946A2A0E94863281E080936C
:100A3000EC0348E050E068E170E08DE893E00E944C
:100A400058341092EC0380918D038C7F11F40E9436
:100A500086328AE091E09093D8048093D704FF24F3
:100A6000F39480917F03853009F061C000E443E096
:100A7000E42E10E180917F03853009F050C0809111
:100A80007F03843009F439C00E94B4258091EB03C0
:100A900081110DC00E94DD101092190180918D030B
:100AA0008370809318010E94A322E0921A0131E022
:100AB0003093EB031092DB0448E150E00FB6F8945A
:100AC000A895409360000FBE0093600083B7817FBC
:100AD000846083BF83B7816083BF7894889583B730
:100AE0008E7F83BF0FB6F894A895809160008861CF
:100AF00080936000109260000FBE80917E03882377
:100B000009F4B8CF0E947427E1E7F2E081918111E6
:100B100085C589E792E08E179F07C1F7ABCF10928A
:100B200072030E94031B0E94A22F1092EB030E94EB
:100B300074270EE512E021961FAF0EAF2197A1E7B3
:100B4000B2E0F80191918D91892712E0E636F10724
:100B500019F08823B9F305C0811103C00E943A2A15
:100B600093C102E213E025961FAF0EAF259737E53C
:100B7000232E31E0332E01E712E029961FAF0EAF8E
:100B80002997E12C2996AEADBFAD2997AD90299656
:100B9000BFAFAEAF29972396AFAE23972196AEADE8
:100BA000BFAD21977C90A7242796AFAE2797AA20A8
:100BB00009F44DC125966EAC7FAC25972101D12C4F
:100BC000CC24C39427968FAD27978C2109F42CC190
:100BD00023968FAC23978C20D9AEEAAE0E94FE2ECE
:100BE0009CAF8BAFB1E0BDAF91E0811001C090E050
:100BF0009EAF49AD5AAD6BAD7CAD8DAD0E94770B0C
:100C0000882051F0F20180818F3F31F026968FAF1E
:100C100026979924939401C0912C092D10E080917E
:100C2000BE035801A80EB11CC5010997ACF188E0BC
:100C3000A82EB12CA01AB10AB8016F5F7F4F625481
:100C40007C4FA5018FEB93E00E94A736B801675F48
:100C50007F4F62547C4FA50187EC93E00E94A7363A
:100C6000A501440F551FB801660F771F675E7F4FC0
:100C700062547C4F87ED93E00E94A736B8016F5E07
:100C80007F4F62547C4FA5018FEC93E00E94A73602
:100C900088E089198093BE038091BE0390E0269678
:100CA000BFAC2697AB2DB0E09D01220F331F21571B
:100CB0003E4FAA0FBB1FBD0160577E4F41E0480F5A
:100CC0009915C0F490E0FC01E254FC4FD9015C910D
:100CD0005183DB015C9151872696AFAC2697A18AA0
:100CE000880F991FFC01E254FC4F128E118E91E087
:100CF000842FE4CF8093BE03882009F495C08091AF
:100D00008D038C7F8C3709F08FC0D2018C918F3F7F
:100D100009F48AC0E7E5AE2EE1E0BE2EF2E28F2EA6
:100D2000F3E09F2E22961FAE229790E09C01220FA7
:100D3000331F890101571E4F2B961FAF0EAF2B9704
:100D4000890100571E4F2D961FAF0EAF2D9700E063
:100D500010E0F501E00FF11F80818F3F09F44EC0D4
:100D600022962FAD22972E110AC0D01208C0D301AF
:100D70002C9130E2230F08F42FEF2C933FC090E02A
:100D80002B96EEADFFAD2B97408150E0FC01EE0FAE
:100D9000FF1FE157FE4F2081421B51092D96AEAD3A
:100DA000BFAD2D972C9130E0880F991FFC01E95AB7
:100DB000FE4F81AD281B3109449FB001459F700D46
:100DC000700D1124229FC001239F900D900D1124BE
:100DD000860F971F0E94FB32893280F428E2382F59
:100DE000231B08F420E0F401E00FF11F213108F08B
:100DF00020E13081320F08F43FEF30830F5F1F4F47
:100E00000730110509F0A5CF22960FAD22970F5F8D
:100E100022960FAF229717E0810E911C27E0A20EB9
:100E2000B11C083009F093CFD394CC0C3FEF431A98
:100E3000530A4FEF641A740A57E0D512C3CE2396B3
:100E4000AFAC23972196AEADBFAD2197AC92E394A2
:100E500021960EAD1FAD21970F5F1F4F21961FAF3B
:100E60000EAF219717E0210E311C25960EAD1FAD58
:100E70002597095F1F4F25961FAF0EAF259718E0E6
:100E8000E11280CE0E94F22E0E94B425E12CB12CFA
:100E900092E0A92E2DEF922E3CEF832E43E0742E8C
:100EA00080916C02E81608F0BEC00E2D10E0F8012B
:100EB000EB5BFE4F2081E22FE295EF70F0E080A126
:100EC00090E02F7002C0959587952A95E2F7817082
:100ED000F801EE5BFE4F9081E92FE295EF70F0E0B4
:100EE00020A130E09F7002C0359527959A95E2F7D2
:100EF00020FF02C022E001C020E0982F922BF801D1
:100F0000E359FD4F8081282F237030E0492F092EAF
:100F1000000C550B2417350709F483C0880F880F80
:100F2000892B8083F801E15CFE4F2081E82FEF7070
:100F3000F0E0E15DFE4FA80147595D4F6A01308145
:100F4000DA019C91930F9C93492F092E000C550BAD
:100F500030E04217530754F4319521953109241795
:100F6000350724F48370833009F059C0191644F50D
:100F7000F801EA59FD4F80818F5F80830E94FE2E29
:100F8000EDA68EA6682F8FA798AB79AAFAAA4E2D48
:100F90005CEF792F83E091E00E94770B0E94FE2E98
:100FA000EBAA8CAA682F8DAB9EAB7FAA18AE4E2DF4
:100FB0005CEF792F83E090E00E94770B81E001C025
:100FC00080E0F601908197FF27C0F801EA59FD4FB4
:100FD0008081815080830E94FE2EE9A29AA2682F10
:100FE0008BA39CA3ADA2FEA24E2D5DEF792F82E0D4
:100FF00091E00E94770B0E94FE2EEFA298A6682F28
:1010000089A79AA7ABA61CA64E2D5DEF792F82E08B
:1010100090E00E94770B81E0D6011C9201C080E035
:10102000B82AE3943DCFB1100E94F22E86E0E3E7A8
:10103000F4E08E010F5F1F4FD80101900D928A9549
:10104000E1F7A0907404E0907504C0907604B0902D
:101050007704D09078041092750410927604109260
:10106000770410927804E11003C0CC2009F44BC03F
:1010700080917104909172040E94E32E9C019091E2
:101080006C04992309F4ECC225313105E0F19F3F4E
:1010900019F09F5F90936C04EE2061F00E9453233F
:1010A0001E1414F491E001C09FEF899F802D11243C
:1010B00080937504CC2061F00E9453231C1414F01B
:1010C0009FEF01C091E0899F802D112480937604C9
:1010D000809175048823B9F090907604992099F056
:1010E0000E947323882319F08093750402C0F09244
:1010F0007504892D0E947323882319F08093760448
:1011000002C0F0927604B11003C0DD2009F44BC098
:1011100080916F04909170040E94E32E9C01909145
:101120006D04992309F4A1C221353105E0F19F3FF7
:1011300019F09F5F90936D04BB2061F00E943123F2
:101140001B1414F491E001C09FEF899F802D11249E
:1011500080937704DD2061F00E9431231D1414F088
:101160009FEF01C091E0899F802D11248093780426
:10117000809177048823B9F090907804992099F0B1
:101180000E947323882319F08093770402C0F092A1
:101190007704892D0E947323882319F080937804A3
:1011A00002C0F092780480917404A8121AC0809151
:1011B0007504882311F0E81214C080917604882306
:1011C00011F0C8120EC080917804882311F0D81253
:1011D00008C090917704992331F081E0B91204C0DE
:1011E00002C081E001C080E080FD15C080917504DF
:1011F00081110FC08091760481110BC0809177041A
:10120000811107C081E090917804911103C080E0C2
:1012100001C081E080FD0E940723AA82EB82CC827C
:10122000BD82DE8286E0F801A3E7B4E001900D9272
:101230008A95E1F70E94A22F90917002891721F000
:10124000809370020E94F22E80917F03843009F017
:1012500008CC83E08093E9008091E80082FF01CC14
:101260008091E80085FF21C00E94352C81111BC0B0
:1012700080E2A82EB12C680109C08091F100F6012E
:1012800081936F01F1E0AF1AB10869F08091E80035
:1012900085FDF3CF8091E8008B778093E8000E9472
:1012A000352C882399F391E001C090E08091E8000B
:1012B0008B778093E800992309F4D3CB2981822F7F
:1012C00090E0FC013197E531F10508F09EC1EA5A42
:1012D000FF4F0C9435351A828CE0E6C08A8182304B
:1012E00009F4B5C150F4813009F08FC10E94F22E8B
:1012F0009B838C837D836E838AC1833041F08430ED
:1013000009F083C11B821C821D821E8280C16B81F9
:10131000DE01149680E090E0262F30E0A901480F0E
:10132000591F4830510508F072C1E62FE80FF0E070
:10133000EF58FD4F40814D9301968C31910571F727
:1013400066C18A81823069F0853009F05EC1809182
:101350008D03AA24A3948A2580938D0310921A01E9
:1013600056C16B817C818D819E810E943B350E949C
:10137000AF2F4DC14C816B818A810E94872434C17B
:101380002D813E813227232732274C816B818A8130
:101390000E94FC233CC10E94232439C18A818330EE
:1013A00009F033C1283009F443C0293009F46DC075
:1013B0008B818230D1F070F4813009F028C14C81EA
:1013C0002FE7429F412D112480918E0320E06091F0
:1013D0008F032AC0833021F1843009F018C18C8139
:1013E00020E0409190036D811FC08C8190918D030E
:1013F000811109C0892F837011F010921A019C7F0E
:1014000090938D0304C1292F237011F410921A01B7
:101410009C7F916090938D0360E00E947B25F7C0D4
:101420008C8180939103F3C090E00E941B25EFC054
:101430008B818230E1F078F4813009F0E8C080914E
:1014400090032FEF829FC00111246FE770E00E948C
:101450000D356C83DCC08330A1F0843009F0D7C037
:1014600080918E038C8380918F038D83D0C0809177
:101470008D03982F937019F08695869504C080E0AF
:1014800002C0809191038C83C2C048E050E068E1C3
:1014900070E08DE893E00E9476341092EC03B7C0C0
:1014A00080E151C0FA8287EE8B83B1C0CA80DB80B5
:1014B000DC24CD24DC248C80912C5801C601875E6D
:1014C0009D4F9501201B310B2815390508F09FC051
:1014D00037EEC31631E0D30630F40E946834D501EC
:1014E00014968C9302C0F5011482FFEFCF1ADF0A25
:1014F0002FEFA21AB20AE2CFCA80DB80DC24CD240F
:10150000DC248C80912C5801C601875E9D4F95018B
:10151000201B310B2815390508F079C037EEC316AA
:1015200031E0D30628F4D50114966C910E948634DC
:10153000BFEFCB1ADB0AEFEFAE1ABE0AE5CF0E946F
:10154000812365C084E08A8362C0CA80DB80DC249A
:10155000CD24DC248C80912C5801C60189969501FC
:10156000201B310B2815390508F051C0F0ECCF16BF
:10157000F1E0DF0630F40E946834D50114968C93B4
:1015800002C0F5011482FFEFCF1ADF0A2FEFA21A73
:10159000B20AE3CFCA80DB80DC24CD24DC248C803B
:1015A000912C5801C60189969501201B310B2815F5
:1015B000390568F530ECC31631E0D30628F4D501BF
:1015C00014966C910E948634BFEFCB1ADB0AEFEFC2
:1015D000AE1ABE0AE7CF41E08C81811101C040E024
:1015E0006B818A810E94C3239D8338C02D813E81F7
:1015F00032272327322741E08C81811101C040E04E
:101600006B818A810E94912302C08FEF898340E21F
:1016100050E0B80182E00E944C2E23CA19BD82E13D
:1016200089BD09B400FEFDCF8091D8008F7D8093E5
:10163000D8008091E00082608093E0008091E0001B
:1016400081FDFCCF109272030E94031B13CA88E233
:1016500090E00E9468341B821C821D828E83D7CF4B
:101660002B30310508F015CD4ECD2B30310508F06B
:1016700060CD99CDA6E0B0E0E0E4FBE00C945135FC
:1016800049835A8349815A81992361F0222351F079
:10169000CA010E949D18182F682F89819A810E9483
:1016A000A81A04C0CA010E948F1A182F69817A8172
:1016B000812F0E94FD282696E3E00C946D35109250
:1016C00072030E94031B2FEF84E39CE021508040B3
:1016D0009040E1F700C000009AE088E10FB6F8946E
:1016E000A895809360000FBE90936000FFCFABE1A0
:1016F000B0E0EDE7FBE00C9450354E8B5F8B688FCC
:10170000798F8A8F9B8F192F91111092BC04DE0163
:101710001F9687E0FD0111928A95E9F786E0FE01A8
:10172000769601900D928A95E1F70A8D002341F09B
:1017300021E04F85588969897A89C8010E943A0B4E
:101740000B8B1C8B87E0FE013F96DE011896019003
:101750000D928A95E1F7CE0108960E94FC1881113E
:101760002CC087E0FE013896DE01119601900D92A3
:101770008A95E1F76C85662301F12091800430E0C1
:10178000C9010196877099274091B90450E08417E8
:10179000950761F16D8397E0929FD001939FB00D03
:1017A0001124AF57BB4FFE01319601900D929A95CF
:1017B000E1F7809380040E946B2B17E08091B904BD
:1017C00090918004891709F1189FC00111248F5747
:1017D0009B4F0E94FC188823C1F08091B90490E0CF
:1017E0000196877099278093B904E8CF109272030D
:1017F0000E94031B109280041092B904E9E7F4E000
:1018000087E0DF011D928A95E9F76B96E4E00C947E
:101810006C35A8E0B0E0EFE0FCE00C944235FC0150
:101820008481882309F4C5C48F0121E0408151815E
:101830006281738195810E943A0B9C01F801858138
:10184000882309F47EC1C90197578038910508F0B3
:1018500041C1F22EFFE0F21708F450C18FEF93E080
:101860000E94683481114AC169E1A62E62E0B62E59
:10187000FF2079F0A11424E0B20609F43FC1C501AC
:101880000E946834811101C0FA943FEFA31AB30A91
:10189000EFCFCE0101962C0188E0F20111928A95DA
:1018A000E9F75AE0352E7501FFEFEF1AFF0AC5017F
:1018B0000E94683489831A82882309F41FC1813009
:1018C00009F044C0650122E0C20ED11CC7010E948C
:1018D00068348A83882309F411C19FEF980F9330ED
:1018E00060F433E0A30EB11CC6010E9468348B8300
:1018F000882309F403C11C822CC0843049F54E01B1
:1019000083E0880E911C42E0E42EF12C56019FEFFB
:10191000A91AB90AC6010E946834F40181934F01E3
:10192000882309F4EBC08C3741F4E2E0F0E0EC0FDF
:10193000FD1FEE0DFF1D10820CC0FFEFEF1AFF0A16
:10194000650127E0E216F10409F7D8C0570101C08C
:1019500056017201F7012081222309F4A4CF21301E
:1019600009F056C08181813081F46701F2E0CF0E29
:10197000D11CF7018281893319F460E570E002C05F
:1019800060E070E00E94181D0AC0823051F46701C7
:10199000F2E0CF0ED11CF70182810E947F1C7601FC
:1019A00095C0833049F46701F2E0CF0ED11CF701F6
:1019B00082810E94251CF3CF843021F0FFEFEF1AC3
:1019C000FF0A84C0F7012281C70102967C0180E0F2
:1019D00090E030E0205331092A30310570F4389E10
:1019E000A001399E500D1124C901840F951FEFEFFE
:1019F000EE1AFE0AF7012081ECCF009709F466C0C9
:101A0000EFE9FFE03197F1F700C000000197F5CF53
:101A1000E22FF0E0E45AFE4F2490822F86958695BF
:101A2000869590E0FC01E45BFE4F64902770712C7A
:101A3000022E02C0759467940A94E2F7F1E06F22D7
:101A40007724FC01E45CFE4F8490912C022E02C0AE
:101A5000959487940A94E2F731E083229924FC015B
:101A6000E45DFE4FC490D12C02C0D594C7942A9552
:101A7000E2F781E0C822DD246114710419F081EEDF
:101A80000E947F1C8114910409F450C086EE0E94CC
:101A90007F1C99E3291609F443C060E070E0822DB1
:101AA0000E94181D8114910419F086EE0E94251CD5
:101AB0006114710419F081EE0E94251CC114D10437
:101AC00029F060E070E08CE20E94181DEFEFEE1A42
:101AD000FE0A40CF26318CE7380709F029C38091F0
:101AE00072038A7A91E009F490E09093790281116F
:101AF00026C089E20E943F2F0E94E32A8091BA0407
:101B0000877009F456C3F8018581882309F451C30D
:101B100080915C0282FF4DC382E00E941D2B49C36D
:101B200060E570E089E30E94181DBFCFF9E32F1232
:101B3000B4CF60E570E089E30E94181DB9CF85E35A
:101B4000D9CF26319CE7390709F4E8C280917203A6
:101B50008272F901E052F847E531F10508F054C00E
:101B6000E559FF4F0C94353590918D0381E089271D
:101B700080938D0310921A018091EC038160809311
:101B8000EC03BCCF44E955E26FE975E204C04FE9CC
:101B900055E264E975E20E94B524B0CF45E655E20E
:101BA00060E775E2F8CF40E755E265E675E2F3CF0E
:101BB00049E455E267E575E2EECF47E555E269E4B1
:101BC00075E2E9CF4DE255E26BE375E2E4CF4BE31A
:101BD00055E26DE275E2DFCF47E852E265E972E275
:101BE000DACF45E952E267E872E2D5CF61E081E001
:101BF00008C061E085E005C061E08DE002C061E001
:101C000082E10E947B257ACF2737FCE73F0711F45A
:101C100081E004C028373C47C9F482E00E94E71AFB
:101C200043E062E081E00E94C51A68CF2330FCE700
:101C30003F0709F4AAC208F08AC221159CE73907B8
:101C400009F493C221303C4709F4A5C2F80185810B
:101C5000E080F180882349F0C7010E949D18D82EAA
:101C6000682FC7010E94A81A04C0C7010E948F1ADA
:101C7000D82EB7018D2D0E94FD280E941D29D82E37
:101C8000F92EA82EF801E580C680C2943FE0C32259
:101C90008091BA04877001F1EE20F1F0892F807FE6
:101CA000803469F080E28D0D8830B0F0892F807E1D
:101CB000803229F4F1E0FD1578F4CC2069F08091B0
:101CC0005C0282FF09C082E00E941D2B8091BA0451
:101CD0008770BB24B3948111B12C9F2C92942FE078
:101CE0009222892D90E08C30910508F0EFC1FC0123
:101CF000E058FF4F0C9435358F2D807F9F2D9F70BE
:101D0000F92E882319F0F29490EFF922EE20B9F021
:101D1000FF2009F4C9C180E28D0D883010F0A110B8
:101D200006C090917203F92AF092720305C0909157
:101D3000BC04F92AF092BC040E94E32AB5C18D2D9F
:101D40000E94251CFF2009F4C1C180E28D0D88305E
:101D5000A0F1AA2091F1F0949091BC04F922F092A4
:101D6000BC042EC08F2D807F9F2D9F70F92E803256
:101D700019F0F29480EFF8228D2DAA2029F021E0AD
:101D8000A21609F44DC058C080915C0282FD1BC0B0
:101D9000EE2069F0FF2039F090917203F92AF09259
:101DA00072030E94E32A80E00E947F1C8FC180E0C2
:101DB0000E94251CFF2009F489C18F2D0E94DC2A76
:101DC0000E94E32A83C1EE2089F0CC2009F43EC0B2
:101DD00031E0C3127BC19091BB048F2D8923F8168B
:101DE00009F474C1F92AF092BB0470C1C1106EC12C
:101DF0008F2D0E94281B8091BB049F2D982329F0D2
:101E00009F2D909589238093BB0480917A029F2D0A
:101E1000982309F45BC1F0948F2180937A0256C114
:101E2000EE2029F085E08C1508F450C10FC094E035
:101E30009C1508F44BC11BC0EE2061F0CC2031F0A2
:101E4000F801868180FF30C18F7086838F2D0E94BC
:101E50002F1B3CC1CC2059F0893309F034C1FFEF6E
:101E600027EE33E0F15020403040E1F72AC18F2DBA
:101E70000E94281B2BC18F2D86958695837019F0A3
:101E8000813061F023C1EE2021F08D2D9F2D9370C4
:101E900002C080E090E00E947D2F1EC1EE2021F064
:101EA0008D2D9F2D937002C080E090E00E94582FEE
:101EB00013C16E2D8D2D0E94391B0EC18F2D837085
:101EC000B1F5E11007C14D2D429546954770440F7D
:101ED000440F8D2D8F7090E09C01042E01C0220FC5
:101EE0000A94EAF7D4FE08C08FE090E001C0880FA2
:101EF0004A95EAF7809501C080E04F2D46954695BA
:101F00004370423069F088F49091C504413019F073
:101F1000822B892302C0922B892B0E94001BDAC0DE
:101F2000822B9091C5048927F8CF822BF6CFEE2023
:101F300019F08F2D817001C08695882309F4CAC0DD
:101F40004D2D429546954770440F440F8D2D8F704F
:101F500090E09C01042E01C0220F0A94EAF7D4FEFF
:101F600008C08FE090E001C0880F4A95EAF780959D
:101F700001C080E04F2D469546954370423059F0A0
:101F800078F490915A02413019F0822B892309C0CC
:101F9000922B892B06C0822B90915A02892701C06F
:101FA000822B0E94C21A96C08F2D8F70F82EEE20C1
:101FB00031F00E94F41A8D2D0E942F1B8BC08D2DA5
:101FC0000E94281B8F2D0E94E71A84C08D2D92EF4E
:101FD000A91681F19A1538F0E0EFAE1659F0F1EF3D
:101FE000AF1619F15DC023EFA21659F134EFA31615
:101FF000C1F056C0EE2081F084E08C1508F466C074
:102000002F2D2F7181E090E001C0880F2A95EAF70B
:1020100090915A02892720C095E09C1508F456C07B
:10202000EFCF80915C0282FD1AC0EE2029F08F2D47
:102030008F7129C0EE20D9F38F2D8F710E94E71A7E
:1020400045C0EE2041F09F2D9F7181E001C0880FB7
:102050009A95EAF701C080E00E94C21A37C0EE20CC
:10206000A9F0EF2DEF71FE2E8E2F0E94F41A8091B1
:102070005C0282FF07C0F8E0FF9EC001112483606C
:102080008093BA048F2D0E94F41A20C081E00E9430
:102090001D2B21E02C15D0F482E00E941D2B16C0D0
:1020A000EE2021F0CC2019F28D2D7ECECC2021F215
:1020B000893349F43FEF87EE93E031508040904000
:1020C000E1F700C000008D2D0E94251C88EF890DCE
:1020D000843010F40E94A22FBB20A9F08091BA0492
:1020E00080FD11C0F80115828695869586950E941F
:1020F000F41AC8010E94090C8091BA04869586954D
:1021000086950E94E71A20E0F801408151816281A2
:102110007381848195810E943A0B4BC08091790232
:10212000811104C089E20E94332FE6CC85E3FBCF06
:102130002737ECE73E0711F481E006C02837FCE7BB
:102140003F0709F073CD82E00E94F41A69CD2B3568
:10215000FCE73F0751F12C358CE73807F1F02A35C1
:102160003C4709F073CD81E021C0109272030E94B8
:10217000031BEFEFF4E32CE0E150F0402040E1F7E7
:1021800000C000000E94AC2EB9CC6FEF7FEF80E062
:1021900090E00E94A4340E945F0B80915C0282FB5D
:1021A000882780F991E0892701C080E00E94342BC4
:1021B0004DCD2896E2E10C945E35A3E0B0E0E3EE6D
:1021C000F0E10C944235782E8091190187110DC0F1
:1021D00020918D03237030E04091180150E081E0A0
:1021E0002417350719F480E001C081E081708093E5
:1021F00017018091920390911601981739F08093FE
:10220000160140E060E080E00E94803286E17812B2
:1022100044C083E890E30E94751E07C046E0741234
:102220004AC18BE891E30E94311E898321C0A71522
:1022300008F447C1B1E07B1289C0809115010E946A
:10224000AB259A83898360918E0370918F0380916F
:1022500090030E947233162F072FF82E4A8159815E
:10226000541708F4ABC081E089834A3208F0A4C057
:10227000809115018F5F809315015981511104C719
:1022800082E080931A01809117018111FDC67110BF
:10229000FBC683E080931A01F7C6871508F4B3C123
:1022A0009AE079120EC08AE292E308C0A71508F4FA
:1022B0007EC1BBE07B1275C18EE092E30E94C51E19
:1022C000B4CF971508F45FC1A4E07A12B0CF809123
:1022D00015010E94AB259A83898300918F03D090CA
:1022E00090032091910310E4129F112D1124EA8193
:1022F000F981FE1708F051C0A981EA2EF12CF701EF
:10230000ED51FE4F9081809116018923D9F0F7019C
:10231000EE0FFF1FE157FE4F6081169FB0011124A1
:10232000B5E075956795BA95E1F780918E03680FD2
:10233000702F8D2D0E947233462F282F672FC701D3
:102340000E948332B981BF5FB983D1CF7B1658F128
:10235000E2E07E1262C0809115010E94AB259A8353
:10236000898300918F0310919003F0908E036F2D5D
:10237000702F812F0E947233E62ED72EC82E6091C7
:1023800091036F0D702F812F0E947233162F072F2C
:10239000F82EEA81F981FE1730F121E02983EA3233
:1023A00008F466CF09C080911701882329F040E026
:1023B00060E080E00E94803219825ACF2981E22FAA
:1023C000F0E0DF01AD51BE4F8C9190911601982342
:1023D00031F02F2D412F602FCF010E9483323981A0
:1023E0003F5F39833BCFA9818A2F90E0FC01ED51FB
:1023F000FE4F308120911601232359F030FF04C095
:102400002F2D412F602F03C02C2D4E2D6D2D0E949E
:102410008332B981BF5FB983BCCFF3E07F124BC079
:10242000809115010E94AB259A83898300918F03C7
:10243000D09090032091910310E4129F112D11244C
:102440005A818981851730F53981E32EF12CF70106
:10245000ED51FE4F9081809116018923B9F0F7016B
:10246000EE0FFF1FE95AFE4F81AD82958F7060918C
:102470008E03819F600D1124702F8D2D0E94723369
:10248000462F282F672FC7010E94833249814F5F53
:102490004983D6CF91E099835A3208F4E9CE8CCFA4
:1024A000E71508F410C2F7E17F1609F482C128E1AC
:1024B000721609F4C3C1809115018F5F80931501D5
:1024C000DFCE27E0721203C08FE591E3ACCE271573
:1024D00008F44BC035E07312A1CE809115010E9423
:1024E000AB259A83898300918E0310918F03F0901E
:1024F0009003609191036695669566958091890336
:1025000090918A030E9455330E94A132805887FD22
:102510008195880F382F4F2D349F312D1124832F13
:10252000B8010E947233162F072FF82E9A81A981C5
:10253000A917A8F45981E52FF0E0DF01AD51BE4F96
:102540008C9190911601982331F02F2D412F602FFF
:10255000CF010E94833289818F5F8983E7CFB1E009
:10256000B9839A3208F484CE27CF58E0751203C09D
:1025700083E692E305C089E078129DCF85E492E37B
:102580000E942C1F52CE90E1791203C081E291E3A8
:1025900095CE9715C0F0ADE07A1288CE84E591E330
:1025A00042CEECE07E1287CF8DE591E33CCEFEE09B
:1025B0007F1203C08BE491E336CE2FE072127BCF03
:1025C00080E391E330CE33E1731203C089EE91E3EF
:1025D00075CE371560F041E1741203C08CE293E3CD
:1025E000CFCF52E1751267CF8DEF91E3C9CF84E170
:1025F000781203C083EF90E30ECE95E179125BCFA2
:1026000081EC90E308CEA2E27A1205C085E690E361
:102610000E94C71D0ACEA71508F494C4BCE17B1222
:1026200079C0809115010E94AB25192F4091890333
:1026300050918A0360918B0370918C0380917B028F
:1026400090917C02A0917D02B0917E028417950743
:10265000A607B70708F058C00E94E632FAE28F9F3B
:10266000C0011124292F332727FD3A953B832A8364
:10267000F901ED51FE4F908180911601892309F4F3
:1026800043C00E94E63281FD0EC00E94E632082F50
:102690000E94E63230E8839FC00111247FE7790F62
:1026A0008091900303C080E070E000E0602F0E9402
:1026B0007233462F282F672F8A819B810E94833295
:1026C0002091910330E1230F08F42FEF60E1822F76
:1026D00090E00E945533BC0184EF91E00E940D35DB
:1026E0008091890390918A03A0918B03B0918C0310
:1026F000860F971FA11DB11D80937B0290937C02D2
:10270000A0937D02B0937E0241E049831A3208F41F
:10271000AFCD52CEB71508F4E2C0E9E17E12C0CECB
:10272000809115010E94AB259A83898300918F03C4
:1027300010919003F0908E036091910366956695D9
:1027400066958091890390918A030E9455330E9477
:10275000A132805887FD8195880F682F2CE0629FF9
:10276000612D11246F0D702F812F0E947233162F4F
:10277000072FF82EAA81B981BA17A8F48981E82F0A
:10278000F0E0DF01AD51BE4F8C919091160198237E
:1027900031F02F2D412F602FCF010E94833299817C
:1027A0009F5F9983E7CFE1E0E983AA3208F460CD27
:1027B00003CE809115010E94AB25192F909117012E
:1027C000911121C06091910320E1620F08F46FEF35
:1027D0008091890390918A030E9455336AE070E0EA
:1027E0000E940D35892B39F50E94E632EAE28E9F70
:1027F0009001112460911601832F932F990F990B4B
:102800000E94E02418C0282F30E03B832A83E12E69
:10281000F12C8A819B818E159F056CF460911601C5
:102820008A819B810E94E0244A815B814F5F5F4FD8
:102830005B834A83EECF91E0998368CF8091150145
:102840000E94AB25192F90911701911121C0609121
:10285000910320E1620F08F46FEF8091890390915A
:102860008A030E94553365E070E00E940D35892B84
:1028700039F50E94E632AAE28A9F90011124609104
:102880001601832F932F990F990B0E94BC2418C017
:10289000E82FF0E0FB83EA83E12EF12C4A815B8193
:1028A0004E155F056CF4609116018A819B810E9430
:1028B000BC242A813B812F5F3F4F3B832A83EECF8D
:1028C00051E0598323CF3AE1731203C082EC92E3C3
:1028D000AACC4BE17412EFCD82E790E3A4CC5FE188
:1028E0007512A4C0809115010E94AB25282E492E97
:1028F00080911701882361F040E060E080E00E9451
:10290000803288E3E2E2F3E0DF011D928A95E9F785
:1029100080911501811115C080911E0390911F03B4
:102920000E94E32E21E08931910508F420E02093F4
:102930001D03499730F00E94FE2E90931F03809351
:102940001E0377E5C72E71E0D72EE2E2EE2EE3E01C
:10295000FE2EF3E58F2EF3E09F2E512CAAEA3A2E9D
:1029600000E010E0F601E00FF11FB081B983B2156D
:1029700008F442C0B41508F03FC05394EB2FF0E0C8
:10298000FB83EA83ED51FE4F9081809116018923EC
:1029900009F432C05701A00EB11ED5016C90362D3E
:1029A00025E5321B08F430E070918F03232D462D6E
:1029B000240F08F42FEF4091900352E0259F200D43
:1029C00011242E5F249F212D1124632D631B822F40
:1029D0000E947233462F282F672F8A819B810E9485
:1029E000833280911D03882339F0262D31E0231B8B
:1029F00008F420E0D5012C930F5F1F4F073011051D
:102A000009F0B0CF8E149F0451F0B7E0CB0ED11C6B
:102A1000E7E0EE0EF11CF8E0F51508F0A1CF21E09B
:102A2000298339E2341508F023CCC6CC571508F4B5
:102A3000B7C18DE17812E7C04091FD025091FE02CE
:102A40006091FF02709100038091890390918A0345
:102A5000A0918B03B0918C0384179507A607B70745
:102A600008F4AACC80911701811107C0809115014B
:102A70000E94AB25092F898359C040E060E080E0C7
:102A80000E9480320FE712E01B821A820E94E63217
:102A900081FF08C0D8011C9211961C9211971296C2
:102AA0001C9220C00E94E632D82E0E94E632B0E886
:102AB0008B9FC00111247FE7790FEA80FB80EE0C29
:102AC000FF1C8A819B818E0D9F1DFC01E158FD4FEB
:102AD0007F016D2D809190030E947233D7016D9319
:102AE0007D938C93EA81FB813196FB83EA830D5FB2
:102AF0001F4FBA9759F6BACFF9818F2F90E0FC019A
:102B0000ED51FE4F308120911601232361F0FC012D
:102B1000EE0FFF1FE80FF91FE158FD4F22814081A2
:102B200061810E94833229812F5F29833981301787
:102B300018F341E049830A3208F019820A3208F496
:102B400097CB20E010E001501109822F90E0801710
:102B50009107C4F4DC01AA0FBB1FA80FB91FA1582D
:102B6000BD4F0196FC01EE0FFF1F8E0F9F1FFC0152
:102B7000E158FD4FC080D180E280CD92DD92EC9291
:102B80002F5FE3CF0E94E6327801EE0CFF1C81FF3D
:102B900009C00E0D1F1DF801E158FD4F1082118272
:102BA000128218C00E94E6328A830E94E63250E800
:102BB000859FC00111247FE7790F0E0D1F1D01585D
:102BC0001D4F6A81809190030E947233D8016D93EA
:102BD0007D938C930E945F330091890310918A0347
:102BE00020918B0330918C03DC01CB01800F911F6E
:102BF000A21FB31F8093FD029093FE02A093FF02D9
:102C0000B093000335CB9EE1791255CC809117012A
:102C1000882329F040E060E080E00E9480328091CB
:102C200015010E94AB25692E4091890350918A03BA
:102C300060918B0370918C038091190390911A031A
:102C4000A0911B03B0911C0384179507A607B70733
:102C500008F09FC060918E0370918F038091900364
:102C60000E947233562E472E382E01E013E0E7E51E
:102C7000F1E0FB83EA83BFE88B2EB1E09B2EAA80B4
:102C8000BB8065017801212CD7018C91F601882346
:102C900071F08081232D452D642D90E00E948332B8
:102CA000D50116968C91232D452D642D0DC0808164
:102CB00020E040E060E090E00E948332D50116966B
:102CC0008C9120E040E060E090E00E948332F701C8
:102CD0008181D7018D937D012394BFEFCB1ADB0A4D
:102CE000E1E0AE1AB108F2E02F12CECFD801129671
:102CF0008C91EA81FB81882379F08281232D452DF7
:102D0000642D90E00E948332AA81BB8114968C913D
:102D1000232D452D642D0EC0828120E040E060E02F
:102D200090E00E948332AA81BB8114968C9120E0AE
:102D300040E060E090E00E9483320E94E6328370BF
:102D400091E009F090E0F80192830D5F1F4F2A8116
:102D50003B81295F3F4F3B832A838216930609F00C
:102D60008ECF0E945F330091890310918A032091D6
:102D70008B0330918C03DC01CB01800F911FA21FCC
:102D8000B31F8093190390931A03A0931B03B0936E
:102D90001C0331E0398349E2461508F069CA0CCBBF
:102DA000A0E27A12C9C06090900383E0689EA001FF
:102DB000112456954795569547955B834A839A818A
:102DC0009983862C912C8FEF90E0B4010E942135DD
:102DD000362E80911701882371F040E060E080E09A
:102DE0000E94803288E3E2E2F3E0DF011D928A95DF
:102DF000E9F710922103809120038F5F80932003D5
:102E000037E5A32E31E0B32E49E2442E43E0542EA1
:102E100052E2E52E53E0F52EEA81FB818E1A9F0ADD
:102E200087016501212C21100CC0809121038111A3
:102E300008C00E944834853595401CF4D7016C9237
:102E40000CC0F8018081882341F0861530F4909100
:102E50002003391202C081508083D601EC91EF3FEC
:102E600029F1D8012C91F0E0B981B21790F430E04B
:102E70004A815B81241B350B249FC001259F900D47
:102E8000349F900D1124B4010E940D35262F462D3C
:102E90000AC0629EC00111246A817B810E940D35A7
:102EA000462F20E060E0CF010E948332239457E058
:102EB000C50ED11C095F1F4F88E02812B4CF9FEFC9
:102EC000E91AF90AAFEFAA1ABA0A4E145F0409F018
:102ED000A7CF80912003381202C010922003809166
:102EE00021038F5F8D3118F48093210365CA1092FE
:102EF00021032CE433E087E04FEF460DA2E2B3E07C
:102F0000F90197E0873041F4D1965C91D197651231
:102F100003C0D1964C93D1975081561510F0408341
:102F200067829150319611969111ECCF81502750C4
:102F300031098111E3CF40CAB1E27B12BCCA8BE6F2
:102F400090E366CBE8E27E120CC062EE7FE205C041
:102F500034E27312B0CA6CE470E380E00E94301D6A
:102F600064C9E71508F432C0F5E27F120BC0809106
:102F7000950321E0482F421B08F440E0842F64E1D0
:102F800070E3ECCFF71570F023E27212E1CF80917D
:102F9000950321E0382F321B08F430E0832F6CE4D6
:102FA00070E3DCCF46E2741203C064E170E3D5CF76
:102FB00057E2751280CA8091950321E0582F521B69
:102FC00008F450E0852F62EE7FE2C8CF8BE27812E2
:102FD0000BC08091950321E0482F421B08F440E08C
:102FE000842F64EB7FE2BACF8715A0F099E27912C3
:102FF0000BC08091950321E0382F321B08F430E09C
:10300000832F6AEC7FE2AACFAAE27A1254CA6AEC52
:103010007FE2A3CFBCE27B1203C064EB7FE29DCFD3
:10302000EFEF7E1248CA8091890390918A03A091A4
:103030008B03B0918C0388279C70AA27BB272AE0BA
:10304000B695A795979587952A95D1F782309105E2
:10305000A105B10571F083309105A105B10569F0B5
:1030600040E00197A105B10511F060E008C064E1FE
:1030700002C044E160E080E003C044E164E184E137
:103080000E94803282E006C92396E2E10C945E350C
:103090009B01782F777043E0969587954A95E1F7E5
:1030A000FC01EE0FFF1F8E0F9F1FF901E80FF91FA4
:1030B00040E050E080E0219130E0072E02C03695DC
:1030C00027950A94E2F721703327042E01C0220FBE
:1030D0000A94EAF7822B4F5F5F4F4330510559F74F
:1030E0000895962F9770A1E001C0AA0F9A95EAF76C
:1030F00093E0769567959A95E1F7FB01EE0FFF1F38
:103100006E0F7F1FFA01E60FF71F40E050E0682FB7
:1031100070E090819B01042E02C0369527950A9499
:10312000E2F72170219529272A23292721934F5F30
:103130005F4F4330510569F70895CF92DF92FF92B8
:103140000F931F93CF93DF936C0100915A028091EC
:10315000C504082BC3E0D0E010E0C8010C2E02C06B
:10316000959587950A94E2F780FD04C02197A8F70A
:10317000F12C09C0FC2EB6018C2F0E94FD280E9464
:103180001D29019799F38F2DDF91CF911F910F91F9
:10319000FF90DF90CF900895CF93DF93EC010E94D2
:1031A0009D18BE010E94FD280E941D29DF91CF912C
:1031B0000895FC0124812223D9F0808191810E940D
:1031C000CC1892959F70963079F010F4925001C00F
:1031D0009A50923068F4803F69F018F4883E40F4C9
:1031E00009C0843F29F406C0883E20F0813F11F0D9
:1031F00080E0089581E00895A4E1B0E0E2E0F9E123
:103200000C9448358C0186E0F801DE011F96019090
:103210000D928A95E1F7D80114968C911497159622
:10322000EC9099E7892E94E0992E90917D0491116C
:1032300020C0882309F46CC1EE2009F442C0C80103
:103240000E94D918F82E8823E1F187E0F801D40113
:1032500001900D928A95E1F780917D04813031F4DF
:103260008091790490917A040E94CC180E94752B69
:1032700051C1F801D080C180A280B380F0907E045B
:1032800020917B0430917C04FF2009F4F0C0A5015B
:10329000421B530B483C510508F0A6C0882309F493
:1032A00039C180917F04282F207F90917A042223B6
:1032B00061F09C1509F469C0C8010E94D9188111F8
:1032C0006CC0C8010E94090C23C19C1114C09091CC
:1032D00079049D1110C0E1100EC08F708061809341
:1032E0007F0489E794E00E94090C80917F04D80153
:1032F00016968C930BC1E1103AC040E06C2D8D2DD9
:103300000E944B2B40E06C2D8D2D0E944B2BE82E04
:103310008111FCC0DF86C88A8F8598890E94CC18ED
:10332000292F22952F70243020F49F70223028F00E
:1033300009C02A50223080F014C0992349F081112D
:1033400007C013C0992321F0F8019681907F69F09E
:10335000805E883030F409C0803F38F0815F833070
:1033600020F0C8010E94090CEF2CFE2CD3C08091E4
:103370007F04816080937F0489E794E00E94090CB8
:10338000E9E7F4E087E0DF013AC0909179049D110C
:1033900093CFE11091CFF80198C0EE2009F491CFBE
:1033A00020917F04822F82958F7090E002978CF09D
:1033B0008091790490917A0499878887BB86AA8640
:1033C00080917D048C871D862E87CE0108960E94F1
:1033D000090C87E0F801A9E7B4E001900D928A9505
:1033E000E1F70E94752B94C090917F04292F207FD4
:1033F00051F489E794E00E94090C87E0D4011D9202
:103400008A95E9F783C0882309F484C080917A04FF
:103410008C110CC0809179048D1108C0E11006C098
:10342000F8019683C8010E94090C6AC0C8010E9475
:10343000D918882309F445CFEE2009F442CF209112
:103440007F04822F82958F7090E0029714F2809112
:10345000790490917A049A838983BC82AB828091AB
:103460007D048D831E822F83CE010196B0CFA21AD8
:10347000B30AB8ECAB16B10408F042C0882309F4D3
:1034800047C0FE2CEE2009F41CCF80917A048C11E9
:1034900029C0809179048D1125C090917F0490FD01
:1034A00018C0892F82958F70282F30E021153105A3
:1034B00081F0F80196832F30310541F08F5F982F0E
:1034C0009295907F86818F70892B8683C8010E9498
:1034D000090C87E0F801A9E7B4E001900D928A9504
:1034E000E1F718C0C8010E94D918811172CF8091EC
:1034F0007F04816080937F04C8010E94090C0AC088
:1035000087E0D4011D928A95E9F704C0F12C02C02E
:10351000FF24F3948F2D6496ECE00C946435292FEE
:10352000983058F4873048F490E06DE573E037E068
:10353000239F800D911D112406C02C5F223030F492
:103540006AE573E090E00E944818089580E00895CD
:10355000282F862F983060F4273050F4622F70E0C7
:1035600027E0929F600D711D11244DE553E007C0C7
:103570009C5F923030F4622F70E04AE553E00E9485
:103580007118089580935A02089590915A0221E08B
:1035900030E0F90101C0EE0F8A95EAF7D90102C0C7
:1035A000AA0FBB1F6A95E2F7BD016E2B01C0220F67
:1035B0004A95EAF7892F8623681303C0892F822B47
:1035C00003C02095822F89230E94C21A089521E00A
:1035D00030E001C0220F8A95EAF7209580915A02C7
:1035E00082230E94C21A089521E030E001C0220F18
:1035F0008A95EAF780915A02822B0E94C21A089596
:103600008093C5040895CF93C6E0EFECF4E0DF01AA
:103610008C2F1D928A95E9F780E090E00E947D2F23
:1036200080E090E00E94582F1092BC040E94E32A90
:10363000E3E7F4E0DF011D92CA95E9F710926C040C
:1036400010926D0410926E040E940723CF9108958A
:10365000882321F00E94DC2A0E94E32A089588230F
:1036600039F090917203892B809372030E94E32AB0
:10367000089590917504662309F470C091110CC0EF
:1036800090917604911108C090917804911104C032
:1036900090917704992331F098E090936C0491E035
:1036A00090936D048D3C21F40E945323819504C0B6
:1036B0008E3C29F40E94532380937604C3C08F3C30
:1036C00021F40E945323819504C0803D29F40E9477
:1036D000532380937504B6C0893D19F40E943123A9
:1036E00005C08A3D31F40E9431238195809377048F
:1036F000A9C08B3D21F40E943123819504C08C3DEB
:1037000029F40E943123809378049CC09FE2980F93
:10371000983078F421E030E0A90102C0440F551F31
:103720009A95E2F7CA0190917404892B80937404EE
:1037300089C08D3D21F480916E0481600CC08E3D66
:1037400021F480916E04826006C08F3D09F07AC03A
:1037500080916E04846080936E0474C08D3C39F453
:103760009091760497FF33C01092760457C08E3C38
:1037700029F4909176041916BCF329C08F3C29F4E2
:1037800097FF25C01092750449C0803D19F41916A1
:10379000CCF31DC090917704893D29F41916BCF42F
:1037A000109277043BC08A3D19F497FF10C0F8CF00
:1037B0008B3D39F49091780497FF09C010927804FA
:1037C0002DC08C3D21F4909178041916BCF39FE232
:1037D000980F983080F421E030E0A90102C0440F36
:1037E000551F9A95E2F7CA01809590917404892338
:1037F0008093740413C08D3D21F480916E048E7FFC
:103800000BC08E3D21F480916E048D7F05C08F3DED
:1038100029F480916E048B7F80936E0480917504EF
:10382000811106C080917604811102C010926C044F
:1038300080917704811106C080917804811102C0C3
:1038400010926D040E9407230895882309F456C03E
:10385000823859F40E94A22F81FF50C089E30E9450
:103860003F2F0E94E32A89E30CC0833879F40E9439
:10387000A22F80FF43C083E50E943F2F0E94E32ACE
:1038800083E50E94332F0E94E32A0895843859F477
:103890000E94A22F82FF32C087E40E943F2F0E9425
:1038A000E32A87E4EECF9CEF980F913A50F390E231
:1038B000980F983050F4877091E001C0990F8A9565
:1038C000EAF7892F0E94DC2ADECF9BE5980F933020
:1038D00028F480E090E00E947D2F089598E5980FED
:1038E0009B3128F480E090E00E94582F089593E3E4
:1038F000980F933118F460E00E94391B0895CF931C
:10390000882309F493C0C82F8238A1F40E94A22F03
:1039100081FD8CC089E30E943F2F0E94E32A2FEF94
:1039200087EE93E0215080409040E1F700C0000016
:1039300089E315C08338C1F40E94A22F80FD76C0B0
:1039400083E50E943F2F0E94E32A2FEF81EE94E04F
:10395000215080409040E1F700C0000083E50E94C4
:10396000332F0E94E32A62C08438A1F40E94A22F60
:1039700082FD5CC087E40E943F2F0E94E32A2FEF64
:1039800081EE94E0215080409040E1F700C00000BB
:1039900087E4E5CF8CEF8C0F813A70F4EFECF4E024
:1039A00085ED94E02191C217D9F18E179F07D1F7C9
:1039B0008C2F0E943F2FD5CF80E28C0F883068F487
:1039C000C77081E090E001C0880FCA95EAF7909136
:1039D0007203892B80937203C4CFEBE5EC0FE330C5
:1039E00040F4F0E0E35FFD4F808190E00E947D2F86
:1039F0001DC0E8E5EC0FEB3150F4F0E0EE0FFF1FD7
:103A0000E05FFD4F808191810E94582F0FC083E3BA
:103A10008C0F833158F461E08C2F0E94391B06C053
:103A20008C2F0E94332F0E94E32AC2CFCF9108959A
:103A30001F93CF93DF93182FEB010E947F1C2097D9
:103A400041F08FE99FE00197F1F700C00000219756
:103A5000F6CF812F0E94251CDF91CF911F910895F1
:103A6000A7E0B0E0E6E3FDE10C944235282E4B01DF
:103A7000809115010E94AB25392E8F8320919503EB
:103A800029839F81931508F079C03F81632E712CA3
:103A9000F301ED51FE4F908180911601892309F4C5
:103AA00069C040908E0350908F03122D1E82C30177
:103AB000880F991FDC01A157BE4FBB83AA83C301A6
:103AC000880F991FFC01E057FE4FFD83EC83F981BD
:103AD0001F1708F03EC0E12EF12CAA81BB81CC90CB
:103AE000D12CF701EB56FC4F8181C81AD108AC816B
:103AF000BD81AC90B12C8185A81AB108CC9C9001F5
:103B0000CD9C300D300D1124AA9CC001AB9C900DB2
:103B1000900D1124820F931F0E94FB32082F609199
:103B2000910321E0620F08F46FEFF701EE0FFF1F22
:103B3000EB56FC4F818D928D0E9455337C0195018F
:103B4000A601B2018E81F40109952B018E831F5FBE
:103B5000BECF209190038E81382F329F312D1124BA
:103B6000832FB2010E947233462F282F672FC30183
:103B70000E9483328F818F5F8F8383CF81E0A9E2A0
:103B8000A31508F480E02796E2E10C945E35A0E0EE
:103B9000B0E0EDECFDE10C944C35EC0180911501A9
:103BA0000E94AB25092F182F2091910331E0230F9C
:103BB00008F42FEF30E040E050E06FEF7FEF80E05F
:103BC00090E00E94AA347901101708F041C0C12E7C
:103BD000D12CF601ED51FE4F908180911601892381
:103BE000A9F190919503915097FD15C0492F092E89
:103BF000000C550BFA01EB56FC4F81891813F3CFDB
:103C0000440F551FFA01EB56FC4F218D328D2E15B6
:103C10003F0548F701C097016091910341E0640FAF
:103C200008F46FEFC9010E945533AC0160918E0317
:103C300070918F0380919003FE0109950E94723369
:103C4000462F282F672FC6010E9483321F5FBCCFEB
:103C500081E00A3208F080E0CDB7DEB7E8E00C94EE
:103C60006835A0E0B0E0E7E3FEE10C944D358C014F
:103C7000809115010E94AB25EC016091910366953E
:103C8000669521E0620F08F46FEF809189039091AF
:103C90008A030E945533D82ECD17F0F4EC2EF12C68
:103CA000F701ED51FE4F908180911601892391F02B
:103CB00060918E0370918F03809190032D2D4C2F76
:103CC000F80109950E947233462F282F672FC701EC
:103CD0000E948332CF5FE0CF81E0DA3208F080E0EB
:103CE000CDB7DEB7E7E00C946935A0E0B0E0EBE7D4
:103CF000FEE10C9449356C01809115010E94AB25C1
:103D0000192FC82F6091910366956695809189035C
:103D100090918A030E945533D82F80E48D0F0E9422
:103D2000A13290E8F92EF80E8D2F0E94A13220E8E2
:103D3000922E980EC11700F5AC2EB12CF501ED5165
:103D4000FE4F9081809116018923A1F060918E032E
:103D500070918F0380919003ED2E0C2F292D4F2D04
:103D6000F60109950E947233462F282F672FC5014F
:103D70000E948332CF5FDECF81E01A3208F080E00C
:103D8000CDB7DEB7EBE00C946535A0E0B0E0EBEC2E
:103D9000FEE10C9447355C01809115010E94AB2532
:103DA000F92E182F60919103669580918903909167
:103DB0008A030E945533782E1F1508F043C0812EC8
:103DC000912CF401ED51FE4F9081809116018923D1
:103DD000B9F1F401EE0FFF1FE157FE4FC081D0E0B3
:103DE000C057D109F401EE0FFF1FE95AFE4FC1ACD5
:103DF000D12C80E2C81AD108CC9F9001CD9F300D04
:103E0000300D1124CC9CC001CD9C900D900D11243F
:103E1000820F931F0E94FB32082F60918E037091D6
:103E20008F0380919003E72C9601AE01F50109956F
:103E30000E947233462F282F672FC4010E948332BD
:103E40001F5FBACF81E0F9E2FF1508F480E0CDB73B
:103E5000DEB7EDE00C946335A0E0B0E0E2E3FFE113
:103E60000C944C357C01809115010E94AB25D92E14
:103E7000182F6091910366958091890390918A0330
:103E80000E945533C82E1D1578F5C12FD0E0FE01D4
:103E9000ED51FE4F908180911601892319F1FE01A9
:103EA000EE0FFF1FE95AFE4F21AD30E020523109DD
:103EB000FE01EE0FFF1FE157FE4F408150E04057DB
:103EC000510960918E0370918F03809190030C2DA6
:103ED000F70109950E947233462F282F672FCE01D4
:103EE0000E9483321F5FCFCF81E0F9E2FD1508F415
:103EF00080E0CDB7DEB7E8E00C946835AAE2B0E028
:103F0000E4E8FFE10C945135E1E8F3E089E893E05F
:103F10002091F10021938E179F07D1F780918203A2
:103F2000833009F463C030F4813071F0823009F4D9
:103F30009FC0B6C08A3009F48BC08B3009F46EC0C4
:103F4000893009F0ADC020C080918103813A09F029
:103F5000A7C08091E800877F8093E8008091850367
:103F600090918603892B21F468E085E793E003C0F4
:103F700060E080E090E070E00E94EE2D8091E8002B
:103F80008B778093E8008CC080918103813209F0A7
:103F900087C08091850390918603009719F002975E
:103FA00009F07EC08091E800877F8093E8008091CF
:103FB000E80082FD05C080917F038111F8CF70C0B9
:103FC0002091F3008091F20090E0922B029731F45F
:103FD0008091F100813011F0863021F48091F10060
:103FE000809374038091E8008B7756C080918103A1
:103FF000813A09F055C08091850390918603892B01
:1040000009F04EC08091E800877F8093E80080919E
:10401000E80080FFFCCF8091140139C080918103BA
:104020008132F1F58091850390918603892BC1F54A
:104030008091E800877F8093E8000E94682C80913F
:10404000830380931401109272030E94031B28C003
:1040500080918103813221F58091E800877F8093F0
:10406000E8000E94682C809184038093730318C039
:1040700080918103813AA1F48091E800877F809349
:10408000E8008091E80080FFFCCF8091730380936B
:10409000F1008091E8008E778093E8000E94682C00
:1040A0008091E80083FFDFC18091810390918203BA
:1040B000492F50E04A30510508F0D5C1FA01E457C4
:1040C000FF4F0C943535803821F0823809F0CBC190
:1040D00008C080917D0390917E03992389F08260CE
:1040E0000FC0809185038F70873008F0BCC180932A
:1040F000E9008091EB0085FB882780F91092E900A8
:104100009091E800977F9093E8008093F1001092DF
:10411000F10070C1282F2D7F09F0A5C1882319F067
:10412000823061F0A0C180918303813009F09BC18E
:10413000933009F080E080937E032EC0809183034A
:1041400081112AC0809185038F702FEF280F2630B0
:1041500008F089C18093E9002091EB0020FF1CC08A
:10416000933021F48091EB00806214C09091EB00B9
:1041700090619093EB0021E030E0A90102C0440F70
:10418000551F8A95E2F74093EA001092EA00809169
:10419000EB0088608093EB001092E9008091E800CA
:1041A000877F8093E8000E94682C5DC181115BC10C
:1041B000109183031F778091E3008078812B809397
:1041C000E3008091E800877F8093E8000E94682CDC
:1041D0008091E80080FFFCCF8091E30080688093AD
:1041E000E300111102C082E001C083E080937F03ED
:1041F0003AC18058823008F036C120918303309153
:1042000084032C3D53E0350779F583E08A838AE205
:1042100089834FB7F894DE01139620E03EE051E227
:10422000E32FF0E050935700E49120FF03C0E295A4
:10423000EF703F5FEF708E2F90E0EA3010F0C7967E
:1042400001C0C0968D939D932F5F243149F74FBFD6
:104250008091E800877F8093E8006AE270E0CE01F9
:1042600001960E94EE2DB4C0809185039091860343
:10427000432F552743305105A9F068F441305105CB
:1042800009F400C14230510509F0EDC08BE590E022
:10429000EDEBF2E04BC04132510529F142325105BC
:1042A00089F1E1C0C901992781309105A1F058F049
:1042B000029709F0D8C0EAE2F3E0E4918E2F90E093
:1042C000EAE2F3E030C0E6E7F3E0E4918E2F90E01D
:1042D000E6E7F3E028C0EAE5F3E0E4918E2F90E012
:1042E000EAE5F3E020C08330910508F0BCC0880FF8
:1042F000991FFC01EF5AFE4F0190F081E02D89E0FB
:1043000090E014C08330910508F0ADC0FC01EE0FC1
:10431000FF1FE55BFE4F0190F081E02DDC01A85B03
:10432000BE4F8C9190E0009709F49DC02091E80069
:10433000277F2093E8002091870330918803281776
:10434000390708F4C90140E0009789F120917F0303
:10435000222309F43DC02530D9F12091E80023FD46
:1043600037C02091E80022FD2FC02091E80020FFF7
:10437000EBCF4091F3002091F20030E0342B009716
:1043800059F02830310540F444914093F1003196C2
:1043900001972F5F3F4FF3CF41E02830310509F0FF
:1043A00040E02091E8002E772093E800CDCF411126
:1043B000CDCF0AC080917F03882351F0853041F032
:1043C0008091E80083FD04C08091E80082FFF2CF75
:1043D0008091E8008B778093E80045C0803809F031
:1043E00042C08091E800877F8093E800809180033D
:1043F0008093F1008091E8008E77D3CE811133C095
:1044000080918303909184039927029764F58091AA
:10441000E800877F8093E800109183031093800366
:104420000E94682C111106C08091E30087FD02C034
:1044300081E001C084E080937F0342E061EC81E091
:104440000E94872C42E261EC84E00E94872C42E2C9
:1044500061EC82E00E94872C42E260EC83E00E94E3
:10446000872C80917F038091E80083FF10C08091AA
:10447000E800877F8093E8008091EB008062809362
:10448000EB0005C082E190E0E8E1F3E04FCFAA96AF
:10449000E3E00C946D35FC01EE0FFF1FDF01A80F68
:1044A000B91FA251BC4F11963C911197361307C00A
:1044B0003C91341304C012963C91321759F031E00C
:1044C0003093ED038E0F9F1FFC01E251FC4F61837F
:1044D000408322830895FF920F931F93CF93DF931E
:1044E000182F062FF42EC0E0D0E02F2D402F612F83
:1044F000CE010E944B222196CA32D105B1F7CDB729
:10450000DEB7E5E00C946B351092ED030895EDE80D
:10451000F3E0248130E1231B08F420E02483809120
:10452000EC0381608093EC030895EDE8F3E02481CF
:1045300030E1230F08F42FEF24838091EC03816096
:104540008093EC0308958091ED03882339F1539A09
:104550008BB1877F9BB198602FB7F894EEEEF3E0B4
:1045600034E0EC36F30789F0319148E09BB9000064
:1045700000C037FF8BB9330F000000C000C000C07F
:104580008BB900C04A9591F7EBCF2FBF8FE594E030
:104590000197F1F700C000001092ED030895CF934A
:1045A000C82F811102C06FEF01C064E285E290E084
:1045B0000E948634C11102C06FEF01C062E086E242
:1045C00090E00E948634C11102C06FEF01C069E122
:1045D00087E290E00E948634CF91089585E290E0D2
:1045E0000E946834843281F486E290E00E9468344C
:1045F000823051F487E290E00E94683491E0893182
:1046000009F090E0892F01C080E0817008950E9438
:10461000FE2E20917504211104C0209176042223DE
:1046200021F09093720480937104209177042111FA
:1046300004C020917804222321F090937004809389
:104640006F04E091D704F091D804309749F082E0EC
:10465000809373040680F781E02D83E794E0099549
:10466000089580916E0480FD16C081FD16C082FD04
:1046700018C080916D04882391F0883290F428E06E
:10468000829FC001112468E270E00E942135862FCC
:10469000672B29F007C082E0089584E0089581E047
:1046A000089588E0089580916E0480FD14C081FD16
:1046B00014C082FD16C080916C04882381F08E3175
:1046C00080F420E5829FC00111246EE170E00E9419
:1046D0002135862F089584E1089588E2089588E0C1
:1046E000089580E50895282F35EB2303C001112498
:1046F00097FF03C08058910902C080589F4F892FAF
:104700000895CF93DF93C9E1D2E060E0CE010E942B
:1047100086342196C11584E0D807B9F7DF91CF918F
:1047200008950F931F93CF93DF93843038F5633050
:1047300028F594E0699FE00111249CE0899FC00D59
:10474000D11D1124C751DE4F411103C082E090E01A
:1047500002C080E090E0632F022F142F8C0F9D1F6A
:104760000E948634111103C083E090E002C081E012
:1047700090E0602F8C0F9D1F0E948634DF91CF91B7
:104780001F910F910895FF920F931F93CF93DF9383
:10479000843058F5633048F524E0629F800111248D
:1047A0003CE0839F000D111D112407511E4F411144
:1047B00003C082E090E002C080E090E0F42E800F21
:1047C000911F0E94683490E0D82FCC27F11003C0CD
:1047D00083E090E002C081E090E0800F911F0E9492
:1047E00068349E01282BC90102C080E090E0CDB75B
:1047F000DEB7E5E00C946B351F93CF93DF93962FD4
:104800008430E8F46830D8F44730C8F4632F122FAE
:10481000C42FD0E0CC0FDD1F2EE0929FC00DD11D24
:10482000112490E7899FC00DD11D1124CE018996D6
:104830000E948634612FCE018A960E948634DF91D1
:10484000CF911F910895A0E0B0E0E9E2F4E20C946A
:1048500048359AE3C92E95E0D92EE12CF12C912C04
:10486000812C00E010E0C0E0D0E05701A00EB11EA6
:10487000FE01EE0FFF1FEA0DFB1DE658FC4F2591D0
:1048800034914C2F682D892D0E94FC232196C7302E
:10489000D10571F7025F1F4F839488E08812E3CF40
:1048A0008601C0E0F8012591349141E06C2F892DFB
:1048B0000E949123F80132962591349140E06C2FAB
:1048C000892D0E9491230C5F1F4FCF5FC33051F79A
:1048D0008CE0C80ED11C939480E7E80EF11C84E0B4
:1048E0009812BECFCDB7DEB7ECE00C94643580E013
:1048F0000E94CF2260E070E0CB010E94AF2F0E94A7
:1049000023240E94812381E00E94CF2208950F93E7
:104910001F93CF93DF93843008F56830F8F4473065
:10492000E8F4C42FD0E0CC0FDD1F2EE0629FC00D55
:10493000D11D112430E7839FC00DD11D1124CE015C
:1049400089960E94683490E0182F0027CE018A963D
:104950000E9468349801282BC90102C080E090E0D1
:10496000DF91CF911F910F910895882311F0FA01E3
:1049700001C0FB01099508951F93CF93DF93FC01BC
:10498000ED51FE4F20816223B9F0EC010E94E63226
:10499000182F0E94E63220E8829FC00111247FE791
:1049A000790F612F809190030E947233462F282F38
:1049B000672FCE010E948332DF91CF911F9108951E
:1049C000A0E0B0E0E6EEF4E20C944D35EC01FC0121
:1049D000ED51FE4F9081692349F1D0908F030091F2
:1049E000900310918E03E12EF12C0E94E632282FC5
:1049F000C7018C549F4F68E671E00E9421358E19E3
:104A00009F0997FD039695958795959587952370B2
:104A1000612F289F600D11247D2D802F0E947233FD
:104A2000462F282F672FCE010E948332CDB7DEB7E5
:104A3000E7E00C94693590918D03937069F0809351
:104A40008E0360938F0347FD4FE74093900380915F
:104A5000EC03282B2093EC030895EDE8F3E0438169
:104A600020E1421B08F440E0818121E0628190E076
:104A70000E941B250895EDE8F3E0438120E1420FF9
:104A800008F44FEF818121E0628190E00E941B25B4
:104A90000895EDE8F3E0628120E1621B08F460E034
:104AA000818121E0438190E00E941B250895EDE87B
:104AB000F3E0628120E1620F08F46FEF818121E071
:104AC000438190E00E941B250895EDE8F3E0818189
:104AD00090E021E04381628108970E941B250895A0
:104AE000EDE8F3E0818190E021E043816281089666
:104AF0000E941B25089590918D039370A1F0811160
:104B000002C0946007C08D3210F0906B03C0880F14
:104B1000880F982B90938D0310921A018091EC03CB
:104B2000682B6093EC03089580918D03869586959C
:104B3000815009F48CE261E00E947B250895809108
:104B40008D03869586958F5F8D3208F081E061E058
:104B50000E947B25089599E0899F802D1124980F4C
:104B60009B3208F09AE208954F925F926F927F9283
:104B70008F929F92AF92BF92CF92DF92EF92FF926D
:104B8000CF938091E7039091E803A091E903B0915E
:104B9000EA032FB7F894C090DC04D090DD04E090D5
:104BA000DE04F090DF042FBFC81AD90AEA0AFB0A14
:104BB0000E94F22E4B015C016093E7037093E803BF
:104BC0008093E9039093EA03A091BE03EEEBF3E038
:104BD0008A2F90E04FEF5FEF60E070E04C195D09C5
:104BE0006E097F09A91799F0218D328D2901612C59
:104BF000712C441555056605770510F4815004C0E5
:104C00002C0D3D1D328F218F9F5F3296EBCF80930D
:104C1000BE038091EB03811108C0C0918D038C2FDE
:104C2000837019F0C695C69501C0C0E080911A0145
:104C30008130D9F028F0823021F1833079F159C0E8
:104C4000109215018092890390928A03A0928B039F
:104C5000B0928C0389E2EEEBF3E0A5E9B3E00190BA
:104C60000D928A95E1F781E016C08C2F0E94DD102D
:104C7000CC2309F43EC08091150181500E94AB25E0
:104C800038C0C093190180918D03837080931801FF
:104C90000E94A32283E080931A012BC08091EC0331
:104CA000882351F048E050E068E170E08DE893E03F
:104CB0000E9476341092EC034091890350918A034C
:104CC00060918B0370918C032FB7F8948091DC0472
:104CD0009091DD04A091DE04B091DF042FBF841B0E
:104CE000950BA60BB70B4097A105B10510F01092DC
:104CF0001A01CF91FF90EF90DF90CF90BF90AF90CF
:104D00009F908F907F906F905F904F90089580E07C
:104D1000089590915B0292FF10C041E0282F24710A
:104D2000243009F040E031E0282F2871283009F0C4
:104D300030E0431711F02CE0822793FF10C041E0D0
:104D4000282F2471243109F040E031E0282F287108
:104D5000283109F030E0431711F02CE08227309120
:104D60005C0230FF10C051E0282F2171213009F082
:104D700050E041E0282F2871283009F040E0541716
:104D800011F029E0822731FF10C041E0282F217166
:104D9000213109F040E031E0282F2871283109F055
:104DA00030E0431711F029E0822794FD877E0895B3
:104DB0008238910569F1B0F48133910509F475C029
:104DC00048F48932910509F467C08A32910509F4E3
:104DD00071C008958533910509F459C0893391054F
:104DE000B9F00895833E910589F138F4803E91052C
:104DF000D1F0823E910529F10895863E9105C9F1D1
:104E0000873E9105D9F1843E910509F06CC027C019
:104E100020915B0220FD57C021FD55C020915C020E
:104E200023FD5BC0089580915B0280FD48C08091A6
:104E30005C0280FF48C080915B0284FD46C083EE27
:104E400051C080915B0282FF3CC0F5CF80915B0234
:104E500082FD37C080915C0280FD35C0ECCF80912F
:104E60005C0281FF36C080915B0284FD2EC087EE1C
:104E700039C080915B0283FF2AC0F5CF80915B022D
:104E800083FD25C080915C0281FD23C0ECCF809121
:104E90005B0285FD22C01FC080915B0285FD1BC0A7
:104EA00080915C0283FF19C00AC080915B0286FD7D
:104EB00016C017C080915B0286FD13C010C089E345
:104EC00011C082EE0FC080EE0DC080E00BC086EEF8
:104ED00009C084EE07C085E305C089E203C08AE209
:104EE00001C081E390E00895A3E0B0E0EAE7F7E2D3
:104EF0000C94423502E512E086E5682E82E0782EB9
:104F0000D80190E2E92E91E0F92E212CAA24A39455
:104F1000B12C4D013C901C92F70181917F01E82F4B
:104F2000E295EF702E2F30E03B832A83F90121A117
:104F30008F70A50102C0440F551F8A95E2F7CA0180
:104F4000242B21A322A140954983242322A350EAA4
:104F50005A95F1F768E271E06B0120E030E0F6016C
:104F600051906F01452D42954F7050E0FA0140A1DC
:104F70004C9050E0F52DFF7002C055954795FA957D
:104F8000E2F740FD07C04A2D022E01C0440F0A94EB
:104F9000EAF701C040E0442A4C922F5F3F4F273090
:104FA0003105E9F6EA81FB8191A1F9819F23EA812C
:104FB000FB8191A392A1892B82A3119681E0F40138
:104FC0009081931101C080E0282A6A167B0609F0BF
:104FD000A0CF40E050E0EE24E394F12CDB018D9172
:104FE000BD01E82FE295EF70F0E021A18F70D701AD
:104FF00002C0AA0FBB1F8A95E2F7CD012A2B21A37D
:1050000022A14A2E4094242122A3B0EABA95F1F7B6
:105010009701042E01C0220F0A94EAF7622E922E05
:10502000909426E532E03B832A83A0E2CA2EA1E0D9
:10503000DA2E812CAA80BB80D5017C90D6015D90B0
:105040006D01252D22952F7030E0D90190962C917D
:1050500030E0B52DBF705B2E02C035952795BA950F
:10506000E2F720FD04C0272D2629D50104C0272DF5
:105070002921AA81BB812C932A813B812F5F3F4F3D
:105080003B832A83D5012C91721611F088248394D6
:105090002A813B812A55324069F691A149224982F1
:1050A00041A292A1892B82A328284F5F5F4F4730EE
:1050B000510509F093CF1092CC04B091CB04B98381
:1050C000BB2309F43FC00E94FE2E2091C9043091F9
:1050D000CA04FC01E21BF30B9F019093CA04809366
:1050E000C904EF3FF10509F020F4EF2B09F481C06A
:1050F00002C02FEF30E01092CB041092C804E09170
:105100005002F0915102BF01685C7F4F90E030E0A7
:10511000AF01495F5F4F8081882341F0281718F065
:105120001082998103C0821B808339813196E417F4
:10513000F50789F76E177F0759F73093CB049093E3
:10514000C80457C0222009F44CC00E94FE2E909340
:10515000CA048093C9041092C804809150029091AF
:1051600051027091CB046091CC04A1E7B2E09C01A4
:10517000285C3F4F3B832A83EE24E394F12C32E3F7
:10518000B32EF80131918F012C913227FC0140E0C0
:1051900050E06701042E02C0CC0CDD1C0A94E2F73B
:1051A000A32EAC2039F0A080A11004C0B0822C2521
:1051B00061E071E031964F5F5F4F4730510549F72D
:1051C00007962D932A813B8128173907D1F67093D2
:1051D000CB046093CC048091CC042396E2E10C9440
:1051E0005E3580E09091C8049923A9F38111B3CF73
:1051F000ACCF2110B0CF81E0F5CF783048F46730E4
:10520000C8F48430B8F4462F672F0E94872408958D
:105210007D3F31F4633070F4843060F441E007C0C6
:105220007C3F41F4633030F4843020F440E00E944D
:10523000C323089580E090E008951F93CF93DF93F8
:105240000E94D826EC01C11580E5D807E8F5C11504
:1052500090E4D90708F0A8C0C03ED10530F5CD3C98
:10526000D10508F094C0C83AD10578F4C53AD10503
:1052700008F083C0C130D10509F47CC008F4F2C045
:10528000C430D10508F0F1C0EDC0C33CD10508F031
:10529000E9C0C85AD0E0CC0FDD1FC05FDD4F0990D8
:1052A000D881C02DCE019464E1C0C11580E2D80739
:1052B00008F0CBC0C11591E0D90708F06BC0C83E1B
:1052C000D10508F4D2C0CEC0C03682E5D80728F593
:1052D000C03492E5D90708F079C0C03282E5D8071A
:1052E00008F06CC0C11592E5D90708F481C04C2FB5
:1052F0004695469580E2489FA0011124C37021E0A5
:1053000030E0C90102C0880F991FCA95E2F7EA018F
:10531000C82BD92BCE019D68A9C0C03A82E5D80719
:10532000B8F48C2F8F71C03892E5D90708F07BC094
:105330008695869590E2899F90011124C37081E043
:1053400090E002C0880F991FCA95E2F79A6868C07A
:10535000C03C82E5D80708F46DC0C03E92E5D9078D
:1053600008F080C0CF71DD27DC2FCC27CE01806F05
:10537000906A7CC081E090E079C0C55AD0E0C35FFC
:10538000DD4F8881C82FD0E0CE0190646FC0CE0180
:1053900090656CC08D2F0E948926182FCE01992709
:1053A0000E94D8261F715CC0CE0199270E94D82682
:1053B000CC27DF70D06A8C2B9D2B58C0CF71D0E0EA
:1053C000DC2FCC27CE01816F906A50C08C2F8F715B
:1053D0008695869590E2899F90011124C37081E0A3
:1053E00090E002C0880F991FCA95E2F79C6818C028
:1053F0008C2F8F710E94892695E0D695C7959A9536
:10540000E1F7CF70D0E0DC2FCC27282F30E084FFED
:1054100005C084E0220F331F8A95E1F7D069CE01E1
:10542000822B932B23C090E0D82FCC27CE01846F02
:10543000906A1CC08C2F8F710E9489268F7190E01A
:10544000D82FCC27CE01906211C08D2F8F710E9472
:105450008926182FCE0199270E94D8261F719062A5
:10546000912B04C080E090E001C0CE01DF91CF918C
:105470001F910895A6E0B0E0E0E4FAE20C94503504
:105480000E94FE2E8C018091C6049091C7040817DB
:10549000190781F019821A820E94FE2E682F498115
:1054A0005A81792F80E090E00E94770B1093C70417
:1054B0000093C6042696E4E00C946C3580E090E0FE
:1054C0000E947034863E9E4F19F40E94EE22089589
:1054D00080E00895A8E0B0E0E0E7FAE20C945235ED
:1054E00066EE7EEF80E090E00E94A43460E082E00F
:1054F00090E00E94863481E08093C50461E083E0FF
:1055000090E00E94863460E074E184E090E00E94C4
:10551000A43460E086E090E00E9486346FEF87E07C
:1055200090E00E94863440E050E0BA0188E090E0CC
:105530000E94983460E084E290E00E94863460E04B
:1055400087E190E00E94863460E08CE090E00E9469
:10555000863460E08DE090E00E94863419821A82E1
:105560001B821C821D821E821F82188648E050E02A
:1055700068E170E0CE0101960E94763440E050E090
:10558000BA0180E290E00E94983480E00E94CF222D
:105590000E94772440E050E0BA018FE090E00E9442
:1055A000983440E050E0BA0183E190E00E949834E2
:1055B0002896E2E00C946E358095909172038923D1
:1055C000809372030895909172038091BC04892B9B
:1055D0009091BB04992379F0892BEFECF4E027E05C
:1055E00090E0215029F031913323D9F39F5FF9CF17
:1055F00091111092BB048093CD0448E050E06DEB14
:1056000074E08DEC94E00E949A36892BA9F088E032
:10561000EDECF4E0ADEBB4E001900D928A95E1F78A
:10562000E091D704F091D804309731F00280F381F3
:10563000E02D8DEC94E0099508959091BA04809541
:1056400089238093BA04282F277069F4981759F09A
:1056500090915C0292FF07C08695869586950E9480
:10566000E71A1092BA04089590915C0292FB2227E7
:1056700020F9281779F080FB92F990935C026091F1
:105680005B0270915C0284E090E00E94A43482E0AE
:105690000E941D2B08952091B9049091800457E039
:1056A0002917A9F030E0529FF001539FF00D11240B
:1056B000EF57FB4F7181761306C07081781303C0DA
:1056C0007581741306C02F5F3F4F2770E9CF80E0CC
:1056D000089581E008958091B9049091800489171C
:1056E00019F08F5F8770FBCF0895CF93DF93809180
:1056F0007F0482958F7009F04EC080917E048823CC
:1057000009F449C08091B9044091800450917A0411
:1057100060917904C0917B04D0917C0477E0841778
:10572000D1F190E0789FF001799FF00D1124DF0115
:10573000AF57BB4F14962C911497222349F1119621
:105740002C911197251324C02C91261321C0159656
:105750002C91159721111CC012962D913C911397F5
:105760002C1B3D0B283C310598F480917F048F70F1
:10577000806180937F04E957FB4F80818F70806147
:10578000808389E794E00E94090C0E946B2B03C080
:1057900001968770C4CFDF91CF91089508958091CD
:1057A000740308951F920F920FB60F9211242F9336
:1057B0003F934F935F936F937F938F939F93AF9399
:1057C000BF93CF93DF93EF93FF93C091E900CF7026
:1057D0008091EC00D82FD17080FDD0E81092E900C4
:1057E0008091F000877F8093F00078940E947E1F64
:1057F0001092E9008091F00088608093F000CD2B3A
:10580000CF70C093E900FF91EF91DF91CF91BF91ED
:10581000AF919F918F917F916F915F914F913F9148
:105820002F910F900FBE0F901F901895E8EDF0E0AC
:1058300080818E7F80831092E2001092DA001092B5
:10584000E100A0EEB0E08C9181608C9380818F7735
:10585000808319BCA7EDB0E08C918E7F8C93808102
:105860008F7E80831092E00408952091E4003091AF
:10587000E50095E64091EC00842F817040FF23C045
:105880008091E80080FD1DC080917F03882399F0FE
:10589000853099F08091EB0085FD11C04091E400C6
:1058A0005091E5002417350729F3915011F09A0122
:1058B000E1CF84E0089582E0089583E0089581E0D7
:1058C000089580E008954091E80042FFDDCF0895FB
:1058D0008091810387FF11C08091E80082FD05C09F
:1058E00080917F038111F8CF11C08091E8008B7700
:1058F0000BC080917F03882349F08091E80080FFEE
:10590000F8CF8091E8008E778093E8000895982F73
:10591000973068F59093E900981739F07091EC0092
:105920002091ED005091F00003C0242F762F50E01D
:1059300021FD02C09F5FECCF3091EB003E7F3093A2
:10594000EB003091ED003D7F3093ED003091EB00A6
:1059500031603093EB007093EC002093ED00509396
:10596000F0002091EE0027FDE5CF80E008958F70D4
:105970008093E90081E00895A0E0B0E0E2ECFCE271
:105980000C944C35C8EDD0E088818F7E8883E7ED9C
:10599000F0E080818160808384E082BF81E0809339
:1059A000E00488818E7F888302EE10E0F801108287
:1059B0001092DA0081EEC82ED12CF6011082888177
:1059C0008F77888388818068888388818F7D8883AA
:1059D00019BC10927F031092800310927E031092E4
:1059E0007D0390EEE92EF12CF70180818B7F80837F
:1059F00088818160888342E060E080E00E94872C9B
:105A0000F60180818E7F8083F801808181608083B0
:105A1000808188608083F70180818E7F8083888188
:105A200080618883CDB7DEB7E8E00C9468351F92BB
:105A30000F920FB60F9211242F933F934F935F93C2
:105A40006F937F938F939F93AF93BF93EF93FF9346
:105A50008091E10082FF09C08091E20082FF05C0D1
:105A60008091E1008B7F8093E1008091DA0080FFDC
:105A70002AC08091D80080FF26C08091DA008E7FF6
:105A80008093DA008091D90080FF18C080E189BD41
:105A900082E189BD09B400FEFDCF81E080937F03E0
:105AA0008091E00481110FC00E94162C0E94BC2C32
:105AB0008091E20084608093E20005C019BC1092DE
:105AC0007F031092E0048091E10080FF17C0809175
:105AD000E20080FF13C08091E2008E7F8093E2009D
