:100000000C9429030C9446030C9446030C94460369
:100010000C9446030C9446030C9446030C9446033C
:100020000C9446030C9446030C94F82D0C94B32CBA
:100030000C94EB2F0C9446030C9446030C9446034B
:100040000C9446030C9446030C9446030C9446030C
:100050000C9446030C949E2F0C9446030C94460378
:100060000C9446030C9446030C9446030C944603EC
:100070000C9446030C9446030C9446030C944603DC
:100080000C9446030C9446030C9446030C944603CC
:100090000C9446030C9446030C9446030C944603BC
:1000A0000C9446030C9446030C944603E608E908B6
:1000B0001C0935093C0947094A094A094A09660ADF
:1000C000660ACC09CE09D209F8091B0A1E0A210AC0
:1000D000450A8F0D9D0DA20DA90DAE0DB30DB80DE6
:1000E000BD0DC20DC70DCC0DD10DD40DD70DDA0D40
:1000F000590D590D590D590D590D590D540E540ED8
:100100008A0E8A0E0C0F2A0F381038102F0FA50FE9
:10011000B80FB80FD020F720A022F720A02243214B
:100120006621A0225B226B2200000000000000007C
:1001300000000000000000000000000000000000BF
:100140000000000000000000000000007E0F00D44E
:10015000FFFFFFC700000078000000000000000063
:100160002A2B280000000000000000000000000012
:1001700000000029000000002C1E3420212224341D
:100180002627252E362D3738271E1F2021222324EF
:1001900025263333362E37381F0405060708090A8B
:1001A0000B0C0D0E0F101112131415161718191A27
:1001B0001B1C1D2F3130232D350405060708090AA5
:1001C0000B0C0D0E0F101112131415161718191A07
:1001D0001B1C1D2F3130354C05010902A101850280
:1001E0000901A10005091901290815002501950833
:1001F000750181020501093009311581257F9502BC
:100200007508810609381581257F950175088106D5
:10021000050C0A38021581257F950175088106C0F5
:10022000C005010980A101850319012AB700150144
:1002300026B700950175108100C0050C0901A101C8
:10024000850419012AA002150126A0029501751046
:100250008100C00660FF0961A1010962150026FF47
:10026000009520750881020963150026FF0095207E
:1002700075089102C005010906A101050719E029C9
:10028000E715002501950875018102950175088122
:10029000010507190029FF150026FF0095067508BE
:1002A000810005081901290515002501950575012D
:1002B0009102950175039101C009025B00030100E1
:1002C000A0FA090400000103010100092111010045
:1002D000012244000705810308000109040100020E
:1002E00003000000092111010001222200070582FC
:1002F0000320000107050303200001090402000197
:1003000003000000092111010001227B0007058480
:10031000032000011201000200000008091216A5C6
:100320000100010200012A035400520065004B0045
:1003300020004700540034003000200044004F00EB
:100340004E0055004D0043004F0045004C00490051
:1003500000001A036400690067006900740061000E
:10036000720068007900740068006D0000000403EA
:10037000090400010101010101010101020202025F
:10038000020202020203030303030303030404043F
:100390000404040405050505050606060606070708
:1003A00007070708080808090909090A0A0A0B0BC0
:1003B0000B0C0C0C0D0D0D0E0E0E0F0F0F1010115F
:1003C00011111212131314141515161617171818E5
:1003D00019191A1A1B1B1C1D1D1E1E1F202021224D
:1003E00022232424252626272829292A2B2C2D2D93
:1003F0002E2F30313232333435363738393A3B3CB0
:100400003D3E3F404142434445464748494A4C4DA2
:100410004E4F50515354555658595A5B5D5E5F616B
:100420006264656668696B6C6D6F707273757778FE
:100430007A7B7D7E8082838587888A8C8E8F91935C
:100440009596989A9C9EA0A2A3A5A7A9ABADAFB183
:10045000B3B5B7BABCBEC0C2C4C6C9CBCDCFD1D468
:10046000D6D8DBDDDFE2E4E7E9EBEEF0F3F5F8FA0E
:10047000FDFF167C14001A000800150017002B2140
:1004800004001600070009000A00E1001D001B001F
:10049000060019000500615291242A282C424E00C2
:1004A0004B004B014E01AA00A900D900DA001C0044
:1004B00018000C00120033002D000B000D000E0080
:1004C0000F00130034000500110010003600370043
:1004D0003832A8002C42283890310000AE000000CD
:1004E0000000000000000000000001000100010009
:1004F00001000100010001000100010001000100F4
:100500000100010001000100010001000100615231
:1005100001002A2101000100010001000100010089
:1005200001000100010001000100010001000100C3
:1005300001000100010001000100010001000100B3
:10054000010001000100010001000100010028314B
:1005500090180000010000000000000000000000F2
:10056000000035001E001F002000210022000100B5
:100570000100010001000100010001000100010073
:1005800001001908010001000100010023520100CF
:100590000100010001000100010001000100230031
:1005A00024002500260027002E0050005100520094
:1005B0004F0001000100D300B600B7002F0030004B
:1005C00031002078235201000100000001000000EA
:1005D0000000000000000000000001003A003B00A5
:1005E0003C003D003E0001002778287829782A78D1
:1005F0002178010023782478257826782278010054
:1006000001000100010001000100010001000100E2
:100610000100010001003F00400041004200430092
:10062000440001000100010001000100010001007F
:1006300001000100010001000100010001000100B2
:1006400001000000010000000000000000000000A8
:10065000000011241FBECFEFDAE0DEBFCDBF12E0F5
:10066000A0E0B1E0E2EEFCE602C005900D92AA32F5
:10067000B107D9F724E0AAE2B2E001C01D92A9387F
:10068000B207E1F70E9448030C946F360C94000007
:10069000A4E3B0E0EEE4F3E00C94013585B78068A4
:1006A00085BF85B7806885BF84B7877F84BF0FB655
:1006B000F894A89580916000886180936000109202
:1006C00060000FBE90E080E80FB6F8948093610060
:1006D000909361000FBE88EB92E290932B0280937F
:1006E0002A020E94F72C0E949D2D8091E2008460D6
:1006F0008093E2007894809147038823A1F01091C1
:10070000E9001F709091EC00892F817090FD80E8C6
:10071000182B1092E9008091E80083FD0E94EB1FE6
:100720001F701093E90082E084BD93E095BD9AEFBD
:1007300097BD80936E000E94E431811102C00E9437
:10074000D43183E080934C0241E451E0AEE3B1E068
:10075000F4E4EF2EF1E0FF2E8D019A0161E070E0EC
:10076000F90181919F01E82FE295EF70F0E0D1A0AF
:100770008F705B0102C0AA0CBB1C8A95E2F7C50111
:100780009A2D90959D2191A392A1892B82A3F80186
:1007900081918F01E82FE295EF70F0E0D1A08F708A
:1007A0005B0102C0AA0CBB1C8A95E2F7C5019A2D19
:1007B00090959D2191A392A1892B82A3E216F30625
:1007C00079F68FE891E00197F1F700C00000709191
:1007D0004C020DE412E060E0671751F1FA0121913B
:1007E000AF01822F82958F7090E0FC0180A190E094
:1007F0002F7002C0959587952A95E2F781709D919B
:10080000292F22952F7030E0F90120A130E09F7050
:1008100002C0359527959A95E2F720FF02C092E035
:1008200001C090E0892BF80181938F016F5FD4CFD5
:10083000AEE1B1E028E231E0AD0161E070E0FA0143
:100840008191AF01E82FE295EF70F0E011A18F7078
:100850005B0102C0AA0CBB1C8A95E2F7C5019A2D68
:100860009095912391A392A1892B82A324173507F8
:1008700031F748E251E06EE271E08A01EE24E39440
:10088000F12CF80181918F01E82FE295EF70F0E0F3
:10089000D1A08F70570102C0AA0CBB1C8A95E2F749
:1008A000C5019A2D90959D2191A392A1892B82A398
:1008B0006017710731F701E010E0FA018191AF0193
:1008C000E82FE295EF70F0E0F1A08F70580102C0C0
:1008D000AA0CBB1C8A95E2F7C5019A2D90959F2121
:1008E00091A392A1892B82A36417750731F761E068
:1008F00070E08D91E82FE295EF70F0E041A18F70EC
:100900006B0102C0CC0CDD1C8A95E2F7C6019C2D60
:100910009095942391A392A1892B82A32A173B0738
:1009200041F7EEE2F2E088E392E0A1E5B2E0119255
:100930001D928E179F07D9F78CE390E00E943835FF
:10094000AC0190932D0280932C0220E030E0FA015C
:10095000E20FF31F96E011929150E9F72A5F3F4FA3
:100960002C333105A1F70E947D26811102C00E941F
:10097000892682E090E00E94273480933B0284E045
:1009800090E00E942F3490933A02809339020E94A3
:10099000A5230FEF16E721E0015010402040E1F7BA
:1009A00000C000000E94A5238091510280FF08C072
:1009B0006FEF7FEF80E090E00E9463340E948D2F04
:1009C00083E090E00E9427340E94251B0E94103192
:1009D00010925D03E6E7F3E086E893E02FEF3FEF48
:1009E000219331938E179F07D9F71092FB03E4E10F
:1009F000F4E084E294E02FEF3FEF219331938E17E0
:100A00009F07D9F70E947D26811104C00E94892684
:100A10000E94C02A81E08093290448E050E068E108
:100A200070E085E593E00E941734109229048091CC
:100A300055038C7F11F40E94C02A8AE091E09093C4
:100A4000F2038093F103FF24F394809147038530F0
:100A500009F061C000E443E0E42E10E18091470317
:100A6000853009F050C080914703843009F439C0C3
:100A70000E94F3328091280481110DC00E94D6108B
:100A800010921901809155038370809318010E9480
:100A90002F31E0921A0131E0309328041092F503CF
:100AA00048E150E00FB6F894A895409360000FBE5F
:100AB0000093600083B7817F846083BF83B78160C8
:100AC00083BF7894889583B78E7F83BF0FB6F894E1
:100AD000A89580916000886180936000109260000A
:100AE0000FBE80914603882309F4B8CF0E94A52346
:100AF000E1E5F2E081918111F2C48BE592E08E177D
:100B00009F07C1F7ABCF10923A030E94281B0E94A7
:100B10008530109228040E94A5230CE312E018A748
:100B20000FA3A1E5B2E0F80191918D91892712E020
:100B3000E634F10719F08823B9F305C0811103C029
:100B40000E9459265DC106EE12E01CA70BA733E5F3
:100B5000232E31E0332E01E512E018AB0FA7E12C74
:100B6000AFA5B8A9AD90B8ABAFA7AAA6AFA1B8A5DD
:100B70007C90A724AEA6AA2009F42DC16BA47CA466
:100B80002101D12CCC24C3948EA58C2109F414C14D
:100B90008AA48C20D9A2EAA20E94DF2F9CA38BA357
:100BA000B1E0BDA391E0811001C090E09EA349A1F6
:100BB0005AA16BA17CA18DA10E94500B882041F00D
:100BC000F20180818F3F21F08DA79924939401C079
:100BD000912C092D10E08091FB035801A80EB11C47
:100BE000C5010997ACF188E0A82EB12CA01AB10A72
:100BF000B8016F5F7F4F65507C4FA5018CEF93E08C
:100C00000E946636B801675F7F4F65507C4FA50133
:100C100084E094E00E946636A501440F551FB80198
:100C2000660F771F675E7F4F65507C4F84E194E0CD
:100C30000E946636B8016F5E7F4F65507C4FA501FC
:100C40008CE094E00E94663688E089198093FB036B
:100C50008091FB0390E0BDA4AB2DB0E09D01220F7D
:100C6000331F21573E4FAA0FBB1FBD0160577E4F58
:100C700041E0480F9915B0F490E0FC01E550FC4FBD
:100C8000D9015C915183DB015C915187ADA4A18AAC
:100C9000880F991FFC01E550FC4F128E118E91E0D8
:100CA000842FE6CF8093FB03882009F485C08091D0
:100CB00055038C7F8C3709F07FC0D2018C918F3F18
:100CC00009F47AC073E5A72E71E0B72EE6EE8E2EFA
:100CD000E2E09E2E19A690E09C01220F331F8901AD
:100CE00001571E4F1AAB09AB890100571E4F1CABB1
:100CF0000BAB00E010E0F501E00FF11F80818F3FAA
:100D000009F448C029A52E110AC0D01208C0D30189
:100D10002C9130E2230F08F42FEF2C933BC090E08E
:100D2000E9A9FAA9408150E0FC01EE0FFF1FE1574D
:100D3000FE4F2081421B5109ABA9BCA92C9130E088
:100D4000880F991FFC01ED5AFE4F85AD281B310914
:100D5000449FB001459F700D700D1124229FC0016A
:100D6000239F900D900D1124860F971F0E94352B05
:100D7000893280F428E2382F231B08F420E0F401A4
:100D8000E00FF11F213108F020E13081320F08F42B
:100D90003FEF30830F5F1F4F0630110509F0ABCFD7
:100DA00009A50F5F09A716E0810E911C26E0A20E8F
:100DB000B11C0A3009F09DCFD394CC0C3FEF431AFD
:100DC000530A4FEF641A740A56E0D512DDCEAAA476
:100DD000AFA1B8A5AC92E3940FA118A50F5F1F4F68
:100DE00018A70FA316E0210E311C0BA51CA50A5F46
:100DF0001F4F1CA70BA71AE0E112B2CE0E94D32FFF
:100E00000E94F332E12CB12C80914C02E81608F0DC
:100E100085C0CE2CD12CF601EF5BFE4F2081E22F56
:100E2000E295EF70F0E080A190E02F7002C0959500
:100E300087952A95E2F78170F601E25CFE4F90817A
:100E4000E92FE295EF70F0E020A130E09F7002C042
:100E5000359527959A95E2F720FF02C022E001C060
:100E600020E0982F922BF601E35BFD4F8081282F25
:100E7000237030E0492F092E000C550B241735073D
:100E800009F44AC0880F880F892B8083E82FEF7000
:100E9000F0E0E25DFE4F8601075B1D4F2081D80127
:100EA0009C91920F9C9323E0290F273018F48370B4
:100EB000833081F5191694F4F601EA5BFD4F8081C9
:100EC0008F5F808360E08E2D0E94B110882341F0F7
:100ED0006AE070E08AEA0E94541D02C080E001C00E
:100EE00081E0F801908197FF12C0F601EA5BFD4FA7
:100EF00080818150808361E08E2D0E94B110882313
:100F000029F06AE070E089EA0E94541D81E0D8016E
:100F10001C9201C080E0B82AE39476CFB1100E9401
:100F2000D32F86E0E9EEF3E08E010F5F1F4FD8016B
:100F300001900D928A95E1F7A090EA03B090EB033F
:100F4000D090EC03C090ED03E090EE031092EB0321
:100F50001092EC031092ED031092EE03B11003C057
:100F6000DD2009F44BC08091E7039091E8030E94D3
:100F7000C42F9C019091E203992309F4D2C2253138
:100F80003105E0F19F3F19F09F5F9093E203BB2092
:100F900061F00E94822C1B1414F491E001C09FEFB9
:100FA000899F802D11248093EB03DD2061F00E9446
:100FB000822C1D1414F09FEF01C091E0899F802DB9
:100FC00011248093EC038091EB038823B9F0909077
:100FD000EC03992099F00E94A22C882319F08093A9
:100FE000EB0302C0F092EB03892D0E94A22C882310
:100FF00019F08093EC0302C0F092EC03C11003C01F
:10100000EE2009F44BC08091E5039091E6030E9425
:10101000C42F9C019091E303992309F487C22135E1
:101020003105E0F19F3F19F09F5F9093E303CC20DF
:1010300061F00E94602C1C1414F491E001C09FEF39
:10104000899F802D11248093ED03EE2061F00E9492
:10105000602C1E1414F09FEF01C091E0899F802D39
:1010600011248093EE038091ED038823B9F09090D2
:10107000EE03992099F00E94A22C882319F0809306
:10108000ED0302C0F092ED03892D0E94A22C88236B
:1010900019F08093EE0302C0F092EE038091EA0310
:1010A000A8121AC08091EB03882311F08B1114C091
:1010B0008091EC03882311F0D8120EC08091EE03CA
:1010C000882311F0E81208C09091ED03992331F0C4
:1010D00081E0C91204C002C081E001C080E080FD4F
:1010E00015C08091EB0381110FC08091EC03811139
:1010F0000BC08091ED03811107C081E09091EE0358
:10110000911103C080E001C081E080FD0E94362C77
:10111000AA82BB82DC82CD82EE8286E0F801A9EE53
:10112000B3E001900D928A95E1F70E94853090918D
:101130005002891721F0809350020E94D32F809192
:101140004703843009F081CC83E08093E9008091EB
:10115000E80082FF7ACC8091E80085FF21C00E94E0
:10116000162D81111BC080E2A82EB12C680109C088
:101170008091F100F60181936F01F1E0AF1AB1089F
:1011800069F08091E80085FDF3CF8091E8008B77CE
:101190008093E8000E94162D882399F391E001C006
:1011A00090E08091E8008B778093E800992309F420
:1011B0004CCC2981822F90E0FC013197E331F1057D
:1011C00008F084C1EA5AFF4F0C94F4341A828CE080
:1011D000E7C08A81823009F49BC150F4813009F064
:1011E00075C10E94D32F9B838C837D836E8370C1D6
:1011F000833041F0843009F069C11B821C821D825A
:101200001E8266C16B81DE01149680E090E0262F7D
:1012100030E0A901480F591F4A30510508F058C164
:10122000E62FE80FF0E0EF5AFD4F40814D93019615
:101230008C31910571F74CC18A81823069F085301B
:1012400009F044C180915503AA24A3948A25809370
:10125000550310921A013CC16B817C818D819E8166
:101260000E94FA340E94B03133C14C816B818A8173
:101270000E9482319D8353C12D813E8132272327D5
:1012800032274C816B818A810E945B3121C10E948F
:10129000A2301EC18A81833009F018C1283009F4B8
:1012A00043C0293009F46DC08B818230D1F070F4D5
:1012B000813009F00DC14C812FE7429F412D11244F
:1012C0008091560320E0609157032AC0833021F1BA
:1012D000843009F0FDC08C8120E0409158036D817D
:1012E0001FC08C8190915503811109C0892F837093
:1012F00011F010921A019C7F90935503E9C0292F99
:10130000237011F410921A019C7F91609093550301
:1013100060E00E94C332DCC08C8180935903D8C046
:1013200090E00E946332D4C08B818230E1F078F487
:10133000813009F0CDC0809158032FEF829FC0010A
:1013400011246FE770E00E94CC346C83C1C08330FD
:10135000A1F0843009F0BCC0809156038C83809149
:1013600057038D83B5C080915503982F937019F062
:101370008695869504C080E002C0809159038C83D5
:10138000A7C048E050E068E170E085E593E00E9486
:101390003534109229049CC080E151C0FA8287EF55
:1013A0008B8396C0CA80DB80DC24CD24DC248C8037
:1013B000912C5801C601875F9D4F9501201B310B71
:1013C0002815390508F084C037EFC31631E0D3067D
:1013D00030F40E942734D50114968C9302C0F50195
:1013E0001482FFEFCF1ADF0A2FEFA21AB20AE2CF60
:1013F000CA80DB80DC24CD24DC248C80912C580135
:10140000C601875F9D4F9501201B310B28153905BB
:1014100008F05EC037EFC31631E0D30628F4D501DB
:1014200014966C910E944534BFEFCB1ADB0AEFEFA4
:10143000AE1ABE0AE5CF0E9492304AC084E08A8389
:1014400047C0CA80DB80DC24CD24DC248C80912C36
:101450005801C60189969501201B310B28153905C5
:10146000B8F5F0EECF16F1E0DF0630F40E94273435
:10147000D50114968C9302C0F5011482FFEFCF1AA8
:10148000DF0A2FEFA21AB20AE4CFCA80DB80DC2485
:10149000CD24DC248C80912C5801C60189969501BD
:1014A000201B310B2815390598F430EEC31631E0B6
:1014B000D30628F4D50114966C910E944534BFEFF1
:1014C000CB1ADB0AEFEFAE1ABE0AE7CF8FEF8983A4
:1014D00040E250E0B80182E00E942D2FB6CA19BD4B
:1014E00082E189BD09B400FEFDCF8091D8008F7DD7
:1014F0008093D8008091E00082608093E00080912A
:10150000E00081FDFCCF10923A030E94281BA6CA7E
:1015100088E290E00E9427341B821C821D828E8309
:10152000D7CF2B30310508F02FCD68CD2B303105CA
:1015300008F07ACDB3CD9C013A9521153F4130F5A5
:10154000BC0166277270AC01442754709C012227AD
:10155000387094FF0FC090FF02C080E101C080E0AE
:10156000672B09F08062452B09F08064232B79F00A
:1015700080680895892F8170672B09F08260452B60
:1015800009F08460232B19F08860089580E00895A5
:10159000A6E0B0E0EEECFAE00C94103549835A83F3
:1015A00049815A81992361F0222351F0CA010E9496
:1015B0008C18182F682F89819A810E94B21A04C052
:1015C000CA010E947E1A182F69817A81812F0E9498
:1015D0002E252696E3E00C942C3510923A030E94B7
:1015E000281B2FEF84E39CE0215080409040E1F7DE
:1015F00000C000009AE088E10FB6F894A8958093A7
:1016000060000FBE90936000FFCFEF92FF920F93A8
:101610001F93CF93DF93EC01C99719F000E010E01E
:1016200002C000E510E07E0180EEE81AF10898E0C3
:10163000E916F10410F0209731F4CE010E949B0AC4
:101640000E94691B05C0CE010E949B0A0E94581B84
:101650008C2F0E94AF1C0115110549F08FE99FE006
:101660000197F1F700C0000001501109F4CF8C2F51
:101670000E944B1C98E0E916F10410F0209731F419
:10168000CE010E949B0A0E94621B05C0CE010E94EF
:101690009B0A0E944D1BCDB7DEB7E6E00C942935BE
:1016A000ABE1B0E0E6E5FBE00C940F354E8B5F8BD1
:1016B000688F798F8A8F9B8F192F91111092D90380
:1016C000DE011F9687E0FD0111928A95E9F786E019
:1016D000FE01769601900D928A95E1F70A8D00231E
:1016E00041F021E04F85588969897A89C8010E94B3
:1016F000C80A0B8B1C8B87E0FE013F96DE01189613
:1017000001900D928A95E1F7CE0108960E94EB18A0
:1017100081112CC087E0FE013896DE011196019000
:101720000D928A95E1F76C85662301F1209195036E
:1017300030E0C9010196877099274091CE0350E0AF
:101740008417950761F16D8397E0929FD001939F75
:10175000B00D1124AA56BC4FFE01319601900D9296
:101760009A95E1F7809395030E948B2717E080916B
:10177000CE0390919503891709F1189FC001112498
:101780008A569C4F0E94EB188823C1F08091CE03AB
:1017900090E00196877099278093CE03E8CF10924E
:1017A0003A030E94281B109295031092CE03EEE894
:1017B000F3E087E0DF011D928A95E9F76B96E4E09C
:1017C0000C942B35A8E0B0E0E8EEFBE00C9401357A
:1017D000FC018481882309F4C0C48F0121E0408189
:1017E00051816281738195810E94C80A9C01F80130
:1017F0008581882309F480C1C901975780389105F4
:1018000008F041C1F22EFFE0F21708F452C18FEF49
:1018100093E00E94273481114CC169E0A62E62E05A
:10182000B62EFF2079F0A11424E0B20609F441C1DC
:10183000C5010E942734811101C0FA943FEFA31A19
:10184000B30AEFCFCE0101962C0188E0F20111928C
:101850008A95E9F75AE0352E7501FFEFEF1AFF0A76
:10186000C5010E94273489831A82882309F421C183
:10187000813009F044C0650122E0C20ED11CC701CD
:101880000E9427348A83882309F413C19FEF980F9D
:10189000933060F433E0A30EB11CC6010E942734DC
:1018A0008B83882309F405C11C822CC0843049F540
:1018B0004E0183E0880E911C42E0E42EF12C56018B
:1018C0009FEFA91AB90AC6010E942734F401819337
:1018D0004F01882309F4EDC08C3741F4E2E0F0E0D9
:1018E000EC0FFD1FEE0DFF1D10820CC0FFEFEF1A75
:1018F000FF0A650127E0E216F10409F7DAC0570193
:1019000001C056017201F7012081222309F4A4CFFE
:10191000213009F056C08181813081F46701F2E005
:10192000CF0ED11CF7018281893319F460E570E094
:1019300002C060E070E00E94541D0AC0823051F481
:101940006701F2E0CF0ED11CF70182810E94AF1C2B
:10195000760195C0833049F46701F2E0CF0ED11CC7
:10196000F70182810E944B1CF3CF843021F0FFEFFE
:10197000EF1AFF0A84C0F7012281C70102967C0199
:1019800080E090E030E0205331092A30310570F4D6
:10199000389EA001399E500D1124C901840F951F56
:1019A000EFEFEE1AFE0AF7012081ECCF009709F461
:1019B00066C0EFE9FFE03197F1F700C00000019742
:1019C000F5CFE22FF0E0E85AFE4F2490822F869563
:1019D0008695869590E0FC01E85BFE4F6490277049
:1019E000712C022E02C0759467940A94E2F7F1E01C
:1019F0006F227724FC01E85CFE4F8490912C022E2C
:101A000002C0959487940A94E2F731E083229924E6
:101A1000FC01E85DFE4FC490D12C02C0D594C79460
:101A20002A95E2F781E0C822DD246114710419F0DF
:101A300081EE0E94AF1C8114910409F452C086EE1D
:101A40000E94AF1C99E3291609F445C060E070E0DC
:101A5000822D0E94541D8114910419F086EE0E947B
:101A60004B1C6114710419F081EE0E944B1CC114CF
:101A7000D10429F060E070E08CE20E94541DEFEF89
:101A8000EE1AFE0A40CF26318CE7380709F024C34E
:101A900080913A038A7A91E009F490E090935B0296
:101AA000811128C069E286E893E00E9421300E94FB
:101AB00001278091CF03877009F44FC3F801858116
:101AC000882309F44AC380913A0282FF46C382E028
:101AD0000E943D2742C360E570E089E30E94541DE7
:101AE000BDCFF9E32F12B2CF60E570E089E30E9429
:101AF000541DB7CF65E3D7CF26319CE7390709F4EA
:101B0000DFC280913A038272F901E052F847E53171
:101B1000F10508F054C0E759FF4F0C94F43490914C
:101B2000550381E089278093550310921A01809113
:101B30002904816080932904BCCF4CED52E367EE09
:101B400072E304C047EE52E36CED72E30E94FD3194
:101B5000B0CF4DEA52E368EB72E3F8CF48EB52E3C3
:101B60006DEA72E3F3CF41E952E36FE972E3EECF3E
:101B70004FE952E361E972E3E9CF45E752E363E8F5
:101B800072E3E4CF43E852E365E772E3DFCF43E17A
:101B900051E361E271E3DACF41E251E363E171E3E2
:101BA000D5CF61E081E008C061E085E005C061E07B
:101BB0008DE002C061E082E10E94C3327ACF273714
:101BC000FCE73F0711F481E004C028373C47C9F423
:101BD00082E00E940C1B43E062E081E00E94EA1A6E
:101BE00068CF2330FCE73F0709F4A3C208F083C2A3
:101BF00021159CE7390709F48CC221303C4709F4D0
:101C00009EC2F8018581E080F180882349F0C701F8
:101C10000E948C18D82E682FC7010E94B21A04C0E7
:101C2000C7010E947E1AD82EB7018D2D0E942E2545
:101C30000E943C25D82EF92EA82EF801E580C680FA
:101C4000C2943FE0C3228091CF038770E9F0EE2079
:101C5000D9F0892F807F803451F080E28D0D88305B
:101C600098F0C11004C0892F807E803269F0809185
:101C70003A0282FF09C082E00E943D278091CF0393
:101C80008770BB24B3948111B12C9F2C92942FE0C8
:101C90009222892D90E08C30910508F0E9C1FC0179
:101CA000E258FF4F0C94F4348F2D807F9F2D9F704E
:101CB000F92E882319F0F29490EFF922EE20B9F072
:101CC000FF2009F4C3C180E28D0D883010F0A1100F
:101CD00006C090913A03F92AF0923A0305C0909118
:101CE000D903F92AF092D9030E940127AFC18D2DA3
:101CF0000E944B1CFF2009F4BBC180E28D0D88308F
:101D0000A0F1AA2091F1F0949091D903F922F092D8
:101D1000D9032EC08F2D807F9F2D9F70F92E80328A
:101D200019F0F29480EFF8228D2DAA2029F0F1E02D
:101D3000AF1609F44CC057C080913A0282FD1BC017
:101D4000EE2069F0FF2039F090913A03F92AF092E1
:101D50003A030E94012780E00E94AF1C89C180E005
:101D60000E944B1CFF2009F483C18F2D0E94FA268C
:101D70000E9401277DC1EE2081F0CC20C1F121E03D
:101D8000C21276C19091D8038F2D8923F81609F4D9
:101D90006FC1F92AF092D8036BC1C11069C18F2DB0
:101DA0000E94621B8091D8039F2D982329F09F2DBC
:101DB000909589238093D80380915C029F2D98236E
:101DC00009F456C1F0948F2180935C0251C1EE203A
:101DD00029F035E03C1508F44BC109C084E08C15AE
:101DE00008F446C115C0EE2031F0C1102FC18F2D6F
:101DF0000E94691B3DC1CC2059F0893309F035C1DF
:101E00009FEFE7EEF3E09150E040F040E1F72BC1A7
:101E10008F2D0E94621B2CC18F2D86958695837015
:101E200019F0813061F024C1EE2021F08D2D9F2D1D
:101E3000937002C080E090E00E9460301FC1EE20ED
:101E400021F08D2D9F2D937002C080E090E00E94C4
:101E50003B3014C16E2D8D2D0E94731B0FC18F2D31
:101E60008370B1F5E11008C14D2D4295469547703C
:101E7000440F440F8D2D8F7090E09C01042E01C003
:101E8000220F0A94EAF7D4FE08C08FE090E001C068
:101E9000880F4A95EAF7809501C080E04F2D46955E
:101EA00046954370423069F088F49091DA034130EE
:101EB00019F0822B892302C0922B892B0E94251BAB
:101EC000DBC0822B9091DA038927F8CF822BF6CFE3
:101ED000EE2019F08F2D817001C08695882309F4BA
:101EE000CBC04D2D429546954770440F440F8D2D24
:101EF0008F7090E09C01042E01C0220F0A94EAF733
:101F0000D4FE08C08FE090E001C0880F4A95EAF740
:101F1000809501C080E04F2D469546954370423034
:101F200059F078F490913802413019F0822B8923CE
:101F300009C0922B892B06C0822B909138028927E9
:101F400001C0822B0E94E71A97C02F2D2F70F22E0E
:101F5000EE2039F0822F0E94191B8D2D0E94691BE3
:101F60008BC08D2D0E94621B8F2D0E940C1B84C084
:101F70008D2D32EFA31681F13A1538F090EFA916A6
:101F800059F0E1EFAE1619F15DC0F3EFAF1659F15C
:101F900024EFA216C1F056C0EE2081F034E03C15CB
:101FA00008F466C02F2D2F7181E090E001C0880FEA
:101FB0002A95EAF790913802892720C085E08C1590
:101FC00008F456C0EFCF80913A0282FD1AC0EE208D
:101FD00029F08F2D8F7129C0EE20D9F38F2D8F71AD
:101FE0000E940C1B45C0EE2041F09F2D9F7181E0A7
:101FF00001C0880F9A95EAF701C080E00E94E71AB5
:1020000037C0EE20A9F09F2D9F71F92E892F0E94D5
:10201000191B80913A0282FF07C0E8E0FE9EC001D2
:10202000112483608093CF038F2D0E94191B20C041
:1020300081E00E943D27F1E0FC15D0F482E00E948F
:102040003D2716C0EE2021F0CC2019F28D2D84CE34
:10205000CC2021F2893349F42FEF37EE83E0215071
:1020600030408040E1F700C000008D2D0E944B1CE5
:1020700088EF890D843010F40E948530BB20A9F0D0
:102080008091CF0380FD11C0F80115828695869559
:1020900086950E94191BC8010E94E20B8091CF0314
:1020A0008695869586950E940C1B20E0F80140815C
:1020B000518162817381848195810E94C80A4DC0DB
:1020C00080915B02811106C069E286E893E00E947C
:1020D0001430EDCC65E3F9CF2737ECE73E0711F478
:1020E00081E006C02837FCE73F0709F07ACD82E09F
:1020F0000E94191B70CD2B35FCE73F0751F12C35A1
:102100008CE73807F1F02A353C4709F07ACD81E0B9
:1021100021C010923A030E94281BEFEFF4E32CE059
:10212000E150F0402040E1F700C000000E948D2FF8
:10213000C0CC6FEF7FEF80E090E00E9463340E949C
:10214000ED0A80913A0282FB882780F991E0892785
:1021500001C080E00E94542754CD2896E2E10C94FF
:102160001D35CF93811106C0662311F0C1E011C067
:10217000C0E00FC0813031F4662311F0C3E009C024
:10218000C2E007C0823079F4662311F0C5E001C0D7
:10219000C4E08C2F94E00E948C186C2F74E00E9495
:1021A0002E250E94050B80E0CF910895A3E0B0E0BA
:1021B000ECEDF0E10C940135782E80911901871136
:1021C0000DC020915503237030E04091180150E07C
:1021D00081E02417350719F480E001C081E08170A7
:1021E0008093150180915A0390911401981739F04A
:1021F0008093140140E060E080E00E94BA2A86E10A
:1022000078126DC08DEB98E20E94C41E0EC0271597
:1022100008F400C235E0731609F400C146E07412F8
:10222000D8C185EC99E20E947A1E898343C0971534
:1022300008F4FEC1A4E07A1609F465C0A71508F4F5
:10224000CEC1B1E07B1609F4B7C07B1608F4A9C073
:1022500080911301E2E07E125EC1B82FBB0FB80F70
:10226000BB0FB983BA5FBA83BF3110F0EEE1EA83E6
:102270000091570310915803F09056036F2D702F63
:10228000812F0E94AC2BE62ED72EC82E60915903C9
:102290006F0D702F812F0E94AC2B162F072FF82E59
:1022A00039814A81341708F41CC151E059834E31F9
:1022B00008F080C0809113018F5F809313015981D2
:1022C000511126C782E080931A0180911501811176
:1022D0001FC771101DC783E080931A0119C78715A6
:1022E00008F4E6C19AE07912A2CF84E69AE208C027
:1022F000A71508F4B1C1BBE07B12A8C188E49AE23B
:102300000E94191F92CF40911301842F880F480F0C
:10231000440F49834A5F4A834F3110F05EE15A838C
:10232000E0905703D09058032091590380E4F82E91
:102330003F2D329F312D1124F32E8A8199819817D8
:1023400050F54981042F10E0F801E553FE4F9081CC
:10235000809114018923D9F0F801EE0FFF1FE15796
:10236000FE4F6081F69EB0011124B5E0759567952A
:10237000BA95E1F780915603680F7E2D8D2D0E944E
:10238000AC2B462F282F672FC8010E94BD2A5981E8
:102390005F5F5983D2CFA1E0A9838E3108F48ACF41
:1023A00009C080911501882329F040E060E080E0B9
:1023B0000E94BA2A19827ECF20911301822F880FA2
:1023C000280F220F29832A5F2A832F3110F03EE144
:1023D0003A836091560370915703809158030E948D
:1023E000AC2B162F072FF82E89819A81891708F0B8
:1023F0004AC04981E42FF0E0DF01A553BE4F8C9124
:1024000090911401982331F02F2D412F602FCF018F
:102410000E94BD2A59815F5F5983E6CFB0911301B5
:102420008B2F880FB80FBB0FB983BA5FBA83BF3148
:1024300010F0EEE1EA830091560310915703F090FB
:10244000580360915903669566956695809151038E
:10245000909152030E948F2B0E94DB2A805887FDA7
:102460008195880F282F3F2D239F212D1124822F06
:10247000B8010E94AC2B162F072FF82E89819A8164
:10248000891708F4B2C0A1E0A98327C0A71508F4F2
:102490009DC5BCE17B1287C080911301982F990FD5
:1024A000890F880F8A5F8A834091510350915203AC
:1024B000609153037091540380915D0290915E028C
:1024C000A0915F02B091600284179507A607B70735
:1024D00008F4F6C081E089839A819E3108F4EACE3F
:1024E00069CFF9818F2F90E0FC01E553FE4F3081D9
:1024F00020911401232359F030FF04C02F2D412FC8
:10250000602F03C02C2D4E2D6D2D0E94BD2A2981D8
:102510002F5F2983C5CEF3E07F125BC0982F990F00
:10252000980F990F99839A5F9A839F3110F0AEE1CB
:10253000AA8300915703D09058032091590310E4C7
:10254000129F112D1124F9812A81F21730F5B981DA
:10255000EB2EF12CF701E553FE4F90818091140191
:102560008923B9F0F701EE0FFF1FED5AFE4F85AD3D
:1025700082958F7060915603819F600D1124702F9A
:102580008D2D0E94AC2B462F282F672FC7010E944C
:10259000BD2AE981EF5FE983D6CF31E039832E315F
:1025A00008F488CE07CFB71508F4CDC1E9E17E164F
:1025B00009F4DCC0E71508F4BAC1809113019091C9
:1025C0001501F7E17F1609F422C128E1721609F41A
:1025D00065C1809113018F5F8093130173CE27E053
:1025E000721215CE89E999E21ECE4981E42FF0E0FE
:1025F000DF01A553BE4F8C9190911401982331F0C7
:102600002F2D412F602FCF010E94BD2A59815F5F7E
:10261000598334CF58E0751203C08DE99AE205C0A2
:1026200089E07812D6CF8FE79AE20E94951FFDCD00
:1026300090E1791203C08BE599E262CE9715C0F064
:10264000ADE07A1255CE8EE899E2EDCDECE07E1247
:10265000C0CF87E999E2E7CDFEE07F1203C085E8AD
:1026600099E2E1CD2FE07212B4CF8AE699E2DBCD98
:1026700033E1731203C083E29AE242CE371560F071
:1026800041E1741203C086E69BE2CFCF52E175129E
:10269000A0CF87E39AE2C9CF84E1781203C08DE22C
:1026A00099E2B2CD95E1791294CF8BEF98E2ACCD5F
:1026B000A2E27A12EBCE8FE998E20E940B1EB5CD12
:1026C0000E94202B4EE1849FC0011124092F112765
:1026D00007FD1A95F801E553FE4F90818091140192
:1026E000892309F4F7CE0E94202B81FD0EC00E94A1
:1026F000202B89830E94202B50E8859FC001112444
:102700007FE7790F8091580303C080E070E0198261
:1027100069810E94AC2B462F282F672FC8010E9489
:10272000BD2A2091590330E1230F08F42FEF60E117
:10273000822F90E00E948F2BBC0184EF91E00E94D9
:10274000CC348091510390915203A0915303B091E6
:102750005403860F971FA11DB11D80935D029093B6
:102760005E02A0935F02B0936002B4CE8091130129
:102770008983880F9981980F990F99839A5F9A831B
:102780009F3110F0AEE1AA830091570310915803D6
:10279000F090560360915903669566956695809111
:1027A0005103909152030E948F2B0E94DB2A805884
:1027B00087FD8195880F682F2CE0629F612D112481
:1027C0006F0D702F812F0E94AC2B162F072FF82E24
:1027D000FA8129812F17A8F4B981EB2FF0E0DF01EE
:1027E000A553BE4F8C9190911401982331F02F2D59
:1027F000412F602FCF010E94BD2AE981EF5FE9835D
:10280000E7CF31E03983FE3108F454CDD3CDB82F72
:10281000BB0F8B0F880F16E0180F1F3108F01EE159
:10282000911121C06091590320E1620F08F46FEF0C
:1028300080915103909152030E948F2B6AE070E0C7
:102840000E94CC34892B39F50E94202BEEE18E9F1B
:102850009001112460911401832F932F990F990BEC
:102860000E94283218C0282F30E03B832A83E12EB3
:10287000F12C8A819B818E159F056CF46091140167
:102880008A819B810E9428324A815B814F5F5F4F22
:102890005B834A83EECF91E099832DC0A82FAA0FC6
:1028A0008A0F880F16E0180F1F3108F01EE19111F2
:1028B00026C06091590320E1620F08F46FEF809108
:1028C0005103909152030E948F2B65E070E00E94AB
:1028D000CC34892B71F40E94202BBEE18B9F900198
:1028E000112460911401832F932F990F990B0E944B
:1028F000043251E059831E3108F4DCCC5BCDE82F63
:10290000F0E0FB83EA83E12EF12C4A815B814E15D6
:102910005F057CF7609114018A819B810E940432DB
:102920002A813B812F5F3F4F3B832A83EECF3AE1E1
:10293000731203C08CEF9AE276CC4BE1741249CE4D
:102940008CEA98E270CC5FE17512ACC06090130124
:10295000862D880F680E660C16E0412E460C5EE14F
:10296000541510F4BEE14B2E80911501882361F0BF
:1029700040E060E080E00E94BA2A8CE3E6EEF2E0FC
:10298000DF011D928A95E9F780911301811115C02D
:102990008091E2029091E3020E94C42F21E08931EC
:1029A000910508F420E02093E102499730F00E945D
:1029B000DF2F9093E3028093E20273E5C72E71E06C
:1029C000D72EE6EEEE2EE2E0FE2EFCE18F2EF3E0B7
:1029D0009F2E312CAAEA2A2E00E010E0F601E00F2B
:1029E000F11FB081B983B61508F442C0B41508F0E0
:1029F0003FC03394EB2FF0E0FB83EA83E553FE4FB7
:102A0000908180911401892309F432C05701A00EEE
:102A1000B11ED5015C90352D25E5321B08F430E060
:102A200070915703222D452D240F08F42FEF40916C
:102A3000580352E0259F200D11242E5F249F212D45
:102A40001124622D631B822F0E94AC2B462F282F4E
:102A5000672F8A819B810E94BD2A8091E102882391
:102A600039F0252D31E0231B08F420E0D5012C930B
:102A70000F5F1F4F0630110509F0B0CF8E149F0471
:102A800051F0B6E0CB0ED11CE6E0EE0EF11CF5E005
:102A9000F31508F0A1CF21E029833DE1341508F0BA
:102AA00009CC88CC571508F4BFC18DE17812EBC072
:102AB0004091BB025091BC026091BD027091BE0278
:102AC0008091510390915203A0915303B09154030C
:102AD00084179507A607B70708F46CCC80911501F9
:102AE00081110EC0A09113018A2F880FA80FAA0F81
:102AF000A9830A2F0A5F0F3108F458C00EE156C0AF
:102B000040E060E080E00E94BA2A01E612E01B8209
:102B10001A820E94202B81FF05C0F80110821182C9
:102B2000128220C00E94202BD82E0E94202BF0E879
:102B30008F9FC00111247FE7790FEA80FB80EE0CA4
:102B4000FF1C8A819B818E0D9F1D9C012F593D4F3B
:102B500079016D2D809158030E94AC2BD7016D93A4
:102B60007D938C93EA81FB813196FB83EA830D5F31
:102B70001F4F7E9771F6B6CFF9818F2F90E0FC0141
:102B8000E553FE4F308120911401232361F0FC01B5
:102B9000EE0FFF1FE80FF91FEF59FD4F2281408113
:102BA00061810E94BD2A29812F5F298339813017D5
:102BB00018F341E049830E3108F019820E3108F410
:102BC00079CB20E010E001501109822F90E08017AE
:102BD0009107C4F4DC01AA0FBB1FA80FB91FAF599E
:102BE000BD4F0196FC01EE0FFF1F8E0F9F1FFC01D2
:102BF000EF59FD4FC080D180E280CD92DD92EC9202
:102C00002F5FE3CF0E94202B7801EE0CFF1C81FF89
:102C100009C00E0D1F1DF801EF59FD4F10821182E2
:102C2000128218C00E94202B8A830E94202B50E819
:102C3000859FC00111247FE7790F0E0D1F1D0F59CD
:102C40001D4F6A81809158030E94AC2BD8016D936F
:102C50007D938C930E94992B009151031091520304
:102C60002091530330915403DC01CB01800F911F5D
:102C7000A21FB31F8093BB029093BC02A093BD021E
:102C8000B093BE0217CB9EE17912A3CC80911501BF
:102C9000882329F040E060E080E00E94BA2A809119
:102CA0001301982F990F890F880F96E0692E680EEF
:102CB000409151035091520360915303709154031A
:102CC0008091DD029091DE02A091DF02B091E002DE
:102CD00084179507A607B70708F09FC060915603B1
:102CE00070915703809158030E94AC2B562E472EAB
:102CF000382E0FEB12E0E3E5F1E0FB83EA838FE887
:102D0000882E81E0982EAA80BB8065017801212C55
:102D1000D7018C91F601882371F08081232D452DF8
:102D2000642D90E00E94BD2AD50115968C91232D2B
:102D3000452D642D0DC0808120E040E060E090E0F2
:102D40000E94BD2AD50115968C9120E040E060E0FC
:102D500090E00E94BD2AF7018181D7018D937D010A
:102D60002394BFEFCB1ADB0AE1E0AE1AB108F2E020
:102D70002F12CECFD80112968C91EA81FB81882345
:102D800079F08281232D452D642D90E00E94BD2A8B
:102D9000AA81BB8113968C91232D452D642D0EC0E5
:102DA000828120E040E060E090E00E94BD2AAA819C
:102DB000BB8113968C9120E040E060E090E00E949F
:102DC000BD2A0E94202B837091E009F090E0F80169
:102DD00092830D5F1F4F2A813B812A5F3F4F3B83C8
:102DE0002A838216930609F08ECF0E94992B0091B8
:102DF0005103109152032091530330915403DC018D
:102E0000CB01800F911FA21FB31F8093DD0290930F
:102E1000DE02A093DF02B093E00231E039834DE19E
:102E2000461508F047CAC6CAA0E27A12C9C0609027
:102E3000580383E0689EA001112456954795569546
:102E400047955B834A839A819983862C912C8FEFD7
:102E500090E0B4010E94E034362E80911501882361
:102E600071F040E060E080E00E94BA2A8CE3E6EE78
:102E7000F2E0DF011D928A95E9F71092E502809158
:102E8000E4028F5F8093E40233E5A32E31E0B32E9A
:102E90004CEE442E42E0542E56EEE52E52E0F52E36
:102EA000EA81FB818E1A9F0A87016501212C21107E
:102EB0000CC08091E502811108C00E94073485355D
:102EC00095401CF4D7016C920CC0F80180818823D6
:102ED00041F0861530F49091E402391202C081501D
:102EE0008083D601EC91EF3F29F1D8012C91F0E0DD
:102EF000B981B21790F430E04A815B81241B350B15
:102F0000249FC001259F900D349F900D1124B40182
:102F10000E94CC34262F462D0AC0629EC001112487
:102F20006A817B810E94CC34462F20E060E0CF0193
:102F30000E94BD2A239456E0C50ED11C0A5F1F4F84
:102F40008AE02812B4CF9FEFE91AF90AAFEFAA1A64
:102F5000BA0A4E145F0409F0A7CF8091E402381238
:102F600002C01092E4028091E5028F5F8D3118F467
:102F70008093E5021FCA1092E50226E133E089E062
:102F80004FEF460DA6EEB2E0F90196E0893041F42C
:102F9000D6965C91D697651203C0D6964C93D69779
:102FA0005081561510F040836682915031961196EB
:102FB0009111ECCF8150265031098111E3CFFAC92C
:102FC000B1E27B1206CB85EA98E277CBE8E27E128B
:102FD0000CC06CE178E205C034E27312FACA66E80C
:102FE00078E280E00E946C1D20C9E71508F432C029
:102FF000F5E27F120BC080915D0321E0482F421B58
:1030000008F440E0842F6EE478E2ECCFF71570F01E
:1030100023E27212E1CF80915D0321E0382F321B51
:1030200008F430E0832F66E878E2DCCF46E27412E1
:1030300003C06EE478E2D5CF57E27512CACA809118
:103040005D0321E0582F521B08F450E0852F6CE1FE
:1030500078E2C8CF8BE278120BC080915D0321E04B
:10306000482F421B08F440E0842F6EEE77E2BACF7F
:103070008715A0F099E279120BC080915D0321E0E1
:10308000382F321B08F430E0832F64E078E2AACFB7
:10309000AAE27A129ECA64E078E2A3CFBCE27B1275
:1030A00003C06EEE77E29DCFEFEF7E1292CA809161
:1030B000510390915203A0915303B0915403882778
:1030C0009C70AA27BB272AE0B695A7959795879568
:1030D0002A95D1F782309105A105B10571F08330B1
:1030E0009105A105B10569F040E00197A105B10581
:1030F00011F060E008C064E102C044E160E080E0FB
:1031000003C044E164E184E10E94BA2A82E0E4C899
:103110002396E2E10C941D35CF92DF92FF920F933C
:103120001F93CF93DF936C01009138028091DA03F3
:10313000082BC3E0D0E010E0C8010C2E02C095952A
:1031400087950A94E2F780FD04C02197A8F7F12C37
:1031500009C0FC2EB6018C2F0E942E250E943C2512
:10316000019799F38F2DDF91CF911F910F91FF90D0
:10317000DF90CF900895CF93DF93EC010E948C18DD
:10318000BE010E942E250E943C25DF91CF9108951B
:10319000FC0124812223D9F0808191810E94BB18F7
:1031A00092959F70963079F010F4925001C09A5029
:1031B000923068F4803F69F018F4883E40F409C00A
:1031C000843F29F406C0883E20F0813F11F080E062
:1031D000089581E00895A4E1B0E0E1EFF8E10C94F6
:1031E00007358C0186E0F801DE011F9601900D92F3
:1031F0008A95E1F7D80114968C9114971596EC9066
:103200009EE8892E93E0992E90919203911120C00F
:10321000882309F46CC1EE2009F442C0C8010E9461
:10322000C818F82E8823E1F187E0F801D401019055
:103230000D928A95E1F780919203813031F480916B
:103240008E0390918F030E94BB180E94952751C155
:10325000F801D080C180A280B380F09093032091C8
:10326000900330919103FF2009F4F0C0A501421BA7
:10327000530B403A510508F0A6C0882309F439C120
:1032800080919403282F207F90918F03222361F057
:103290009C1509F469C0C8010E94C81881116CC04E
:1032A000C8010E94E20B23C19C1114C090918E03AF
:1032B0009D1110C0E1100EC08F7080618093940347
:1032C0008EE893E00E94E20B80919403D801169659
:1032D0008C930BC1E1103AC040E06C2D8D2D0E9403
:1032E0006B2740E06C2D8D2D0E946B27E82E8111FD
:1032F000FCC0DF86C88A8F8598890E94BB18292F59
:1033000022952F70243020F49F70223028F009C0BD
:103310002A50223080F014C0992349F0811107C04F
:1033200013C0992321F0F8019681907F69F0805EA7
:10333000883030F409C0803F38F0815F833020F05E
:10334000C8010E94E20BEF2CFE2CD3C080919403A5
:103350008160809394038EE893E00E94E20BEEE894
:10336000F3E087E0DF013AC090918E039D1193CF87
:10337000E11091CFF80198C0EE2009F491CF20918F
:103380009403822F82958F7090E002978CF0809149
:103390008E0390918F0399878887BB86AA86809138
:1033A00092038C871D862E87CE0108960E94E20B21
:1033B00087E0F801AEE8B3E001900D928A95E1F75D
:1033C0000E94952794C090919403292F207F51F457
:1033D0008EE893E00E94E20B87E0D4011D928A956B
:1033E000E9F783C0882309F484C080918F038C118E
:1033F0000CC080918E038D1108C0E11006C0F80149
:103400009683C8010E94E20B6AC0C8010E94C818D6
:10341000882309F445CFEE2009F442CF209194038C
:10342000822F82958F7090E0029714F280918E0324
:1034300090918F039A838983BC82AB82809192039F
:103440008D831E822F83CE010196B0CFA21AB30ABC
:10345000B0EAAB16B10408F042C0882309F447C0B3
:10346000FE2CEE2009F41CCF80918F038C1129C013
:1034700080918E038D1125C09091940390FD18C00A
:10348000892F82958F70282F30E02115310581F02A
:10349000F80196832F30310541F08F5F982F929578
:1034A000907F86818F70892B8683C8010E94E20BF2
:1034B00087E0F801AEE8B3E001900D928A95E1F75C
:1034C00018C0C8010E94C818811172CF809194035E
:1034D000816080939403C8010E94E20B0AC087E0D8
:1034E000D4011D928A95E9F704C0F12C02C0FF2493
:1034F000F3948F2D6496ECE00C942335292F9A30A9
:1035000078F5863068F590E036E0239F800D911DB8
:103510001124682F677023E0969587952A95E1F727
:10352000FC01EE0FFF1FE80FF91FEE5DFC4F40E0BE
:1035300050E080E0219130E0062E02C036952795BC
:103540000A94E2F721703327042E01C0220F0A9457
:10355000EAF7822B4F5F5F4F4330510559F70895CB
:1035600080E00895292F9A3088F5863078F590E02C
:1035700036E0239F800D911D1124282F277051E0E4
:1035800001C0550F2A95EAF723E0969587952A956D
:10359000E1F7FC01EE0FFF1FE80FF91FEE5DFC4F96
:1035A00020E030E070E04081CB01022E02C0969511
:1035B00087950A94E2F78170819584278523842773
:1035C00081932F5F3F4F2330310569F70895809332
:1035D000380208959091380221E030E0F90101C0ED
:1035E000EE0F8A95EAF7D90102C0AA0FBB1F6A95B0
:1035F000E2F7BD016E2B01C0220F4A95EAF7892F31
:103600008623681303C0892F822B03C02095822F45
:1036100089230E94E71A089521E030E001C0220FBB
:103620008A95EAF720958091380282230E94E71A52
:10363000089521E030E001C0220F8A95EAF78091D9
:103640003802822B0E94E71A08958093DA030895C6
:10365000CF93C6E0E8E8F3E0DF018C2F1D928A9556
:10366000E9F780E090E00E94603080E090E00E9406
:103670003B301092D9030E940127E9EEF3E0DF010D
:103680001D92CA95E9F71092E2031092E30310929B
:10369000E4030E94362CCF910895882341F0809551
:1036A0009091D90389238093D9030E94012708951B
:1036B000882339F09091D903892B8093D9030E94F4
:1036C00001270895882321F00E94FA260E940127ED
:1036D0000895882339F090913A03892B80933A0317
:1036E0000E9401270895662309F45CC08D3C21F4F3
:1036F0000E94822C819504C08E3C29F40E94822C69
:103700008093EC03C5C08F3C21F40E94822C8195EC
:1037100004C0803D29F40E94822C8093EB03B8C042
:10372000893D19F40E94602C05C08A3D31F40E9445
:10373000602C81958093ED03ABC08B3D21F40E94FA
:10374000602C819504C08C3D29F40E94602C8093EC
:10375000EE039EC09FE2980F983078F421E030E0AD
:10376000A90102C0440F551F9A95E2F7CA01909132
:10377000EA03892B8093EA038BC08D3D21F480916D
:10378000E40381600CC08E3D21F48091E4038260EB
:1037900006C08F3D09F07CC08091E4038460809373
:1037A000E40376C08D3C39F49091EC0397FF35C06B
:1037B0001092EC0359C08E3C29F49091EC03191639
:1037C000BCF32BC09091EB038F3C29F497FF25C0ED
:1037D0001092EB0349C0803D19F41916CCF31DC0BB
:1037E0009091ED03893D29F41916BCF41092ED0374
:1037F0003BC08A3D19F497FF10C0F8CF8B3D39F4D8
:103800009091EE0397FF09C01092EE032DC08C3DFE
:1038100021F49091EE031916BCF39FE2980F9830B3
:1038200080F421E030E0A90102C0440F551F9A95B1
:10383000E2F7CA0180959091EA0389238093EA0315
:1038400013C08D3D21F48091E4038E7F0BC08E3D2B
:1038500021F48091E4038D7F05C08F3D29F4809190
:10386000E4038B7F8093E4038091EB03811106C016
:103870008091EC03811102C01092E2038091ED036C
:10388000811106C08091EE03811102C01092E30302
:103890000E94362C0895882309F460C0823869F4A8
:1038A0000E94853081FF5AC069E386E893E00E9458
:1038B00021300E94012769E30EC0833899F40E94E9
:1038C000853080FF4BC063E586E893E00E9421309D
:1038D0000E94012763E586E893E00E9414300E946D
:1038E00001270895843869F40E94853082FF36C02C
:1038F00067E486E893E00E9421300E94012767E494
:10390000EACF9CEF980F913A10F4682FE4CF90E241
:10391000980F983050F4877091E001C0990F8A9504
:10392000EAF7892F0E94FA26DACF9BE5980F9330A9
:1039300028F480E090E00E946030089598E5980FA8
:103940009B3128F480E090E00E943B30089593E39F
:10395000980F933118F460E00E94731B0895CF9381
:10396000882309F49FC0C82F8238B1F40E948530A3
:1039700081FD98C069E386E893E00E9421300E94AF
:1039800001272FEF87EE93E0215080409040E1F730
:1039900000C0000069E317C08338E1F40E9485305D
:1039A00080FD80C063E586E893E00E9421300E949C
:1039B00001272FEF81EE94E0215080409040E1F705
:1039C00000C0000063E586E893E00E9414300E9486
:1039D000012768C08438B1F40E94853082FD62C03E
:1039E00067E486E893E00E9421300E9401272FEFD0
:1039F00081EE94E0215080409040E1F700C000004B
:103A000067E4E1CF8CEF8C0F813A80F4E8E8F3E0D3
:103A10008EE893E02191C217E9F18E179F07D1F745
:103A20006C2F86E893E00E942130D1CF80E28C0F8A
:103A3000883068F4C77081E090E001C0880FCA95B3
:103A4000EAF790913A03892B80933A03C0CFEBE5D4
:103A5000EC0FE33040F4F0E0E751FE4F808190E05E
:103A60000E9460301FC0E8E5EC0FEB3150F4F0E04D
:103A7000EE0FFF1FE451FE4F808191810E943B3089
:103A800011C083E38C0F833168F461E08C2F0E94B6
:103A9000731B08C06C2F86E893E00E9414300E94CC
:103AA0000127BECFCF9108951F93CF93DF93182F97
:103AB000EB010E94AF1C209741F08FE99FE0019736
:103AC000F1F700C000002197F6CF812F0E944B1C18
:103AD000DF91CF911F910895A7E0B0E0E2E7FDE10B
:103AE0000C940135282E4B0120911301822F880F51
:103AF000280F220F2E83122F1A5F1F3108F01EE1AC
:103B000030915D0339839E81911708F07CC08E81CE
:103B1000682E712CF301E553FE4F908180911401C2
:103B2000892309F46CC03090560340905703522CFF
:103B30001F82C301880F991FDC01A157BE4FBB83B1
:103B4000AA83C301880F991FFC01E057FE4FFD8334
:103B5000EC83F9815F1608F040C0E52CF12CAA81B6
:103B6000BB81CC90D12CF701E35AFC4F8181C81A5C
:103B7000D108AC81BD81AC90B12C8185A81AB10867
:103B8000CC9C9001CD9C300D300D1124AA9CC0011D
:103B9000AB9C900D900D1124820F931F0E94352B2A
:103BA000082F6091590321E0620F08F46FEFF701CD
:103BB000EE0FFF1FE35AFC4F818D928D0E948F2BD9
:103BC0007C019501A601632D742D8F81F401099567
:103BD000362E472E8F835394BCCF209158038F816C
:103BE000382F329F312D1124832F632D742D0E9485
:103BF000AC2B462F282F672FC3010E94BD2A8E8130
:103C00008F5F8E8380CF81E01E3108F080E02796A1
:103C1000E2E10C941D35A0E0B0E0E1E1FEE10C949E
:103C20000B358C01C09113018C2F880FC80FCC0F5E
:103C3000D6E0DC0FDF3108F0DEE12091590331E0FE
:103C4000230F08F42FEF30E040E050E06FEF7FEFFC
:103C500080E090E00E9469347901CD1708F041C0FE
:103C6000CC2ED12CF601E553FE4F908180911401AA
:103C70008923A9F190915D03915097FD15C0492FBB
:103C8000092E000C550BFA01E35AFC4F8189C81329
:103C9000F3CF440F551FFA01E35AFC4F218D328DAB
:103CA0002E153F0548F701C097016091590341E087
:103CB000640F08F46FEFC9010E948F2BAC01609173
:103CC00056037091570380915803F80109950E949B
:103CD000AC2B462F282F672FC6010E94BD2ACF5F2D
:103CE000BCCF81E0DE3108F080E0CDB7DEB7E8E0A0
:103CF0000C942735A0E0B0E0E0E8FEE10C940C3530
:103D00008C01C09113018C2F880FC80FCC0FD6E007
:103D1000DC0FDF3108F0DEE16091590366956695AE
:103D200021E0620F08F46FEF8091510390915203EC
:103D30000E948F2BD82ECD17F0F4EC2EF12CF7012A
:103D4000E553FE4F908180911401892391F0609199
:103D5000560370915703809158032D2D4C2FF80175
:103D600009950E94AC2B462F282F672FC7010E9470
:103D7000BD2ACF5FE0CF81E0DE3108F080E0CDB733
:103D8000DEB7E7E00C942835A0E0B0E0EAECFEE115
:103D90000C9408356C01C09113018C2F880FC80F4B
:103DA000CC0FD6E0DC0FDF3108F0DEE16091590383
:103DB0006695669580915103909152030E948F2BD6
:103DC000182F80E4810F0E94DB2A90E8F92EF80E6C
:103DD000812F0E94DB2A20E8922E980ECD1700F545
:103DE000AC2EB12CF501E553FE4F9081809114016A
:103DF0008923A1F060915603709157038091580375
:103E0000E12E0C2F292D4F2DF60109950E94AC2B88
:103E1000462F282F672FC5010E94BD2ACF5FDECF16
:103E200081E0DE3108F080E0CDB7DEB7EBE00C9446
:103E300024356F927F928F929F92AF92BF92CF92D2
:103E4000DF92EF920F931F93CF93DF935C01C091AA
:103E500013018C2F880FC80FCC0FD6E0DC0FDF3199
:103E600008F0DEE1609159036695809151039091CD
:103E700052030E948F2B182FCD1708F044C06C2ED0
:103E8000712CF301E553FE4F908180911401892339
:103E9000C1F1F301EE0FFF1FE157FE4FC080D12C9F
:103EA00080E7C81AD108F301EE0FFF1FED5AFE4F4D
:103EB00085AC912CE0E28E1A9108CC9C9001CD9CAF
:103EC000300D300D1124889CC001899C900D900DFF
:103ED0001124820F931F0E94352B082F60915603E7
:103EE0007091570380915803E12E9401A601F501CA
:103EF00009950E94AC2B462F282F672FC3010E94E3
:103F0000BD2ACF5FB9CF81E0DE3108F080E0DF91DC
:103F1000CF911F910F91EF90DF90CF90BF90AF9016
:103F20009F908F907F906F900895A0E0B0E0EBE9B4
:103F3000FFE10C940B356C01C09113018C2F880F9D
:103F4000C80FCC0FD6E0DC0FDF3108F0DEE1609166
:103F50005903669580915103909152030E948F2BD3
:103F6000182FCD1778F5EC2EF12CF701E553FE4F05
:103F7000908180911401892319F1F701EE0FFF1F41
:103F8000ED5AFE4F25AD30E020523109F701EE0F1A
:103F9000FF1FE157FE4F408150E0405751096091AB
:103FA00056037091570380915803012FF60109952C
:103FB0000E94AC2B462F282F672FC7010E94BD2AD5
:103FC000CF5FCFCF81E0DE3108F080E0CDB7DEB744
:103FD000E8E00C942735AAE2B0E0E1EFFFE10C94B1
:103FE0001035E9E4F3E081E593E02091F1002193BD
:103FF0008E179F07D1F780914A03833009F463C07D
:1040000030F4813071F0823009F49FC0B6C08A303C
:1040100009F48BC08B3009F46EC0893009F0ADC053
:1040200020C080914903813A09F0A7C08091E8003F
:10403000877F8093E80080914D0390914E03892BF8
:1040400021F468E08DE393E003C060E080E090E05D
:1040500070E00E94CF2E8091E8008B778093E8007B
:104060008CC080914903813209F087C080914D0353
:1040700090914E03009719F0029709F07EC080914D
:10408000E800877F8093E8008091E80082FD05C00A
:10409000809147038111F8CF70C02091F300809187
:1040A000F20090E0922B029731F48091F100813080
:1040B00011F0863021F48091F10080933C038091CF
:1040C000E8008B7756C080914903813A09F055C0CA
:1040D00080914D0390914E03892B09F04EC0809141
:1040E000E800877F8093E8008091E80080FFFCCFA4
:1040F0008091120139C0809149038132F1F580919C
:104100004D0390914E03892BC1F58091E800877F84
:104110008093E8000E94492D80914B038093120107
:1041200010923A030E94281B28C0809149038132D3
:1041300021F58091E800877F8093E8000E94492D57
:1041400080914C0380933B0318C080914903813ACE
:10415000A1F48091E800877F8093E8008091E800D7
:1041600080FFFCCF80913B038093F1008091E800B9
:104170008E778093E8000E94492D8091E80083FFAC
:10418000DFC18091490390914A03492F50E04A30A2
:10419000510508F0D5C1FA01E657FF4F0C94F434ED
:1041A000803821F0823809F0CBC108C080914503E6
:1041B00090914603992389F082600FC080914D034E
:1041C0008F70873008F0BCC18093E9008091EB00CC
:1041D00085FB882780F91092E9009091E800977F8D
:1041E0009093E8008093F1001092F10070C1282FA5
:1041F0002D7F09F0A5C1882319F0823061F0A0C19C
:1042000080914B03813009F09BC1933009F080E02D
:10421000809346032EC080914B0381112AC0809168
:104220004D038F702FEF280F263008F089C180933F
:10423000E9002091EB0020FF1CC0933021F4809115
:10424000EB00806214C09091EB0090619093EB00C2
:1042500021E030E0A90102C0440F551F8A95E2F722
:104260004093EA001092EA008091EB00886080930E
:10427000EB001092E9008091E800877F8093E800CE
:104280000E94492D5DC181115BC110914B031F77C5
:104290008091E3008078812B8093E3008091E80097
:1042A000877F8093E8000E94492D8091E80080FF7D
:1042B000FCCF8091E30080688093E300111102C07D
:1042C00082E001C083E0809347033AC18058823086
:1042D00008F036C120914B0330914C032C3D53E044
:1042E000350779F583E08A838AE289834FB7F894AA
:1042F000DE01139620E03EE051E2E32FF0E0509320
:104300005700E49120FF03C0E295EF703F5FEF702C
:104310008E2F90E0EA3010F0C79601C0C0968D93C2
:104320009D932F5F243149F74FBF8091E800877F2D
:104330008093E8006AE270E0CE0101960E94CF2EE1
:10434000B4C080914D0390914E03432F55274330C5
:104350005105A9F068F44130510509F400C142301B
:10436000510509F0EDC08BE590E0E9EBF2E04BC0C0
:104370004132510529F14232510589F1E1C0C901AB
:10438000992781309105A1F058F0029709F0D8C023
:10439000E6E2F3E0E4918E2F90E0E6E2F3E030C055
:1043A000EEE6F3E0E4918E2F90E0EEE6F3E028C035
:1043B000E2E5F3E0E4918E2F90E0E2E5F3E020C047
:1043C0008330910508F0BCC0880F991FFC01E35BA6
:1043D000FE4F0190F081E02D89E090E014C0833021
:1043E000910508F0ADC0FC01EE0FFF1FE95BFE4F29
:1043F0000190F081E02DDC01AC5BBE4F8C9190E030
:10440000009709F49DC02091E800277F2093E800E1
:1044100020914F03309150032817390708F4C90140
:1044200040E0009789F120914703222309F43DC021
:104430002530D9F12091E80023FD37C02091E80014
:1044400022FD2FC02091E80020FFEBCF4091F30028
:104450002091F20030E0342B009759F028303105DC
:1044600040F444914093F100319601972F5F3F4F04
:10447000F3CF41E02830310509F040E02091E80019
:104480002E772093E800CDCF4111CDCF0AC0809187
:104490004703882351F0853041F08091E80083FD87
:1044A00004C08091E80082FFF2CF8091E8008B7712
:1044B0008093E80045C0803809F042C08091E80050
:1044C000877F8093E800809148038093F10080917A
:1044D000E8008E77D3CE811133C080914B03909149
:1044E0004C039927029764F58091E800877F8093B9
:1044F000E80010914B03109348030E94492D1111BD
:1045000006C08091E30087FD02C081E001C084E025
:104510008093470342E061EC81E00E94682D42E213
:1045200061EC84E00E94682D42E261EC82E00E942E
:10453000682D42E260EC83E00E94682D8091470381
:104540008091E80083FF10C08091E800877F80930E
:10455000E8008091EB0080628093EB0005C082E16F
:1045600090E0E4E1F3E04FCFAA96E3E00C942C3521
:1045700080E008959091390292FF10C041E0282F09
:104580002471243009F040E031E0282F28712830D0
:1045900009F030E0431711F02CE0822793FF10C0A0
:1045A00041E0282F2471243109F040E031E0282F28
:1045B0002871283109F030E0431711F02CE08227F0
:1045C00030913A0230FF10C051E0282F2171213084
:1045D00009F050E041E0282F2871283009F040E030
:1045E000541711F029E0822731FF10C041E0282F35
:1045F0002171213109F040E031E0282F2871283164
:1046000009F030E0431711F029E0822794FD877EFE
:1046100008958238910569F1B0F48133910509F468
:1046200075C048F48932910509F467C08A32910552
:1046300009F471C008958533910509F459C089338F
:104640009105B9F00895833E910589F138F4803ED3
:104650009105D1F0823E910529F10895863E91059C
:10466000C9F1873E9105D9F1843E910509F06CC0EE
:1046700027C02091390220FD57C021FD55C020914F
:104680003A0223FD5BC008958091390280FD48C045
:1046900080913A0280FF48C08091390284FD46C073
:1046A00083EE51C08091390282FF3CC0F5CF8091EA
:1046B000390282FD37C080913A0280FD35C0ECCFCF
:1046C00080913A0281FF36C08091390284FD2EC06C
:1046D00087EE39C08091390283FF2AC0F5CF8091DF
:1046E000390283FD25C080913A0281FD23C0ECCFC1
:1046F0008091390285FD22C01FC08091390285FD5D
:104700001BC080913A0283FF19C00AC08091390210
:1047100086FD16C017C08091390286FD13C010C0F7
:1047200089E311C082EE0FC080EE0DC080E00BC0A7
:1047300086EE09C084EE07C085E305C089E203C0A8
:104740008AE201C081E390E00895A3E0B0E0EBEAE3
:10475000F3E20C9401350EE212E083E3682E82E06E
:10476000782ED8019EE1E92E91E0F92E212CAA2481
:10477000A394B12C4D013C901C92F70181917F01D3
:10478000E82FE295EF702E2F30E03B832A83F9016A
:1047900021A18F70A50102C0440F551F8A95E2F731
:1047A000CA01242B21A322A140954983242322A3BB
:1047B00050EA5A95F1F768E271E06B0120E030E0D1
:1047C000F60151906F01452D42954F7050E0FA016E
:1047D00040A14C9050E0F52DFF7002C055954795D3
:1047E000FA95E2F740FD07C04A2D022E01C0440FA2
:1047F0000A94EAF701C040E0442A4C922F5F3F4FF1
:1048000026303105E9F6EA81FB8191A1F9819F23E8
:10481000EA81FB8191A392A1892B82A3119681E069
:10482000F4019081931101C080E0282A6A167B066A
:1048300009F0A0CF40E050E0EE24E394F12CDB013E
:104840008D91BD01E82FE295EF70F0E021A18F700E
:10485000D70102C0AA0FBB1F8A95E2F7CD012A2B10
:1048600021A322A14A2E4094242122A3B0EABA9582
:10487000F1F79701042E01C0220F0A94EAF7622E85
:10488000922E909423E332E03B832A83AEE1CA2E3A
:10489000A1E0DA2E812CAA80BB80D5017C90D601C4
:1048A0005D906D01252D22952F7030E0D9019096F5
:1048B0002C9130E0B52DBF705B2E02C03595279549
:1048C000BA95E2F720FD04C0272D2629D50104C0A2
:1048D000272D2921AA81BB812C932A813B812F5F1F
:1048E0003F4F3B832A83D5012C91721611F0882407
:1048F00083942A813B812853324069F691A1492251
:10490000498241A292A1892B82A328284F5F5F4F41
:104910004630510509F093CF1092E103B091E003C6
:10492000B983BB2309F43FC00E94DF2F2091DE032F
:104930003091DF03FC01E21BF30B9F019093DF0337
:104940008093DE03EF3FF10509F020F4EF2B09F42B
:1049500081C002C02FEF30E01092E0031092DD031F
:10496000E0912C02F0912D02BF01645C7F4F90E03A
:1049700030E0AF014A5F5F4F8081882341F0281704
:1049800018F01082998103C0821B8083398131968F
:10499000E417F50789F76E177F0759F73093E0039F
:1049A0009093DD0357C0222009F44CC00E94DF2FF2
:1049B0009093DF038093DE031092DD0380912C023D
:1049C00090912D027091E0036091E103A1E5B2E0C6
:1049D0009C01245C3F4F3B832A83EE24E394F12C1B
:1049E00035E0B32EF80131918F012C913227FC0173
:1049F00040E050E06701042E02C0CC0CDD1C0A949C
:104A0000E2F7A32EAC2039F0A080A11004C0B08240
:104A10002C2561E071E031964F5F5F4F46305105C4
:104A200049F706962D932A813B8128173907D1F63D
:104A30007093E0036093E1038091E1032396E2E148
:104A40000C941D3580E09091DD039923A9F3811129
:104A5000B3CFACCF2110B0CF81E0F5CF7A3048F49E
:104A6000663038F4843028F4462F672F0E94823154
:104A7000089580E090E008951F93CF93DF930E9404
:104A80000923EC01C11580E5D807E8F5C11590E4CC
:104A9000D90708F0A8C0C03ED10530F5CD3CD105FE
:104AA00008F094C0C83AD10578F4C53AD10508F0A9
:104AB00083C0C130D10509F47CC008F4F2C0C43011
:104AC000D10508F0F1C0EDC0C33CD10508F0E9C044
:104AD000C85AD0E0CC0FDD1FC451DE4F0990D881F9
:104AE000C02DCE019464E1C0C11580E2D80708F062
:104AF000CBC0C11591E0D90708F06BC0C83ED10505
:104B000008F4D2C0CEC0C03682E5D80728F5C0343C
:104B100092E5D90708F079C0C03282E5D80708F0DD
:104B20006CC0C11592E5D90708F481C04C2F469599
:104B3000469580E2489FA0011124C37021E030E037
:104B4000C90102C0880F991FCA95E2F7EA01C82B74
:104B5000D92BCE019D68A9C0C03A82E5D807B8F428
:104B60008C2F8F71C03892E5D90708F07BC08695ED
:104B7000869590E2899F90011124C37081E090E0B6
:104B800002C0880F991FCA95E2F79A6868C0C03CB6
:104B900082E5D80708F46DC0C03E92E5D90708F059
:104BA00080C0CF71DD27DC2FCC27CE01806F906ACB
:104BB0007CC081E090E079C0C55AD0E0C751DE4F9B
:104BC0008881C82FD0E0CE0190646FC0CE0190657F
:104BD0006CC08D2F0E94BA22182FCE0199270E94F7
:104BE00009231F715CC0CE0199270E940923CC279D
:104BF000DF70D06A8C2B9D2B58C0CF71D0E0DC2F9A
:104C0000CC27CE01816F906A50C08C2F8F71869512
:104C1000869590E2899F90011124C37081E090E015
:104C200002C0880F991FCA95E2F79C6818C08C2FA4
:104C30008F710E94BA2295E0D695C7959A95E1F7B3
:104C4000CF70D0E0DC2FCC27282F30E084FF05C0C8
:104C500084E0220F331F8A95E1F7D069CE01822BC1
:104C6000932B23C090E0D82FCC27CE01846F906A7D
:104C70001CC08C2F8F710E94BA228F7190E0D82FA8
:104C8000CC27CE01906211C08D2F8F710E94BA2265
:104C9000182FCE0199270E9409231F719062912B32
:104CA00004C080E090E001C0CE01DF91CF911F9160
:104CB0000895A6E0B0E0EFE5F6E20C940F350E940F
:104CC000DF2F8C018091DB039091DC03081719071B
:104CD00081F019821A820E94DF2F682F49815A8140
:104CE000792F80E090E00E94500B1093DC0300933A
:104CF000DB032696E4E00C942B3580E090E00E94E4
:104D00002F34863E9E4F19F40E94E431089580E0CE
:104D10000895A8E0B0E0EFE8F6E20C94113566EEF5
:104D20007EEF80E090E00E94633460E082E090E0FB
:104D30000E94453460E083E090E00E944534109288
:104D4000DA0360E074E184E090E00E94633460E0A4
:104D500086E090E00E9445346FEF87E090E00E948B
:104D6000453440E050E0BA0188E090E00E945734BA
:104D700060E084E290E00E94453460E087E190E0EA
:104D80000E94453460E08CE090E00E94453460E091
:104D90008DE090E00E94453419821A821B821C82A9
:104DA0001D821E821F82188648E050E068E170E094
:104DB000CE0101960E94353440E050E0BA0180E215
:104DC00090E00E94573480E00E94B5310E94D431B7
:104DD00040E050E0BA018FE090E00E94573440E09C
:104DE00050E0BA0183E190E00E9457342896E2E057
:104DF0000C942D35809590913A03892380933A0342
:104E0000089590913A038091D903982B909386034B
:104E10008091D803882389F0892B80938603E8E862
:104E2000F3E097E080E0915029F021912223D9F31B
:104E30008F5FF9CF81111092D80348E050E060ED08
:104E400073E086E893E00E945936892BA9F088E048
:104E5000E6E8F3E0A0EDB3E001900D928A95E1F76A
:104E6000E091F103F091F203309731F00280F38189
:104E7000E02D86E893E0099508959091CF03809501
:104E800089238093CF03282F277069F4981759F04E
:104E900090913A0292FF07C08695869586950E946A
:104EA0000C1B1092CF03089590913A0292FB222797
:104EB00020F9281779F080FB92F990933A026091DB
:104EC000390270913A0284E090E00E94633482E0FB
:104ED0000E943D2708952091CE039091950357E0BD
:104EE0002917A9F030E0529FF001539FF00D1124D3
:104EF000EA56FC4F7181761306C07081781303C0A7
:104F00007581741306C02F5F3F4F2770E9CF80E093
:104F1000089581E008958091CE03909195038917BB
:104F200019F08F5F8770FBCF0895CF93DF93809147
:104F3000940382958F7009F04EC08091930388236B
:104F400009F449C08091CE034091950350918F039D
:104F500060918E03C0919003D091910377E0841704
:104F6000D1F190E0789FF001799FF00D1124DF01DD
:104F7000AA56BC4F14962C911497222349F11196EE
:104F80002C911197251324C02C91261321C015961E
:104F90002C91159721111CC012962D913C911397BD
:104FA0002C1B3D0B203A310598F4809194038F70AF
:104FB000806180939403E456FC4F80818F70806100
:104FC00080838EE893E00E94E20B0E948B2703C04F
:104FD00001968770C4CFDF91CF910895EF92FF9231
:104FE0000F939701201B31092F3F310519F010F065
:104FF0002FEF30E02095382F320F08F43FEF832F4A
:105000000F91FF90EF900895EF92FF920F93970109
:10501000201B31092F3F310519F010F02FEF30E040
:10502000322F3095482F430F08F44FEF842F620F33
:105030000F91FF90EF900895EF92FF920F93972FAB
:10504000093438F4B701601B71096F3F710519F01D
:1050500010F06FEF70E0485F5F4F4131510540F055
:10506000A901485F5F4F4131510510F06FEF70E0CB
:105070006095482F460F08F44FEF842F37FF02C08A
:105080002D5F3F4F359527953595279560915603B0
:10509000620F792F0F91FF90EF900895EF92FF929A
:1050A0000F93E00EF11CF90137FF03C0F195E19574
:1050B000F10924E0EE0FFF1F2A95E1F7EF3FF1051C
:1050C00019F014F0EFEFF0E09A0157FF03C03195AB
:1050D0002195310994E0220F331F9A95E1F72E179D
:1050E0003F070CF4F901EE0DFF1DEF3FF10519F03C
:1050F00010F0EFEFF0E02E2F2095382F320F08F44C
:105100003FEF832F0F91FF90EF900895EF92FF9262
:105110000F93970195E0099F200D311D11242F3F1A
:10512000310519F010F02FEF30E02095382F320FB5
:1051300008F43FEF832F0F91FF90EF90089522E83E
:10514000241B08F420E0620F08954095282F429F09
:10515000412D1124842F0895E42FF0E0EE0FFF1F5E
:10516000E157FE4F9081921B97FD9195292F38E1D1
:10517000239F212D1124620F08950F931F9310E098
:10518000F801EE0FFF1FE157FE4F9081905797FDFA
:105190009195000F111FF801ED5AFE4FE5ADF0E0BB
:1051A000B097DF01AA0FBB1F8D010E0F1F1F200339
:1051B000D001219FB00D1124E8E3F0E0E91BF109D3
:1051C00097FDF3959F01220F331F89010E0F1F1FBB
:1051D00040039001419F300D11242A0F3B1F37FFE0
:1051E00002C021583F4F220F232F221F330B620F83
:1051F0001F910F9108950F931F93522F10E0F80104
:10520000EE0FFF1FED5AFE4FE5ADF0E0B097EE0F49
:10521000FF1F9F015203D001539FB00D1124000FB7
:10522000111FF801E157FE4F008110E000571109EE
:10523000000F111F40039001419F300D11242A0FD0
:105240003B1F37FF02C021583F4F220F232F221F41
:10525000330B620F1F910F9108950F931F93522FDD
:1052600010E0F801EE0FFF1FED5AFE4FE5ADF0E044
:10527000B0979F015203D001539FB00D1124000F2E
:10528000111FF801E157FE4F008110E0005711098E
:1052900040039001419F300D11242A0F3B1F37FF1F
:1052A00002C021583F4F220F232F221F330B620FC2
:1052B0001F910F910895EF920F931F9393E0099F11
:1052C00080011124159507956E2D600F1F910F9188
:1052D000EF900895A22F50E0FA01EE0FFF1FED5A54
:1052E000FE4F95AD905297FD9195440F551FFA01D1
:1052F000E157FE4F3081232F30E02A1B3109290F5F
:10530000311D97FD3A95620F0895E42FF0E0EE0FFE
:10531000FF1FED5AFE4F65AD621B0895E42FF0E0CC
:10532000EE0FFF1FE157FE4F6081621B0895622F51
:105330000895E42FF0E0EE0FFF1FE157FE4F40818C
:1053400034EE439F412D1124E82FF0E050E0445EFD
:105350005F4FDA01A21BB1099D01B7FF03C0319570
:105360002195310993E0220F331F9A95E1F7AF01A0
:10537000421B530B9A0157FF02C020E030E0582F28
:10538000259F212D1124822F0895E42FF0E0EE0FA8
:10539000FF1FE157FE4F408134EE439F412D112402
:1053A000E72FF0E050E0445E5F4FDA01A21BB10945
:1053B0009D01B7FF03C031952195310993E0220F7C
:1053C000331F9A95E1F7AF01421B530B9A0157FF28
:1053D00002C020E030E0279F212D1124722F089574
:1053E000FC019B01009721F477FF2BC080E8089512
:1053F000AC0197FF04C044275527481B590BB9013E
:10540000640F751F37FD0CC0241B350BC901A5E0C7
:10541000880F991FAA95E1F70E94E03480E20CC042
:10542000CB0165E0880F991F6A95E1F7BA01621B0D
:10543000730B0E94E03480E6861BF7FF03C0819562
:10544000089580E00895EF920F93CF93DF93D72FC5
:10545000C82FC9010E19BA010E94F029602F681BDC
:105460007D2F8C2FDF91CF910F91EF9008950F93A7
:10547000CF93DF93D72FC82FC901BA010E94F0291B
:10548000682F600F7D2F8C2FDF91CF910F910895A2
:10549000EF920F931F93CF93DF93D62FC72F182F21
:1054A000C9010E19010FBA010E94F029081B202F13
:1054B000219F212D1124822F6D2F7C2FDF91CF91E1
:1054C0001F910F91EF900895EF920F931F93CF9339
:1054D000DF93D62F172FC82FC9010E19070FBA0156
:1054E0000E94F029702F781B719F712D11246D2F50
:1054F0008C2FDF91CF911F910F91EF900895FF9224
:105500000F931F93CF93DF93F62ED72F182FC90138
:10551000C12FC01BBA010E94F029982F990F890F43
:10552000C81B2C2F219F212D1124822F6F2D7D2F01
:10553000CDB7DEB7E5E00C942A35FF920F931F93A9
:10554000CF93DF93F62E172FD82FC901C72FC01B7B
:10555000BA010E94F029982F990F890F7C2F781B90
:10556000719F712D11246F2D8D2FCDB7DEB7E5E022
:105570000C942A350E94F73008950E94D730089580
:10558000E5E5F3E085E5808380911B0190911C01A6
:10559000A0911D0181839283A3838FE784838FEF82
:1055A000858348E050E068E170E0CF010E94353427
:1055B000109229040895482F982F46FD9095E92FC1
:1055C000EF739F7046FD9F5FE295EF70EE0FF0E086
:1055D000EE5DFD4F2181299F802D212D1124829583
:1055E0008F702295207F822B3081982F930F892FE7
:1055F00047FD8195805808950F931F93CF93DF93B4
:10560000D62F072F182FC42F822F0E94DB2AEC2FB2
:10561000F0E0EE0FFF1FE157FE4F90819058890F89
:1056200087FD8195880F682F2CE0629F612D1124E2
:105630006D0F702F812FDF91CF911F910F910895E2
:10564000409116015091170125E038E0429FC001BA
:10565000439F900D529F900D1124875E994C90931B
:10566000170180931601890F0895BC0182309105BE
:1056700008F40895613E8EE1780748F49B0195E0B7
:10568000369527959A95E1F748E0420F01C04FEF14
:1056900091E0242F30E0290F311D35952795229F69
:1056A000F001239FF00DF00D11246E177F0718F401
:1056B0004FEF420F04C02F3F39F091E0920F49178E
:1056C00040F78FEF890F08958FEF08950F93CF93D1
:1056D000DF93D72FC82F47FD4195E8E3F0E0CF01D6
:1056E000841B910947FD9395889FB001899F700D98
:1056F000700D1124229FC001239F900D900D112445
:10570000860F971F0E94352B682F660F860F682F14
:10571000600F7D2F8C2FDF91CF910F91089520E0A6
:1057200030E0869F212D969F200D311D1124C90147
:1057300008952091590330E1230F08F42FEF60E121
:10574000822F90E00E948F2BBC0188EB9BE00E948F
:10575000CC3480E090E00895A0E0B0E0E2EBFBE222
:105760000C940B35F62E472FE82FF0E0711106C090
:10577000EE58FC4F8491782F682F73C0272F30E0AC
:10578000EE58FC4FE491FE2F0E2F10E056E0659F7F
:10579000C0011124CFEFD0E0BE010E94CC345BEAFF
:1057A0005603C001579F900D11248F0D911D8F0D31
:1057B000911D982F990F980F7E01E21AF30AE09E2F
:1057C000D001E19EB00DF09EB00D11248B2F499FAA
:1057D000A0011124452F55277E01E41AF50AE09E09
:1057E000A001E19E500DF09E500D11246E01C91ACA
:1057F000D108C29E7001C39EF00CD29EF00C112401
:105800002F2D3327C21BD30BC09F9001C19F300D9A
:10581000D09F300D1124932F6230710591F048F420
:1058200061157105E1F061307105B9F49E2FE52F26
:1058300016C06430710569F040F06630710579F08A
:105840000CC09E2FEB2F832F0AC0EB2F8F2F952F8D
:1058500006C09B2F8E2FE32F02C09B2F852F7E2FFC
:10586000692FCDB7DEB7E8E00C9427350E94DF2F13
:105870002091EB03211104C02091EC03222321F09D
:105880009093E8038093E7032091ED03211104C076
:105890002091EE03222321F09093E6038093E50309
:1058A000E091F103F091F203309749F082E08093A8
:1058B000E9030480F581E02D89EE93E009950895D0
:1058C0008091E40380FD16C081FD16C082FD18C0E2
:1058D0008091E303882391F0883290F428E0829F3E
:1058E000C001112468E270E00E94E034862F672B2B
:1058F00029F007C082E0089584E0089581E00895CA
:1059000088E008958091E40380FD14C081FD14C0F7
:1059100082FD16C08091E203882381F08E3180F4ED
:1059200020E5829FC00111246EE170E00E94E03406
:10593000862F089584E1089588E2089588E0089507
:1059400080E50895282F35EB2303C001112497FF2C
:1059500003C08058910902C080589F4F892F089535
:1059600080913C0308951F920F920FB60F9211245D
:105970002F933F934F935F936F937F938F939F9357
:10598000AF93BF93CF93DF93EF93FF93C091E90061
:10599000CF708091EC00D82FD17080FDD0E81092AC
:1059A000E9008091F000877F8093F00078940E9456
:1059B000EB1F1092E9008091F00088608093F00066
:1059C000CD2BCF70C093E900FF91EF91DF91CF9184
:1059D000BF91AF919F918F917F916F915F914F9107
:1059E0003F912F910F900FBE0F901F901895E8EDEB
:1059F000F0E080818E7F80831092E2001092DA00C6
:105A00001092E100A0EEB0E08C9181608C938081D7
:105A10008F77808319BCA7EDB0E08C918E7F8C933B
:105A200080818F7E80831092FA0308952091E40094
:105A30003091E50095E64091EC00842F817040FFA5
:105A400023C08091E80080FD1DC08091470388231A
:105A500099F0853099F08091EB0085FD11C040915F
:105A6000E4005091E5002417350729F3915011F017
:105A70009A01E1CF84E0089582E0089583E00895DB
:105A800081E0089580E008954091E80042FFDDCF75
:105A900008958091490387FF11C08091E80082FD3D
:105AA00005C0809147038111F8CF11C08091E800B3
:105AB0008B770BC080914703882349F08091E800E1
:105AC00080FFF8CF8091E8008E778093E8000895FA
:105AD000982F973068F59093E900981739F07091F6
