:100000000C9434030C9451030C9451030C9451033D
:100010000C9451030C9451030C9451030C94510310
:100020000C9451030C9451030C94192D0C94D42B63
:100030000C940C2F0C9451030C9451030C94510309
:100040000C9451030C9451030C9451030C945103E0
:100050000C9451030C94BF2E0C9451030C94510337
:100060000C9451030C9451030C9451030C945103C0
:100070000C9451030C9451030C9451030C945103B0
:100080000C9451030C9451030C9451030C945103A0
:100090000C9451030C9451030C9451030C94510390
:1000A0000C9451030C9451030C9451036A096D098B
:1000B000A009B909BF09CA09CD09CD09CD09040BA9
:1000C000040B4F0A510A550A7B0A9E0AA10AA40A88
:1000D000C90AEA0AF50AB30DC10DC60DCD0DD20D40
:1000E000D70DDC0DE10DE60DEB0DF00DF50DF80D66
:1000F000FB0DFE0D7D0D7D0D7D0D7D0D7D0D7D0DB1
:100100007B0E7B0EB10EB10E3A0F580F65106510C5
:100110005D0FD30FE50FE50F622089203222892081
:100120003222D520F8203222ED21FD2100000000EE
:1001300000000000000000000000000000000000BF
:1001400000000000000000000000000000000000AF
:100150007E0F00D4FFFFFFC7000000780000000002
:10016000000000002A2B2800000000000000000012
:100170000000000000000029000000002C1E3420B8
:10018000212224342627252E362D3738271E1F20DE
:100190002122232425263333362E37381F04050623
:1001A0000708090A0B0C0D0E0F1011121314151667
:1001B0001718191A1B1C1D2F3130232D3504050665
:1001C0000708090A0B0C0D0E0F1011121314151647
:1001D0001718191A1B1C1D2F3130354C0501090247
:1001E000A10185020901A1000509190129081500CD
:1001F0002501950875018102050109300931158134
:10020000257F95027508810609381581257F95019E
:1002100075088106050C0A38021581257F95017540
:10022000088106C0C005010980A101850319012AC2
:10023000B700150126B700950175108100C0050CA7
:100240000901A101850419012AA002150126A002B5
:10025000950175108100C00660FF0961A101096266
:10026000150026FF009520750881020963150026F8
:10027000FF00952075089102C005010906A101053E
:100280000719E029E71500250195087501810295F8
:1002900001750881010507190029FF150026FF00D7
:1002A0009506750881000508190129051500250125
:1002B000950575019102950175039101C009025BD5
:1002C00000030100A0FA0904000001030101000974
:1002D00021110100012244000705810308000109E2
:1002E0000401000203000000092111010001222283
:1002F0000007058203200001070503032000010910
:100300000402000103000000092111010001227B09
:10031000000705840320000112010002000000080C
:1003200009126B510100010200012C03540052001C
:1003300065004B0020003400300050006C00750058
:1003400073002000530059004D004D00450054003B
:1003500052004900410000001A0364006900670070
:100360006900740061007200680079007400680020
:100370006D00000004030904167C14001A00080034
:10038000150017004A002B21040016000700090081
:100390000A004D00E1001D001B00060019000500C9
:1003A00023526152000091242A282C420000A80008
:1003B0004B001C0018000C00120033002D004E00F2
:1003C0000B000D000E000F00130034002352050037
:1003D00011001000360037003832000000002C42B7
:1003E000283890310000AE0001000100010001003A
:1003F00001000100010001000100010001000100F5
:1004000001000100010001000100010001000100E4
:1004100001006152000001002A21010000000100DA
:1004200001000100010001000100010001000100C4
:1004300001000100010001000100010001000100B4
:1004400001000100010001000100000000000100A6
:10045000283190380000010035001E001F002000E8
:100460002100220023000100010001000100010021
:100470000100010001000100010001000100010074
:1004800001000100000001004C0023520000207810
:100490002200230024002500260027002E00010052
:1004A0005000510052004F00010001000100010006
:1004B0002F0830082F0030003100000000002352C8
:1004C0003B00010000000100A6003A003B003C0098
:1004D0003D003E003F0001002778287829782A78DF
:1004E0002178227801002378247825782678010065
:1004F00001000100000001000100010000000100F6
:1005000040004100420043004400450068000100F3
:1005100001000100010001000100010001000100D3
:1005200001000100010001000100000000000100C5
:1005300001000100000001004E014B01D900DA006A
:10054000A900AA0001000100010001000100010052
:1005500001000100DC00DB000100010001000100DE
:100560000100010001000100000101010101010180
:100570000101020202020202020202030303030358
:100580000303030404040404040405050505050627
:1005900006060606070707070708080808090909E5
:1005A000090A0A0A0B0B0B0C0C0C0D0D0D0E0E0E8E
:1005B0000F0F0F101011111112121313141415151F
:1005C00016161717181819191A1A1B1B1C1D1D1E91
:1005D0001E1F2020212222232424252626272829E5
:1005E000292A2B2C2D2D2E2F303132323334353613
:1005F0003738393A3B3C3D3E3F4041424344454613
:100600004748494A4C4D4E4F5051535455565859EE
:100610005A5B5D5E5F616264656668696B6C6D6F95
:100620007072737577787A7B7D7E80828385878808
:100630008A8C8E8F91939596989A9C9EA0A2A3A542
:10064000A7A9ABADAFB1B3B5B7BABCBEC0C2C4C643
:10065000C9CBCDCFD1D4D6D8DBDDDFE2E4E7E9EBFF
:10066000EEF0F3F5F8FAFDFF11241FBECFEFDAE04C
:10067000DEBFCDBF12E0A0E0B1E0E8E6FDE602C0DB
:1006800005900D92A036B107D9F725E0A0E6B2E0BB
:1006900001C01D92AB31B207E1F70E9453030C94E5
:1006A000B2360C940000ACE4B0E0E9E5F3E00C9461
:1006B000443585B7806885BF85B7806885BF84B7B6
:1006C000877F84BF0FB6F894A895809160008861F9
:1006D00080936000109260000FBE90E080E80FB63B
:1006E000F89480936100909361000FBE89E896E2D0
:1006F00090936102809360020E94182C0E94BE2C8D
:100700008091E20084608093E20078948091A3035A
:100710008823A1F01091E9001F709091EC00892FBF
:10072000817090FD80E8182B1092E9008091E8001C
:1007300083FD0E947D1F1F701093E90082E084BD3D
:1007400093E095BD9AEF97BD80936E000E94ED22D5
:10075000811102C00E94762483E080937E02A5E48A
:10076000B1E042E451E0F8E4EF2EF1E0FF2E8A011F
:100770009D0161E070E0F90181919F01E82FE29510
:10078000EF70F0E0D1A08F705B0102C0AA0CBB1C1F
:100790008A95E2F7C5019A2D90959D2191A392A18A
:1007A000892B82A3F80181918F01E82FE295EF70E8
:1007B000F0E0D1A08F705B0102C0AA0CBB1C8A952F
:1007C000E2F7C5019A2D90959D2191A392A1892BC5
:1007D00082A3E216F30679F68FE891E00197F1F72C
:1007E00000C0000070917E020FE712E060E0671722
:1007F00051F12D91822F82958F7090E0FC0180A1A4
:1008000090E02F7002C0959587952A95E2F7817048
:10081000FA019191AF01292F22952F7030E0F90153
:1008200020A130E09F7002C0359527959A95E2F798
:1008300020FF02C092E001C090E0892BF801819373
:100840008F016F5FD4CFA0E2B1E028E231E0AD01CB
:1008500061E070E0FA018191AF01E82FE295EF705D
:10086000F0E011A18F705B0102C0AA0CBB1C8A953D
:10087000E2F7C5019A2D9095912391A392A1892B1E
:1008800082A32417350731F748E251E06FE271E0A7
:100890008A01EE24E394F12CF80181918F01E82F75
:1008A000E295EF70F0E0D1A08F70570102C0AA0C62
:1008B000BB1C8A95E2F7C5019A2D90959D2191A3C5
:1008C00092A1892B82A36017710731F701E010E034
:1008D000FA018191AF01E82FE295EF70F0E0F1A00D
:1008E0008F70580102C0AA0CBB1C8A95E2F7C501A3
:1008F0009A2D90959F2191A392A1892B82A3641791
:10090000750731F761E070E08D91E82FE295EF70A7
:10091000F0E041A18F706B0102C0CC0CDD1C8A9508
:10092000E2F7C6019C2D9095942391A392A1892B67
:1009300082A32A173B0741F7E4E6F2E08CE692E057
:10094000A3E8B2E011921D928E179F07D9F788E3B2
:1009500090E00E947B35AC01909363028093620229
:1009600020E030E0FA01E20FF31F97E0119291507E
:10097000E9F7295F3F4F28333105A1F70E94602A2C
:10098000811102C00E946C2A82E090E00E946A34C9
:1009900080936F0284E090E00E94723490936E0224
:1009A00080936D020E9476270FEF11EE24E0015034
:1009B00010402040E1F700C000000E94762780919F
:1009C000830280FF08C06FEF7FEF80E090E00E941D
:1009D000A6340E94AE2E83E090E00E946A340E940A
:1009E000FF1A0E9483221092B903E2EDF3E082EE37
:1009F00093E02FEF3FEF219331938E179F07D9F7A5
:100A00001092E203EBEFF3E08BE094E02FEF3FEF87
:100A1000219331938E179F07D9F70E94602A811185
:100A200004C00E946C2A0E94883281E080931004E6
:100A300048E050E068E170E081EB93E00E945A34B6
:100A4000109210048091B1038C7F11F40E948832BF
:100A50008AE091E090930E0580930D05FF24F394B6
:100A60008091A303853009F061C000E443E0E42EE7
:100A700010E18091A303853009F050C08091A30359
:100A8000843009F439C00E94B62580910F04811189
:100A90000DC00E94DC10109219018091B103837087
:100AA000809318010E94A222E0921A0131E0309353
:100AB0000F041092110548E150E00FB6F894A89584
:100AC000409360000FBE0093600083B7817F846015
:100AD00083BF83B7816083BF7894889583B78E7F07
:100AE00083BF0FB6F894A8958091600088618093C9
:100AF0006000109260000FBE8091A203882309F469
:100B0000B8CF0E947627E3E8F2E08191811185C594
:100B10008BE892E08E179F07C1F7ABCF1092960338
:100B20000E94021B0E94A42F10920F040E9476279D
:100B300000E712E021961FAF0EAF2197A3E8B2E0C5
:100B4000F80191918D91892712E0E837F10719F0AA
:100B50008823B9F305C0811103C00E943C2A93C1C8
:100B600006E413E025961FAF0EAF259737E5232E39
:100B700031E0332E03E812E029961FAF0EAF29971C
:100B8000E12C2996AEADBFAD2997AD902996BFAFA8
:100B9000AEAF29972396AFAE23972196AEADBFADEA
:100BA00021977C90A7242796AFAE2797AA2009F417
:100BB0004DC125966EAC7FAC25972101D12CCC245C
:100BC000C39427968FAD27978C2109F42CC12396C7
:100BD0008FAC23978C20D9AEEAAE0E94002F9CAF39
:100BE0008BAFB1E0BDAF91E0811001C090E09EAF4E
:100BF00049AD5AAD6BAD7CAD8DAD0E94760B8820B2
:100C000051F0F20180818F3F31F026968FAF269709
:100C10009924939401C0912C092D10E08091E20356
:100C20005801A80EB11CC5010997ACF188E0A82EA7
:100C3000B12CA01AB10AB8016F5F7F4F6E517C4F83
:100C4000A50183EE93E00E94A936B801675F7F4F4C
:100C50006E517C4FA5018BEE93E00E94A936A50151
:100C6000440F551FB801660F771F675E7F4F6E51A7
:100C70007C4F8BEF93E00E94A936B8016F5E7F4FE7
:100C80006E517C4FA50183EF93E00E94A93688E066
:100C900089198093E2038091E20390E02696BFAC2D
:100CA0002697AB2DB0E09D01220F331F21573E4FF9
:100CB000AA0FBB1FBD0160577E4F41E0480F991539
:100CC000C0F490E0FC01EE51FC4FD9015C915183DE
:100CD000DB015C9151872696AFAC2697A18A880FDD
:100CE000991FFC01EE51FC4F128E118E91E0842F62
:100CF000E4CF8093E203882009F495C08091B1038A
:100D00008C7F8C3709F08FC0D2018C918F3F09F412
:100D10008AC0E7E5AE2EE1E0BE2EF6E48F2EF3E0CA
:100D20009F2E22961FAE229790E09C01220F331F28
:100D3000890101571E4F2B961FAF0EAF2B978901CC
:100D400000571E4F2D961FAF0EAF2D9700E010E0FD
:100D5000F501E00FF11F80818F3F09F44EC022960C
:100D60002FAD22972E110AC0D01208C0D3012C91AA
:100D700030E2230F08F42FEF2C933FC090E02B9626
:100D8000EEADFFAD2B97408150E0FC01EE0FFF1F51
:100D9000E157FE4F2081421B51092D96AEADBFADEC
:100DA0002D972C9130E0880F991FFC01E95AFE4FD6
:100DB00081AD281B3109449FB001459F700D700D16
:100DC0001124229FC001239F900D900D1124860FA6
:100DD000971F0E94FD32893280F428E2382F231BAE
:100DE00008F420E0F401E00FF11F213108F020E1C8
:100DF0003081320F08F43FEF30830F5F1F4F073011
:100E0000110509F0A5CF22960FAD22970F5F22960C
:100E10000FAF229717E0810E911C27E0A20EB11CA4
:100E2000083009F093CFD394CC0C3FEF431A530A08
:100E30004FEF641A740A57E0D512C3CE2396AFACB5
:100E400023972196AEADBFAD2197AC92E394219646
:100E50000EAD1FAD21970F5F1F4F21961FAF0EAF35
:100E6000219717E0210E311C25960EAD1FAD259759
:100E7000095F1F4F25961FAF0EAF259718E0E112AF
:100E800080CE0E94F42E0E94B625E12CB12C92E077
:100E9000A92E2DEF922E3CEF832E43E0742E8091ED
:100EA0007E02E81608F0BEC00E2D10E0F801EB5BE4
:100EB000FE4F2081E22FE295EF70F0E080A190E0FC
:100EC0002F7002C0959587952A95E2F78170F801F9
:100ED000EE5BFE4F9081E92FE295EF70F0E020A1EC
:100EE00030E09F7002C0359527959A95E2F720FF74
:100EF00002C022E001C020E0982F922BF801E158B7
:100F0000FD4F8081282F237030E0492F092E000CDF
:100F1000550B2417350709F483C0880F880F892BD8
:100F20008083F801E15CFE4F2081E82FEF70F0E054
:100F3000E15DFE4FA80145585D4F6A013081DA013D
:100F40009C91930F9C93492F092E000C550B30E078
:100F50004217530754F43195219531092417350769
:100F600024F48370833009F059C0191644F5F80150
:100F7000E858FD4F80818F5F80830E94002FEDA68F
:100F80008EA6682F8FA798AB79AAFAAA4E2D5CEF90
:100F9000792F83E091E00E94760B0E94002FEBAA4C
:100FA0008CAA682F8DAB9EAB7FAA18AE4E2D5CEF3E
:100FB000792F83E090E00E94760B81E001C080E011
:100FC000F601908197FF27C0F801E858FD4F808116
:100FD000815080830E94002FE9A29AA2682F8BA3E0
:100FE0009CA3ADA2FEA24E2D5DEF792F82E091E091
:100FF0000E94760B0E94002FEFA298A6682F89A767
:101000009AA7ABA61CA64E2D5DEF792F82E090E04B
:101010000E94760B81E0D6011C9201C080E0B82AC4
:10102000E3943DCFB1100E94F42E86E0E9EAF4E0AB
:101030008E010F5F1F4FD80101900D928A95E1F745
:10104000A090AA04E090AB04C090AC04B090AD04B2
:10105000D090AE041092AB041092AC041092AD0488
:101060001092AE04E11003C0CC2009F44BC0809173
:10107000A7049091A8040E94E52E9C019091A204DF
:10108000992309F4ECC225313105E0F19F3F19F0B5
:101090009F5F9093A204EE2061F00E9452231E14E1
:1010A00014F491E001C09FEF899F802D112480935B
:1010B000AB04CC2061F00E9452231C1414F09FEF6B
:1010C00001C091E0899F802D11248093AC04809110
:1010D000AB048823B9F09090AC04992099F00E9459
:1010E0007223882319F08093AB0402C0F092AB0402
:1010F000892D0E947223882319F08093AC0402C0CA
:10110000F092AC04B11003C0DD2009F44BC0809113
:10111000A5049091A6040E94E52E9C019091A30441
:10112000992309F4A1C221353105E0F19F3F19F05F
:101130009F5F9093A304BB2061F00E9430231B1497
:1011400014F491E001C09FEF899F802D11248093BA
:10115000AD04DD2061F00E9430231D1414F09FEFD8
:1011600001C091E0899F802D11248093AE0480916D
:10117000AD048823B9F09090AE04992099F00E94B4
:101180007223882319F08093AD0402C0F092AD045D
:10119000892D0E947223882319F08093AE0402C027
:1011A000F092AE048091AA04A8121AC08091AB04F8
:1011B000882311F0E81214C08091AC04882311F048
:1011C000C8120EC08091AE04882311F0D81208C056
:1011D0009091AD04992331F081E0B91204C002C0AE
:1011E00081E001C080E080FD15C08091AB048111D9
:1011F0000FC08091AC0481110BC08091AD048111AE
:1012000007C081E09091AE04911103C080E001C05D
:1012100081E080FD0E940623AA82EB82CC82BD82FF
:10122000DE8286E0F801A9EAB4E001900D928A9589
:10123000E1F70E94A42F90918202891721F08093F8
:1012400082020E94F42E8091A303843009F008CC1E
:1012500083E08093E9008091E80082FF01CC8091D7
:10126000E80085FF21C00E94372C81111BC080E25D
:10127000A82EB12C680109C08091F100F60181937C
:101280006F01F1E0AF1AB10869F08091E80085FDC7
:10129000F3CF8091E8008B778093E8000E94372C91
:1012A000882399F391E001C090E08091E8008B776A
:1012B0008093E800992309F4D3CB2981822F90E011
:1012C000FC013197E531F10508F09EC1EA5AFF4F64
:1012D0000C9437351A828CE0E6C08A81823009F49A
:1012E000B5C150F4813009F08FC10E94F42E9B8368
:1012F0008C837D836E838AC1833041F0843009F012
:1013000083C11B821C821D821E8280C16B81DE0113
:10131000149680E090E0262F30E0A901480F591F75
:101320004830510508F072C1E62FE80FF0E0ED57A4
:10133000FD4F40814D9301968C31910571F766C147
:101340008A81823069F0853009F05EC18091B103F5
:10135000AA24A3948A258093B10310921A0156C13E
:101360006B817C818D819E810E943D350E94B12FD1
:101370004DC14C816B818A810E94862434C12D81AC
:101380003E813227232732274C816B818A810E943C
:10139000FB233CC10E94222439C18A81833009F099
:1013A00033C1283009F443C0293009F46DC08B8162
:1013B0008230D1F070F4813009F028C14C8128ECE2
:1013C000429F412D11248091B20320E06091B3032C
:1013D0002AC0833021F1843009F018C18C8120E0CB
:1013E0004091B4036D811FC08C819091B103811134
:1013F00009C0892F837011F010921A019C7F90937D
:10140000B10304C1292F237011F410921A019C7F9B
:1014100091609093B10360E00E947B25F7C08C81BE
:101420008093B503F3C090E00E941A25EFC08B8132
:101430008230E1F078F4813009F0E8C08091B403A3
:101440002FEF829FC001112468EC70E00E940F35DD
:101450006C83DCC08330A1F0843009F0D7C0809168
:10146000B2038C838091B3038D83D0C08091B1038C
:10147000982F937019F08695869504C080E002C07D
:101480008091B5038C83C2C048E050E068E170E011
:1014900081EB93E00E94783410921004B7C080E191
:1014A00051C0FA8287EE8B83B1C0CA80DB80DC2416
:1014B000CD24DC248C80912C5801C601875E9D4F81
:1014C0009501201B310B2815390508F09FC037EE18
:1014D000C31631E0D30630F40E946A34D501149665
:1014E0008C9302C0F5011482FFEFCF1ADF0A2FEFB1
:1014F000A21AB20AE2CFCA80DB80DC24CD24DC242D
:101500008C80912C5801C601875E9D4F9501201B50
:10151000310B2815390508F079C037EEC31631E0D4
:10152000D30628F4D50114966C910E948834BFEF3D
:10153000CB1ADB0AEFEFAE1ABE0AE5CF0E9480237A
:1015400065C084E08A8362C0CA80DB80DC24CD244D
:10155000DC248C80912C5801C60189969501201BB2
:10156000310B2815390508F051C0F0ECCF16F1E029
:10157000DF0630F40E946A34D50114968C9302C0C1
:10158000F5011482FFEFCF1ADF0A2FEFA21AB20A79
:10159000E3CFCA80DB80DC24CD24DC248C80912C3A
:1015A0005801C60189969501201B310B2815390574
:1015B00068F530ECC31631E0D30628F4D501149653
:1015C0006C910E948834BFEFCB1ADB0AEFEFAE1AA2
:1015D000BE0AE7CF41E08C81811101C040E06B8100
:1015E0008A810E94C2239D8338C02D813E8132278B
:1015F0002327322741E08C81811101C040E06B81BB
:101600008A810E94902302C08FEF898340E250E0DC
:10161000B80182E00E944E2E23CA19BD82E189BD25
:1016200009B400FEFDCF8091D8008F7D8093D80053
:101630008091E00082608093E0008091E00081FD75
:10164000FCCF109296030E94021B13CA88E290E01E
:101650000E946A341B821C821D828E83D7CF2B305E
:10166000310508F015CD4ECD2B30310508F060CD99
:1016700099CDA6E0B0E0EFE3FBE00C94533549834D
:101680005A8349815A81992361F0222351F0CA017A
:101690000E949C18182F682F89819A810E94A71A8E
:1016A00004C0CA010E948E1A182F69817A81812F85
:1016B0000E94FF282696E3E00C946F351092960363
:1016C0000E94021B2FEF84E39CE021508040904059
:1016D000E1F700C000009AE088E10FB6F894A89501
:1016E000809360000FBE90936000FFCFABE1B0E04D
:1016F000ECE7FBE00C9452354E8B5F8B688F798F53
:101700008A8F9B8F192F91111092F204DE011F9680
:1017100087E0FD0111928A95E9F786E0FE01769651
:1017200001900D928A95E1F70A8D002341F021E0A6
:101730004F85588969897A89C8010E94390B0B8BBA
:101740001C8B87E0FE013F96DE01189601900D92FA
:101750008A95E1F7CE0108960E94FB1881112CC0F2
:1017600087E0FE013896DE01119601900D928A9570
:10177000E1F76C85662301F12091B60430E0C901E0
:101780000196877099274091EF0450E084179507E0
:1017900061F16D8397E0929FD001939FB00D11246A
:1017A000A954BB4FFE01319601900D929A95E1F735
:1017B0008093B6040E946D2B17E08091EF04909106
:1017C000B604891709F1189FC001112489549B4F51
:1017D0000E94FB188823C1F08091EF0490E00196ED
:1017E000877099278093EF04E8CF109296030E94A8
:1017F000021B1092B6041092EF04EFEAF4E087E0C7
:10180000DF011D928A95E9F76B96E4E00C946E3542
:10181000A8E0B0E0EEE0FCE00C944435FC018481EB
:10182000882309F4C5C48F0121E040815181628180
:10183000738195810E94390B9C01F8018581882371
:1018400009F47EC1C90197578038910508F041C15C
:10185000F22EFFE0F21708F450C18FEF93E00E94E0
:101860006A3481114AC169E1A62E62E0B62EFF20DA
:1018700079F0A11424E0B20609F43FC1C5010E9429
:101880006A34811101C0FA943FEFA31AB30AEFCF73
:10189000CE0101962C0188E0F20111928A95E9F7B8
:1018A0005AE0352E7501FFEFEF1AFF0AC5010E94BD
:1018B0006A3489831A82882309F41FC1813009F0B0
:1018C00044C0650122E0C20ED11CC7010E946A34E7
:1018D0008A83882309F411C19FEF980F933060F435
:1018E00033E0A30EB11CC6010E946A348B838823A7
:1018F00009F403C11C822CC0843049F54E0183E0F9
:10190000880E911C42E0E42EF12C56019FEFA91A9B
:10191000B90AC6010E946A34F40181934F018823F9
:1019200009F4EBC08C3741F4E2E0F0E0EC0FFD1F6E
:10193000EE0DFF1D10820CC0FFEFEF1AFF0A6501CC
:1019400027E0E216F10409F7D8C0570101C056019B
:101950007201F7012081222309F4A4CF213009F07C
:1019600056C08181813081F46701F2E0CF0ED11C35
:10197000F7018281893319F460E570E002C060E00C
:1019800070E00E94171D0AC0823051F46701F2E036
:10199000CF0ED11CF70182810E947E1C760195C07A
:1019A000833049F46701F2E0CF0ED11CF701828148
:1019B0000E94241CF3CF843021F0FFEFEF1AFF0ABE
:1019C00084C0F7012281C70102967C0180E090E08B
:1019D00030E0205331092A30310570F4389EA001DF
:1019E000399E500D1124C901840F951FEFEFEE1A97
:1019F000FE0AF7012081ECCF009709F466C0EFE9F9
:101A0000FFE03197F1F700C000000197F5CFE22F1A
:101A1000F0E0E45AFE4F2490822F869586958695B5
:101A200090E0FC01E45BFE4F64902770712C022E65
:101A300002C0759467940A94E2F7F1E06F2277246C
:101A4000FC01E45CFE4F8490912C022E02C0959420
:101A500087940A94E2F731E083229924FC01E45D43
:101A6000FE4FC490D12C02C0D594C7942A95E2F7BA
:101A700081E0C822DD246114710419F081EE0E9416
:101A80007E1C8114910409F450C086EE0E947E1CD5
:101A900099E3291609F443C060E070E0822D0E94AA
:101AA000171D8114910419F086EE0E94241C611404
:101AB000710419F081EE0E94241CC114D10429F094
:101AC00060E070E08CE20E94171DEFEFEE1AFE0A54
:101AD00040CF26318CE7380709F029C3809196035F
:101AE0008A7A91E009F490E090938B02811126C0EC
:101AF00089E20E94412F0E94E52A8091F0048770BC
:101B000009F456C3F8018581882309F451C38091F3
:101B10006E0282FF4DC382E00E941F2B49C360E525
:101B200070E089E30E94171DBFCFF9E32F12B4CFF5
:101B300060E570E089E30E94171DB9CF85E3D9CF36
:101B400026319CE7390709F4E8C280919603827236
:101B5000F901E052F847E531F10508F054C0E559C4
:101B6000FF4F0C9437359091B10381E08927809322
:101B7000B10310921A0180911004816080931004C7
:101B8000BCCF44E955E26FE975E204C04FE955E284
:101B900064E975E20E94B424B0CF45E655E260E7FF
:101BA00075E2F8CF40E755E265E675E2F3CF49E428
:101BB00055E267E575E2EECF47E555E269E475E287
:101BC000E9CF4DE255E26BE375E2E4CF4BE355E23A
:101BD0006DE275E2DFCF46E852E264E972E2DACF05
:101BE00044E952E266E872E2D5CF61E081E008C0E4
:101BF00061E085E005C061E08DE002C061E082E166
:101C00000E947B257ACF2737FCE73F0711F481E05C
:101C100004C028373C47C9F482E00E94E61A43E03A
:101C200062E081E00E94C41A68CF2330FCE73F07DE
:101C300009F4AAC208F08AC221159CE7390709F401
:101C400093C221303C4709F4A5C2F8018581E080A8
:101C5000F180882349F0C7010E949C18D82E682F74
:101C6000C7010E94A71A04C0C7010E948E1AD82E6D
:101C7000B7018D2D0E94FF280E941F29D82EF92E12
:101C8000A82EF801E580C680C2943FE0C32280916F
:101C9000F004877001F1EE20F1F0892F807F80340D
:101CA00069F080E28D0D8830B0F0892F807E80321F
:101CB00029F4F1E0FD1578F4CC2069F080916E02F2
:101CC00082FF09C082E00E941F2B8091F004877080
:101CD000BB24B3948111B12C9F2C92942FE09222BB
:101CE000892D90E08C30910508F0EFC1FC01E0589F
:101CF000FF4F0C9437358F2D807F9F2D9F70F92ECD
:101D0000882319F0F29490EFF922EE20B9F0FF2029
:101D100009F4C9C180E28D0D883010F0A11006C011
:101D200090919603F92AF092960305C09091F204DF
:101D3000F92AF092F2040E94E52AB5C18D2D0E9485
:101D4000241CFF2009F4C1C180E28D0D8830A0F170
:101D5000AA2091F1F0949091F204F922F092F20409
:101D60002EC08F2D807F9F2D9F70F92E803219F00D
:101D7000F29480EFF8228D2DAA2029F021E0A216FE
:101D800009F44DC058C080916E0282FD1BC0EE2048
:101D900069F0FF2039F090919603F92AF0929603AA
:101DA0000E94E52A80E00E947E1C8FC180E00E9494
:101DB000241CFF2009F489C18F2D0E94DE2A0E9475
:101DC000E52A83C1EE2089F0CC2009F43EC031E041
:101DD000C3127BC19091F1048F2D8923F81609F469
:101DE00074C1F92AF092F10470C1C1106EC18F2D37
:101DF0000E94271B8091F1049F2D982329F09F2D8D
:101E0000909589238093F10480918C029F2D9823D3
:101E100009F45BC1F0948F2180938C0256C1EE20AF
:101E200029F085E08C1508F450C10FC094E09C1592
:101E300008F44BC11BC0EE2061F0CC2031F0F8015A
:101E4000868180FF30C18F7086838F2D0E942E1B6C
:101E50003CC1CC2059F0893309F034C1FFEF27EEA3
:101E600033E0F15020403040E1F72AC18F2D0E942D
:101E7000271B2BC18F2D86958695837019F0813095
:101E800061F023C1EE2021F08D2D9F2D937002C0B3
:101E900080E090E00E947F2F1EC1EE2021F08D2D6A
:101EA0009F2D937002C080E090E00E945A2F13C1D2
:101EB0006E2D8D2D0E94381B0EC18F2D8370B1F5B4
:101EC000E11007C14D2D429546954770440F440FD0
:101ED0008D2D8F7090E09C01042E01C0220F0A947A
:101EE000EAF7D4FE08C08FE090E001C0880F4A9561
:101EF000EAF7809501C080E04F2D469546954370E6
:101F0000423069F088F49091FB04413019F0822B43
:101F1000892302C0922B892B0E94FF1ADAC0822BE0
:101F20009091FB048927F8CF822BF6CFEE2019F091
:101F30008F2D817001C08695882309F4CAC04D2D6C
:101F4000429546954770440F440F8D2D8F7090E059
:101F50009C01042E01C0220F0A94EAF7D4FE08C0A7
:101F60008FE090E001C0880F4A95EAF7809501C0A4
:101F700080E04F2D469546954370423059F078F4F5
:101F800090916C02413019F0822B892309C0922B69
:101F9000892B06C0822B90916C02892701C0822B6D
:101FA0000E94C11A96C08F2D8F70F82EEE2031F04E
:101FB0000E94F31A8D2D0E942E1B8BC08D2D0E9426
:101FC000271B8F2D0E94E61A84C08D2D92EFA91633
:101FD00081F19A1538F0E0EFAE1659F0F1EFAF1637
:101FE00019F15DC023EFA21659F134EFA316C1F029
:101FF00056C0EE2081F084E08C1508F466C02F2DC9
:102000002F7181E090E001C0880F2A95EAF7909146
:102010006C02892720C095E09C1508F456C0EFCFCC
:1020200080916E0282FD1AC0EE2029F08F2D8F71F3
:1020300029C0EE20D9F38F2D8F710E94E61A45C07A
:10204000EE2041F09F2D9F7181E001C0880F9A958D
:10205000EAF701C080E00E94C11A37C0EE20A9F063
:10206000EF2DEF71FE2E8E2F0E94F31A80916E02DB
:1020700082FF07C0F8E0FF9EC001112483608093B7
:10208000F0048F2D0E94F31A20C081E00E941F2BC4
:1020900021E02C15D0F482E00E941F2B16C0EE2008
:1020A00021F0CC2019F28D2D7ECECC2021F2893367
:1020B00049F43FEF87EE93E0315080409040E1F7E4
:1020C00000C000008D2D0E94241C88EF890D8430F3
:1020D00010F40E94A42FBB20A9F08091F00480FD91
:1020E00011C0F80115828695869586950E94F31A8F
:1020F000C8010E94080C8091F0048695869586950B
:102100000E94E61A20E0F8014081518162817381CA
:10211000848195810E94390B4BC080918B02811183
:1021200004C089E20E94352FE6CC85E3FBCF273738
:10213000ECE73E0711F481E006C02837FCE73F07D3
:1021400009F073CD82E00E94F31A69CD2B35FCE7CC
:102150003F0751F12C358CE73807F1F02A353C4721
:1021600009F073CD81E021C0109296030E94021BFA
:10217000EFEFF4E32CE0E150F0402040E1F700C045
:1021800000000E94AE2EB9CC6FEF7FEF80E090E0B0
:102190000E94A6340E945E0B80916E0282FB88270B
:1021A00080F991E0892701C080E00E94362B4DCD57
:1021B0002896E2E10C946035A3E0B0E0E2EEF0E1B5
:1021C0000C944435782E8091190187110DC020910F
:1021D000B103237030E04091180150E081E02417F2
:1021E000350719F480E001C081E081708093170108
:1021F0008091B60390911601981739F080931601DB
:1022000040E060E080E00E94823286E1781244C0C3
:1022100085E890E30E94741E07C046E074124AC12C
:102220008DE891E30E94301E898321C0A71508F430
:1022300047C1B1E07B1289C0809115010E94AB2596
:102240009A8389836091B2037091B3038091B40340
:102250000E947433162F072FF82E4A815981541784
:1022600008F4ABC081E08983403308F0A4C08091BA
:1022700015018F5F809315015981511104C782E0C8
:1022800080931A01809117018111FDC67110FBC660
:1022900083E080931A01F7C6871508F4B3C19AE06A
:1022A00079120EC08CE292E308C0A71508F47EC133
:1022B000BBE07B1275C180E192E30E94C41EB4CFE3
:1022C000971508F45FC1A4E07A12B0CF8091150190
:1022D0000E94AB259A8389830091B303D090B40305
:1022E0002091B50310E4129F112D1124EA81F98188
:1022F000FE1708F051C0A981EA2EF12CF701E15137
:10230000FE4F9081809116018923D9F0F701EE0FDD
:10231000FF1FE157FE4F6081169FB0011124B5E009
:1023200075956795BA95E1F78091B203680F702FA4
:102330008D2D0E947433462F282F672FC7010E94CE
:102340008532B981BF5FB983D1CF7B1658F1E2E006
:102350007E1262C0809115010E94AB259A83898309
:102360000091B3031091B403F090B2036F2D702F5E
:10237000812F0E947433E62ED72EC82E6091B503AC
:102380006F0D702F812F0E947433162F072FF82E98
:10239000EA81F981FE1730F121E02983E03308F466
:1023A00066CF09C080911701882329F040E060E0E2
:1023B00080E00E94823219825ACF2981E22FF0E018
:1023C000DF01A151BE4F8C9190911601982331F0FD
:1023D0002F2D412F602FCF010E94853239813F5F21
:1023E00039833BCFA9818A2F90E0FC01E151FE4F58
:1023F000308120911601232359F030FF04C02F2D86
:10240000412F602F03C02C2D4E2D6D2D0E94853243
:10241000B981BF5FB983BCCFF3E07F124BC080911D
:1024200015010E94AB259A8389830091B303D09054
:10243000B4032091B50310E4129F112D11245A8189
:102440008981851730F53981E32EF12CF701E151AF
:10245000FE4F9081809116018923B9F0F701EE0FAC
:10246000FF1FE95AFE4F81AD82958F706091B203D4
:10247000819F600D1124702F8D2D0E947433462F83
:10248000282F672FC7010E94853249814F5F4983FA
:10249000D6CF91E09983503308F4E9CE8CCFE7157D
:1024A00008F410C2F7E17F1609F482C128E1721620
:1024B00009F4C3C1809115018F5F80931501DFCEB0
:1024C00027E0721203C081E691E3ACCE271508F431
:1024D0004BC035E07312A1CE809115010E94AB254F
:1024E0009A8389830091B2031091B303F090B403EF
:1024F0006091B5036695669566958091AD03909160
:10250000AE030E9457330E94A332805887FD819505
:10251000880F382F4F2D349F312D1124832FB80170
:102520000E947433162F072FF82E9A81A981A917BC
:10253000A8F45981E52FF0E0DF01A151BE4F8C9145
:1025400090911601982331F02F2D412F602FCF014C
:102550000E94853289818F5F8983E7CFB1E0B9839B
:10256000903308F484CE27CF58E0751203C085E677
:1025700092E305C089E078129DCF87E492E30E9440
:102580002B1F52CE90E1791203C083E291E395CEE6
:102590009715C0F0ADE07A1288CE86E591E342CE81
:1025A000ECE07E1287CF8FE591E33CCEFEE07F1218
:1025B00003C08DE491E336CE2FE072127BCF82E32D
:1025C00091E330CE33E1731203C08BEE91E375CE0D
:1025D000371560F041E1741203C08EE293E3CFCF70
:1025E00052E1751267CF8FEF91E3C9CF84E1781282
:1025F00003C085EF90E30ECE95E179125BCF83ECBB
:1026000090E308CEA2E27A1205C087E690E30E942A
:10261000C61D0ACEA71508F494C4BCE17B1279C08C
:10262000809115010E94AB25192F4091AD03509167
:10263000AE036091AF037091B00380918D029091D1
:102640008E02A0918F02B091900284179507A60781
:10265000B70708F058C00E94E832F0E38F9FC0012E
:102660001124292F332727FD3A953B832A83F9012B
:10267000E151FE4F908180911601892309F443C0F6
:102680000E94E83281FD0EC00E94E832082F0E94AD
:10269000E83230E8839FC00111247FE7790F8091F1
:1026A000B40303C080E070E000E0602F0E94743348
:1026B000462F282F672F8A819B810E948532209187
:1026C000B50330E1230F08F42FEF60E1822F90E093
:1026D0000E945733BC0184EF91E00E940F35809136
:1026E000AD039091AE03A091AF03B091B003860FFC
:1026F000971FA11DB11D80938D0290938E02A09310
:102700008F02B093900241E04983103308F4AFCDBB
:1027100052CEB71508F4E2C0E9E17E12C0CE809136
:1027200015010E94AB259A8389830091B303109110
:10273000B403F090B2036091B50366956695669513
:102740008091AD039091AE030E9457330E94A33253
:10275000805887FD8195880F682F2CE0629F612D3E
:1027600011246F0D702F812F0E947433162F072FA5
:10277000F82EAA81B981BA17A8F48981E82FF0E070
:10278000DF01A151BE4F8C9190911601982331F039
:102790002F2D412F602FCF010E94853299819F5F9D
:1027A0009983E7CFE1E0E983A03308F460CD03CE5D
:1027B000809115010E94AB25192F9091170191115D
:1027C00021C06091B50320E1620F08F46FEF8091A2
:1027D000AD039091AE030E9457336AE070E00E940F
:1027E0000F35892B39F50E94E832E0E38E9F900186
:1027F000112460911601832F932F990F990B0E943A
:10280000DF2418C0282F30E03B832A83E12EF12CEF
:102810008A819B818E159F056CF4609116018A81D7
:102820009B810E94DF244A815B814F5F5F4F5B8306
:102830004A83EECF91E0998368CF809115010E9481
:10284000AB25192F90911701911121C06091B5030B
:1028500020E1620F08F46FEF8091AD039091AE0319
:102860000E94573365E070E00E940F35892B39F5DF
:102870000E94E832A0E38A9F900111246091160122
:10288000832F932F990F990B0E94BB2418C0E82F18
:10289000F0E0FB83EA83E12EF12C4A815B814E1547
:1028A0005F056CF4609116018A819B810E94BB24B4
:1028B0002A813B812F5F3F4F3B832A83EECF51E03C
:1028C000598323CF3AE1731203C084EC92E3AACC7C
:1028D0004BE17412EFCD84E790E3A4CC5FE1751275
:1028E000A4C0809115010E94AB25282E492E80910D
:1028F0001701882361F040E060E080E00E948232AE
:1029000088E3E6E4F3E0DF011D928A95E9F7809120
:102910001501811115C080914203909143030E94DB
:10292000E52E21E08931910508F420E02093410350
:10293000499730F00E94002F909343038093420305
:1029400077E5C72E71E0D72EE6E4EE2EE3E0FE2E0B
:10295000F7E78F2EF3E09F2E512CAAEA3A2E00E0E3
:1029600010E0F601E00FF11FB081B983B21508F451
:1029700042C0B41508F03FC05394EB2FF0E0FB8346
:10298000EA83E151FE4F908180911601892309F479
:1029900032C05701A00EB11ED5016C90362D25E531
:1029A000321B08F430E07091B303232D462D240F21
:1029B00008F42FEF4091B40352E0259F200D11241D
:1029C0002E5F249F212D1124632D631B822F0E94D3
:1029D0007433462F282F672F8A819B810E9485326E
:1029E00080914103882339F0262D31E0231B08F420
:1029F00020E0D5012C930F5F1F4F0730110509F020
:102A0000B0CF8E149F0451F0B7E0CB0ED11CE7E09D
:102A1000EE0EF11CF9E0F51508F0A1CF21E02983B5
:102A20003FE2341508F023CCC6CC571508F4B7C1E3
:102A30008DE17812E7C0409121035091220360910B
:102A40002303709124038091AD039091AE03A09174
:102A5000AF03B091B00384179507A607B70708F432
:102A6000AACC80911701811107C0809115010E94A5
:102A7000AB25092F898359C040E060E080E00E94C7
:102A8000823201E912E01B821A820E94E83281FF41
:102A900008C0D8011C9211961C92119712961C9294
:102AA00020C00E94E832D82E0E94E832B0E88B9F06
:102AB000C00111247FE7790FEA80FB80EE0CFF1C38
:102AC0008A819B818E0D9F1DFC01EF56FD4F7F017A
:102AD0006D2D8091B4030E947433D7016D937D9363
:102AE0008C93EA81FB813196FB83EA830D5F1F4F54
:102AF000F09759F6BACFF9818F2F90E0FC01E151A0
:102B0000FE4F308120911601232361F0FC01EE0F6E
:102B1000FF1FE80FF91FEF56FD4F228140816181B1
:102B20000E94853229812F5F29833981301718F35C
:102B300041E04983003308F01982003308F497CB51
:102B400020E010E001501109822F90E080179107DA
:102B5000C4F4DC01AA0FBB1FA80FB91FAF56BD4FAD
:102B60000196FC01EE0FFF1F8E0F9F1FFC01EF5619
:102B7000FD4FC080D180E280CD92DD92EC922F5F3C
:102B8000E3CF0E94E8327801EE0CFF1C81FF09C000
:102B90000E0D1F1DF801EF56FD4F1082118212829B
:102BA00018C00E94E8328A830E94E83250E8859F6C
:102BB000C00111247FE7790F0E0D1F1D0F561D4F09
:102BC0006A818091B4030E947433D8016D937D9320
:102BD0008C930E9461330091AD031091AE0320915C
:102BE000AF033091B003DC01CB01800F911FA21F16
:102BF000B31F8093210390932203A0932303B093E8
:102C0000240335CB9EE1791255CC8091170188239E
:102C100029F040E060E080E00E948232809115015E
:102C20000E94AB25692E4091AD035091AE03609197
:102C3000AF037091B00380913D0390913E03A0914A
:102C40003F03B091400384179507A607B70708F024
:102C50009FC06091B2037091B3038091B4030E944E
:102C60007433562E472E382E05E213E0E7E5F1E0E7
:102C7000FB83EA83BFE88B2EB1E09B2EAA80BB804A
:102C800065017801212CD7018C91F601882371F020
:102C90008081232D452D642D90E00E948532D50141
:102CA00016968C91232D452D642D0DC0808120E03A
:102CB00040E060E090E00E948532D50116968C914C
:102CC00020E040E060E090E00E948532F7018181E1
:102CD000D7018D937D012394BFEFCB1ADB0AE1E08E
:102CE000AE1AB108F2E02F12CECFD80112968C9115
:102CF000EA81FB81882379F08281232D452D642D83
:102D000090E00E948532AA81BB8114968C91232D7C
:102D1000452D642D0EC0828120E040E060E090E00F
:102D20000E948532AA81BB8114968C9120E040E0FC
:102D300060E090E00E9485320E94E832837091E06A
:102D400009F090E0F80192830D5F1F4F2A813B81CB
:102D5000295F3F4F3B832A838216930609F08ECF6B
:102D60000E9461330091AD031091AE032091AF0337
:102D70003091B003DC01CB01800F911FA21FB31F64
:102D800080933D0390933E03A0933F03B093400391
:102D900031E039834FE2461508F069CA0CCBA0E256
:102DA0007A12C9C06090B40383E0689EA001112428
:102DB00056954795569547955B834A839A819983A3
:102DC000862C912C8FEF90E0B4010E942335362E93
:102DD00080911701882371F040E060E080E00E945C
:102DE000823288E3E6E4F3E0DF011D928A95E9F799
:102DF00010924503809144038F5F8093440337E52D
:102E0000A32E31E0B32E4DE4442E43E0542E56E47D
:102E1000E52E53E0F52EEA81FB818E1A9F0A870189
:102E20006501212C21100CC080914503811108C03F
:102E30000E944A34853595401CF4D7016C920CC031
:102E4000F8018081882341F0861530F49091440385
:102E5000391202C081508083D601EC91EF3F29F1F5
:102E6000D8012C91F0E0B981B21790F430E04A819A
:102E70005B81241B350B249FC001259F900D349F3F
:102E8000900D1124B4010E940F35262F462D0AC043
:102E9000629EC00111246A817B810E940F35462FFA
:102EA00020E060E0CF010E948532239457E0C50EF8
:102EB000D11C095F1F4F88E02812B4CF9FEFE91A99
:102EC000F90AAFEFAA1ABA0A4E145F0409F0A7CFA5
:102ED00080914403381202C010924403809145034C
:102EE0008F5F8D3118F48093450365CA10924503B6
:102EF00020E733E087E04FEF460DA6E4B3E0F901A9
:102F000097E0873041F4D1965C91D197651203C068
:102F1000D1964C93D1975081561510F0408367821B
:102F20009150319611969111ECCF81502750310973
:102F30008111E3CF40CAB1E27B12BCCA8DE690E3B7
:102F400066CBE8E27E120CC064EE7FE205C034E29C
:102F50007312B0CA6EE470E380E00E942F1D64C952
:102F6000E71508F432C0F5E27F120BC08091B90377
:102F700021E0482F421B08F440E0842F66E170E313
:102F8000ECCFF71570F023E27212E1CF8091B90314
:102F900021E0382F321B08F430E0832F6EE470E319
:102FA000DCCF46E2741203C066E170E3D5CF57E28E
:102FB000751280CA8091B90321E0582F521B08F482
:102FC00050E0852F64EE7FE2C8CF8BE278120BC011
:102FD0008091B90321E0482F421B08F440E0842F80
:102FE00066EB7FE2BACF8715A0F099E279120BC0A9
:102FF0008091B90321E0382F321B08F430E0832F91
:103000006CEC7FE2AACFAAE27A1254CA6CEC7FE29F
:10301000A3CFBCE27B1203C066EB7FE29DCFEFEF54
:103020007E1248CA8091AD039091AE03A091AF0388
:10303000B091B00388279C70AA27BB272AE0B695D9
:10304000A795979587952A95D1F782309105A10587
:10305000B10571F083309105A105B10569F040E03B
:103060000197A105B10511F060E008C064E102C05C
:1030700044E160E080E003C044E164E184E10E9457
:10308000823282E006C92396E2E10C9460359B010E
:10309000782F777043E0969587954A95E1F7FC0184
:1030A000EE0FFF1F8E0F9F1FF901E80FF91F40E081
:1030B00050E080E0219130E0072E02C03695279540
:1030C0000A94E2F721703327042E01C0220F0A94DC
:1030D000EAF7822B4F5F5F4F4330510559F7089550
:1030E000962F9770A1E001C0AA0F9A95EAF793E096
:1030F000769567959A95E1F7FB01EE0FFF1F6E0F2E
:103100007F1FFA01E60FF71F40E050E0682F70E0E4
:1031100090819B01042E02C0369527950A94E2F710
:103120002170219529272A23292721934F5F5F4F5B
:103130004330510569F70895CF92DF92FF920F93C4
:103140001F93CF93DF936C0100916C028091FB047D
:10315000082BC3E0D0E010E0C8010C2E02C095950A
:1031600087950A94E2F780FD04C02197A8F7F12C17
:1031700009C0FC2EB6018C2F0E94FF280E941F2937
:10318000019799F38F2DDF91CF911F910F91FF90B0
:10319000DF90CF900895CF93DF93EC010E949C18AD
:1031A000BE010E94FF280E941F29DF91CF91089540
:1031B000FC0124812223D9F0808191810E94CB18C7
:1031C00092959F70963079F010F4925001C09A5009
:1031D000923068F4803F69F018F4883E40F409C0EA
:1031E000843F29F406C0883E20F0813F11F080E042
:1031F000089581E00895A4E1B0E0E1E0F9E10C94E4
:103200004A358C0186E0F801DE011F9601900D928F
:103210008A95E1F7D80114968C9114971596EC9045
:103220009FEA892E94E0992E9091B304911120C0C9
:10323000882309F46CC1EE2009F442C0C8010E9441
:10324000D818F82E8823E1F187E0F801D401019025
:103250000D928A95E1F78091B304813031F4809129
:10326000AF049091B0040E94CB180E94772B51C1FB
:10327000F801D080C180A280B380F090B404209186
:10328000B1043091B204FF2009F4F0C0A501421B43
:10329000530B483C510508F0A6C0882309F439C1F6
:1032A0008091B504282F207F9091B004222361F0F3
:1032B0009C1509F469C0C8010E94D81881116CC01E
:1032C000C8010E94080C23C19C1114C09091AF0446
:1032D0009D1110C0E1100EC08F7080618093B50405
:1032E0008FEA94E00E94080C8091B504D8011696EC
:1032F0008C930BC1E1103AC040E06C2D8D2D0E94E3
:103300004D2B40E06C2D8D2D0E944D2BE82E811110
:10331000FCC0DF86C88A8F8598890E94CB18292F28
:1033200022952F70243020F49F70223028F009C09D
:103330002A50223080F014C0992349F0811107C02F
:1033400013C0992321F0F8019681907F69F0805E87
:10335000883030F409C0803F38F0815F833020F03E
:10336000C8010E94080CEF2CFE2CD3C08091B5043C
:1033700081608093B5048FEA94E00E94080CEFEA24
:10338000F4E087E0DF013AC09091AF049D1193CF44
:10339000E11091CFF80198C0EE2009F491CF20916F
:1033A000B504822F82958F7090E002978CF0809107
:1033B000AF049091B00499878887BB86AA868091D4
:1033C000B3048C871D862E87CE0108960E94080CB8
:1033D00087E0F801AFEAB4E001900D928A95E1F739
:1033E0000E94772B94C09091B504292F207F51F42F
:1033F0008FEA94E00E94080C87E0D4011D928A9520
:10340000E9F783C0882309F484C08091B0048C114B
:103410000CC08091AF048D1108C0E11006C0F80106
:103420009683C8010E94080C6AC0C8010E94D8187F
:10343000882309F445CFEE2009F442CF2091B5044A
:10344000822F82958F7090E0029714F28091AF04E2
:103450009091B0049A838983BC82AB828091B3043B
:103460008D831E822F83CE010196B0CFA21AB30A9C
:10347000B8ECAB16B10408F042C0882309F447C089
:10348000FE2CEE2009F41CCF8091B0048C1129C0D1
:103490008091AF048D1125C09091B50490FD18C0A6
:1034A000892F82958F70282F30E02115310581F00A
:1034B000F80196832F30310541F08F5F982F929558
:1034C000907F86818F70892B8683C8010E94080CAB
:1034D00087E0F801AFEAB4E001900D928A95E1F738
:1034E00018C0C8010E94D818811172CF8091B5040C
:1034F00081608093B504C8010E94080C0AC087E06F
:10350000D4011D928A95E9F704C0F12C02C0FF2472
:10351000F3948F2D6496ECE00C946635292F983047
:1035200058F4873048F490E061E873E037E0239F77
:10353000800D911D112406C02C5F223030F46EE7FF
:1035400073E090E00E944718089580E00895282FC6
:10355000862F983060F4273050F4622F70E027E017
:10356000929F600D711D112441E853E007C09C5FDC
:10357000923030F4622F70E04EE753E00E947018F2
:10358000089580936C02089590916C0221E030E0E0
:10359000F90101C0EE0F8A95EAF7D90102C0AA0F1E
:1035A000BB1F6A95E2F7BD016E2B01C0220F4A9541
:1035B000EAF7892F8623681303C0892F822B03C063
:1035C0002095822F89230E94C11A089521E030E0BE
:1035D00001C0220F8A95EAF7209580916C02822320
:1035E0000E94C11A089521E030E001C0220F8A959F
:1035F000EAF780916C02822B0E94C11A0895809391
:10360000FB040895CF93C6E0E5E0F5E0DF018C2FE1
:103610001D928A95E9F780E090E00E947F2F80E07C
:1036200090E00E945A2F1092F2040E94E52AE9EAE3
:10363000F4E0DF011D92CA95E9F71092A2041092FE
:10364000A3041092A4040E940623CF910895882316
:1036500021F00E94DE2A0E94E52A0895882339F08D
:1036600090919603892B809396030E94E52A0895F2
:103670009091AB04662309F470C091110CC0909135
:10368000AC04911108C09091AE04911104C09091C6
:10369000AD04992331F098E09093A20491E09093C7
:1036A000A3048D3C21F40E945223819504C08E3CDA
:1036B00029F40E9452238093AC04C3C08F3C21F4B0
:1036C0000E945223819504C0803D29F40E94522318
:1036D0008093AB04B6C0893D19F40E94302305C025
:1036E0008A3D31F40E94302381958093AD04A9C0B6
:1036F0008B3D21F40E943023819504C08C3D29F438
:103700000E9430238093AE049CC09FE2980F9830B3
:1037100078F421E030E0A90102C0440F551F9A95CA
:10372000E2F7CA019091AA04892B8093AA0489C068
:103730008D3D21F48091A40481600CC08E3D21F464
:103740008091A404826006C08F3D09F07AC0809108
:10375000A40484608093A40474C08D3C39F49091D7
:10376000AC0497FF33C01092AC0457C08E3C29F4D0
:103770009091AC041916BCF329C08F3C29F497FF33
:1037800025C01092AB0449C0803D19F41916CCF342
:103790001DC09091AD04893D29F41916BCF4109216
:1037A000AD043BC08A3D19F497FF10C0F8CF8B3DA4
:1037B00039F49091AE0497FF09C01092AE042DC069
:1037C0008C3D21F49091AE041916BCF39FE2980F42
:1037D000983080F421E030E0A90102C0440F551F69
:1037E0009A95E2F7CA0180959091AA048923809363
:1037F000AA0413C08D3D21F48091A4048E7F0BC0D8
:103800008E3D21F48091A4048D7F05C08F3D29F465
:103810008091A4048B7F8093A4048091AB048111D8
:1038200006C08091AC04811102C01092A204809164
:10383000AD04811106C08091AE04811102C01092C6
:10384000A3040E9406230895882309F456C08238F1
:1038500059F40E94A42F81FF50C089E30E94412F98
:103860000E94E52A89E30CC0833879F40E94A42FD2
:1038700080FF43C083E50E94412F0E94E52A83E533
:103880000E94352F0E94E52A0895843859F40E9439
:10389000A42F82FF32C087E40E94412F0E94E52AB4
:1038A00087E4EECF9CEF980F913A50F390E2980F97
:1038B000983050F4877091E001C0990F8A95EAF72B
:1038C000892F0E94DE2ADECF9BE5980F933028F4E3
:1038D00080E090E00E947F2F089598E5980F9B313B
:1038E00028F480E090E00E945A2F089593E3980F07
:1038F000933118F460E00E94381B0895CF93882319
:1039000009F493C0C82F8238A1F40E94A42F81FD2E
:103910008CC089E30E94412F0E94E52A2FEF87EE99
:1039200093E0215080409040E1F700C0000089E31F
:1039300015C08338C1F40E94A42F80FD76C083E5B2
:103940000E94412F0E94E52A2FEF81EE94E0215042
:1039500080409040E1F700C0000083E50E94352FD1
:103960000E94E52A62C08438A1F40E94A42F82FD3F
:103970005CC087E40E94412F0E94E52A2FEF81EE70
:1039800094E0215080409040E1F700C0000087E4BF
:10399000E5CF8CEF8C0F813A70F4E5E0F5E08BE039
:1039A00095E02191C217D9F18E179F07D1F78C2F7F
:1039B0000E94412FD5CF80E28C0F883068F4C77009
:1039C00081E090E001C0880FCA95EAF790919603D4
:1039D000892B80939603C4CFEBE5EC0FE33040F4E2
:1039E000F0E0E15EFD4F808190E00E947F2F1DC0DE
:1039F000E8E5EC0FEB3150F4F0E0EE0FFF1FEE5D69
:103A0000FD4F808191810E945A2F0FC083E38C0F5C
:103A1000833158F461E08C2F0E94381B06C08C2F34
:103A20000E94352F0E94E52AC2CFCF9108951F939F
:103A3000CF93DF93182FEB010E947E1C209741F05B
:103A40008FE99FE00197F1F700C000002197F6CFC2
:103A5000812F0E94241CDF91CF911F910895A7E030
:103A6000B0E0E5E3FDE10C944435282E4B01809154
:103A700015010E94AB25392E8F832091B90329832C
:103A80009F81931508F079C03F81632E712CF3015B
:103A9000E151FE4F908180911601892309F469C09C
:103AA0004090B2035090B303122D1E82C301880FC1
:103AB000991FDC01A157BE4FBB83AA83C301880FA6
:103AC000991FFC01E057FE4FFD83EC83F9811F171E
:103AD00008F03EC0E12EF12CAA81BB81CC90D12C04
:103AE000F701E754FC4F8181C81AD108AC81BD8130
:103AF000AC90B12C8185A81AB108CC9C9001CD9CCA
:103B0000300D300D1124AA9CC001AB9C900D900D7E
:103B10001124820F931F0E94FD32082F6091B5037C
:103B200021E0620F08F46FEFF701EE0FFF1FE7547B
:103B3000FC4F818D928D0E9457337C019501A60127
:103B4000B2018E81F40109952B018E831F5FBECFD8
:103B50002091B4038E81382F329F312D1124832F71
:103B6000B2010E947433462F282F672FC3010E9491
:103B700085328F818F5F8F8383CF81E0AFE2A31582
:103B800008F480E02796E2E10C946035A0E0B0E014
:103B9000ECECFDE10C944E35EC01809115010E9496
:103BA000AB25092F182F2091B50331E0230F08F41E
:103BB0002FEF30E040E050E06FEF7FEF80E090E0EB
:103BC0000E94AC347901101708F041C0C12ED12CED
:103BD000F601E151FE4F9081809116018923A9F1F0
:103BE0009091B903915097FD15C0492F092E000CF3
:103BF000550BFA01E754FC4F81891813F3CF440F9A
:103C0000551FFA01E754FC4F218D328D2E153F05CB
:103C100048F701C097016091B50341E0640F08F4D3
:103C20006FEFC9010E945733AC016091B2037091EC
:103C3000B3038091B403FE0109950E947433462FAB
:103C4000282F672FC6010E9485321F5FBCCF81E0FD
:103C5000003308F080E0CDB7DEB7E8E00C946A35B9
:103C6000A0E0B0E0E6E3FEE10C944F358C018091DA
:103C700015010E94AB25EC016091B5036695669530
:103C800021E0620F08F46FEF8091AD039091AE03D5
:103C90000E945733D82ECD17F0F4EC2EF12CF701FB
:103CA000E151FE4F908180911601892391F060913E
:103CB000B2037091B3038091B4032D2D4C2FF80102
:103CC00009950E947433462F282F672FC7010E9441
:103CD0008532CF5FE0CF81E0D03308F080E0CDB710
:103CE000DEB7E7E00C946B35A0E0B0E0EAE7FEE178
:103CF0000C944B356C01809115010E94AB25192F56
:103D0000C82F6091B503669566958091AD0390913B
:103D1000AE030E945733D82F80E48D0F0E94A33248
:103D200090E8F92EF80E8D2F0E94A33220E8922EF3
:103D3000980EC11700F5AC2EB12CF501E151FE4FE4
:103D40009081809116018923A1F06091B203709156
:103D5000B3038091B403ED2E0C2F292D4F2DF601C6
:103D600009950E947433462F282F672FC5010E94A2
:103D70008532CF5FDECF81E0103308F080E0CDB731
:103D8000DEB7EBE00C946735A0E0B0E0EAECFEE1D2
:103D90000C9449355C01809115010E94AB25F92EE8
:103DA000182F6091B50366958091AD039091AE0395
:103DB0000E945733782E1F1508F043C0812E912C96
:103DC000F401E151FE4F9081809116018923B9F1F0
:103DD000F401EE0FFF1FE157FE4FC081D0E0C05746
:103DE000D109F401EE0FFF1FE95AFE4FC1ACD12CEF
:103DF00080E2C81AD108CC9F9001CD9F300D300DC4
:103E00001124CC9CC001CD9C900D900D1124820FEB
:103E1000931F0E94FD32082F6091B2037091B3038B
:103E20008091B403E72C9601AE01F50109950E943B
:103E30007433462F282F672FC4010E9485321F5FDD
:103E4000BACF81E0FFE2FF1508F480E0CDB7DEB71E
:103E5000EDE00C946535A0E0B0E0E1E3FFE10C9407
:103E60004E357C01809115010E94AB25D92E182F6B
:103E70006091B50366958091AD039091AE030E9469
:103E80005733C82E1D1578F5C12FD0E0FE01E15142
:103E9000FE4F908180911601892319F1FE01EE0FEA
:103EA000FF1FE95AFE4F21AD30E020523109FE01DB
:103EB000EE0FFF1FE157FE4F408150E04057510980
:103EC0006091B2037091B3038091B4030C2DF7019C
:103ED00009950E947433462F282F672FCE010E9428
:103EE00085321F5FCFCF81E0FFE2FD1508F480E04F
:103EF000CDB7DEB7E8E00C946A35AAE2B0E0E3E8BB
:103F0000FFE10C945335E5EAF3E08DEA93E020916C
:103F1000F10021938E179F07D1F78091A60383307C
:103F200009F463C030F4813071F0823009F49FC02D
:103F3000B6C08A3009F48BC08B3009F46EC089306A
:103F400009F0ADC020C08091A503813A09F0A7C057
:103F50008091E800877F8093E8008091A903909189
:103F6000AA03892B21F468E089E993E003C060E0AB
:103F700080E090E070E00E94F02D8091E8008B7767
:103F80008093E8008CC08091A503813209F087C03E
:103F90008091A9039091AA03009719F0029709F064
:103FA0007EC08091E800877F8093E8008091E800E0
:103FB00082FD05C08091A3038111F8CF70C02091CC
:103FC000F3008091F20090E0922B029731F48091FF
:103FD000F100813011F0863021F48091F10080935E
:103FE00098038091E8008B7756C08091A503813AB1
:103FF00009F055C08091A9039091AA03892B09F07B
:104000004EC08091E800877F8093E8008091E800AF
:1040100080FFFCCF8091140139C08091A5038132CB
:10402000F1F58091A9039091AA03892BC1F58091A4
:10403000E800877F8093E8000E946A2C8091A703A4
:1040400080931401109296030E94021B28C0809155
:10405000A503813221F58091E800877F8093E800F5
:104060000E946A2C8091A8038093970318C08091C6
:10407000A503813AA1F48091E800877F8093E8004E
:104080008091E80080FFFCCF809197038093F1003E
:104090008091E8008E778093E8000E946A2C8091DE
:1040A000E80083FFDFC18091A5039091A603492F0B
:1040B00050E04A30510508F0D5C1FA01E457FF4FEE
:1040C0000C943735803821F0823809F0CBC108C014
:1040D0008091A1039091A203992389F082600FC07F
:1040E0008091A9038F70873008F0BCC18093E900EC
:1040F0008091EB0085FB882780F91092E900909170
:10410000E800977F9093E8008093F1001092F1000F
:1041100070C1282F2D7F09F0A5C1882319F08230A6
:1041200061F0A0C18091A703813009F09BC1933059
:1041300009F080E08093A2032EC08091A703811133
:104140002AC08091A9038F702FEF280F263008F026
:1041500089C18093E9002091EB0020FF1CC09330BF
:1041600021F48091EB00806214C09091EB0090618B
:104170009093EB0021E030E0A90102C0440F551FED
:104180008A95E2F74093EA001092EA008091EB00F2
:1041900088608093EB001092E9008091E800877FAF
:1041A0008093E8000E946A2C5DC181115BC110916F
:1041B000A7031F778091E3008078812B8093E30031
:1041C0008091E800877F8093E8000E946A2C8091AC
:1041D000E80080FFFCCF8091E30080688093E300DB
:1041E000111102C082E001C083E08093A3033AC1B1
:1041F0008058823008F036C12091A7033091A8037F
:104200002C3D53E0350779F583E08A838AE2898380
:104210004FB7F894DE01139620E03EE051E2E32F21
:10422000F0E050935700E49120FF03C0E295EF7057
:104230003F5FEF708E2F90E0EA3010F0C79601C01C
:10424000C0968D939D932F5F243149F74FBF809186
:10425000E800877F8093E8006AE270E0CE01019673
:104260000E94F02DB4C08091A9039091AA03432F1E
:10427000552743305105A9F068F44130510509F440
:1042800000C14230510509F0EDC08BE590E0EDEB47
:10429000F2E04BC04132510529F14232510589F11A
:1042A000E1C0C901992781309105A1F058F002972A
:1042B00009F0D8C0EAE2F3E0E4918E2F90E0EAE260
:1042C000F3E030C0E4E7F3E0E4918E2F90E0E4E720
:1042D000F3E028C0E8E5F3E0E4918E2F90E0E8E514
:1042E000F3E020C08330910508F0BCC0880F991F0F
:1042F000FC01EF5AFE4F0190F081E02D89E090E043
:1043000014C08330910508F0ADC0FC01EE0FFF1F13
:10431000E55BFE4F0190F081E02DDC01A85BBE4F14
:104320008C9190E0009709F49DC02091E800277FD0
:104330002093E8002091AB033091AC032817390794
:1043400008F4C90140E0009789F12091A3032223DA
:1043500009F43DC02530D9F12091E80023FD37C094
:104360002091E80022FD2FC02091E80020FFEBCF34
:104370004091F3002091F20030E0342B009759F087
:104380002830310540F444914093F1003196019773
:104390002F5F3F4FF3CF41E02830310509F040E077
:1043A0002091E8002E772093E800CDCF4111CDCFAA
:1043B0000AC08091A303882351F0853041F0809199
:1043C000E80083FD04C08091E80082FFF2CF809175
:1043D000E8008B778093E80045C0803809F042C040
:1043E0008091E800877F8093E8008091A403809308
:1043F000F1008091E8008E77D3CE811133C0809197
:10440000A7039091A8039927029764F58091E8008B
:10441000877F8093E8001091A7031093A4030E9464
:104420006A2C111106C08091E30087FD02C081E073
:1044300001C084E08093A30342E061EC81E00E942C
:10444000892C42E261EC84E00E94892C42E261EC1A
:1044500082E00E94892C42E260EC83E00E94892C79
:104460008091A3038091E80083FF10C08091E80051
:10447000877F8093E8008091EB0080628093EB005F
:1044800005C082E190E0E8E1F3E04FCFAA96E3E0D7
:104490000C946F35FC01EE0FFF1FDF01A80FB91F51
:1044A000AE5EBB4F11963C911197361307C03C91FD
:1044B000341304C012963C91321759F031E0309316
:1044C00011048E0F9F1FFC01EE5EFB4F6183408342
:1044D00022830895FF920F931F93CF93DF93182F9A
:1044E000062FF42EC0E0D0E02F2D402F612FCE01FB
:1044F0000E944A222196C033D105B1F7CDB7DEB76D
:10450000E5E00C946D35109211040895E1EBF3E0B1
:10451000248130E1231B08F420E0248380911004DF
:104520008160809310040895E1EBF3E0248130E191
:10453000230F08F42FEF248380911004816080936F
:104540001004089580911104882339F1539A8BB196
:10455000877F9BB198602FB7F894E2E1F4E034E0F4
:10456000E23AF30789F0319148E09BB9000000C0BE
:1045700037FF8BB9330F000000C000C000C08BB9FB
:1045800000C04A9591F7EBCF2FBF8FE594E00197DC
:10459000F1F700C00000109211040895CF93C82FC6
:1045A000811102C06FEF01C064E285E290E00E94D9
:1045B0008834C11102C06FEF01C062E086E290E072
:1045C0000E948834C11102C06FEF01C062E187E22E
:1045D00090E00E948834CF91089585E290E00E9497
:1045E0006A34843281F486E290E00E946A34823038
:1045F00051F487E290E00E946A3491E0823109F040
:1046000090E0892F01C080E0817008950E94002F02
:104610002091AB04211104C02091AC04222321F08D
:104620009093A8048093A7042091AD04211104C0A5
:104630002091AE04222321F09093A6048093A50438
:10464000E0910D05F0910E05309749F082E08093DE
:10465000A9040680F781E02D89EA94E00995089580
:104660008091A40480FD16C081FD16C082FD18C093
:104670008091A304882391F0883290F428E0829FEF
:10468000C001112468E270E00E942335862F672B59
:1046900029F007C082E0089584E0089581E008953C
:1046A00088E008958091A40480FD14C081FD14C0A9
:1046B00082FD16C08091A204882381F08E3180F49F
:1046C00020E5829FC00111246EE170E00E94233535
:1046D000862F089584E1089588E2089588E008957A
:1046E00080E50895282F35EB2303C001112497FF9F
:1046F00003C08058910902C080589F4F892F0895A8
:10470000CF93DF93C9E1D2E060E0CE010E9488340C
:104710002196C11584E0D807B9F7DF91CF910895AC
:104720000F931F93CF93DF93843038F5633028F5D0
:1047300094E0699FE00111249CE0899FC00DD11D88
:104740001124C751DE4F411103C082E090E002C046
:1047500080E090E0632F022F142F8C0F9D1F0E948A
:104760008834111103C083E090E002C081E090E042
:10477000602F8C0F9D1F0E948834DF91CF911F9175
:104780000F910895FF920F931F93CF93DF9384307F
:1047900058F5633048F524E0629F800111243CE025
:1047A000839F000D111D112407511E4F411103C09D
:1047B00082E090E002C080E090E0F42E800F911F34
:1047C0000E946A3490E0D82FCC27F11003C083E018
:1047D00090E002C081E090E0800F911F0E946A3457
:1047E0009E01282BC90102C080E090E0CDB7DEB762
:1047F000E5E00C946D351F93CF93DF93962F8430B3
:10480000E8F46830D8F44730C8F4632F122FC42F6F
:10481000D0E0CC0FDD1F2EE0929FC00DD11D1124E2
:1048200090E7899FC00DD11D1124CE0189960E9469
:104830008834612FCE018A960E948834DF91CF910F
:104840001F910895A0E0B0E0E8E2F4E20C944A354C
:1048500098E3C92E95E0D92EE12CF12C912C812CD6
:1048600000E010E0C0E0D0E05701A00EB11EFE0154
:10487000EE0FFF1FEA0DFB1DE858FC4F2591349108
:104880004C2F682D892D0E94FB232196C730D1051E
:1048900071F7025F1F4F839488E08812E3CF86018F
:1048A000C0E0F8012591349141E06C2F892D0E94E0
:1048B0009023F80132962591349140E06C2F892D98
:1048C0000E9490230C5F1F4FCF5FC33051F78CE0E5
:1048D000C80ED11C939480E7E80EF11C84E0981276
:1048E000BECFCDB7DEB7ECE00C94663580E00E9419
:1048F000CE2260E070E0CB010E94B12F0E94222402
:104900000E94802381E00E94CE2208950F931F937E
:10491000CF93DF93843008F56830F8F44730E8F43B
:10492000C42FD0E0CC0FDD1F2EE0629FC00DD11D43
:10493000112430E7839FC00DD11D1124CE0189962B
:104940000E946A3490E0182F0027CE018A960E94B8
:104950006A349801282BC90102C080E090E0DF9101
:10496000CF911F910F910895882311F0FA0101C092
:10497000FB01099508951F93CF93DF93FC01E1514B
:10498000FE4F20816223B9F0EC010E94E832182F1B
:104990000E94E83220E8829FC00111247FE7790F4E
:1049A000612F8091B4030E947433462F282F672F04
:1049B000CE010E948532DF91CF911F910895A0E032
:1049C000B0E0E5EEF4E20C944F35EC01FC01E1516E
:1049D000FE4F9081692349F1D090B3030091B40355
:1049E0001091B203E12EF12C0E94E832282FC7016A
:1049F0008C549F4F68E671E00E9423358E199F0901
:104A000097FD039695958795959587952370612FCA
:104A1000289F600D11247D2D802F0E947433462F16
:104A2000282F672FCE010E948532CDB7DEB7E7E091
:104A30000C946B359091B103937071F08093B20335
:104A40006093B303493C08F048EC4093B403809171
:104A50001004282B209310040895E1EBF3E0438128
:104A600020E1421B08F440E0818121E0628190E076
:104A70000E941A250895E1EBF3E0438120E1420F03
:104A800008F44FEF818121E0628190E00E941A25B5
:104A90000895E1EBF3E0628120E1621B08F460E03D
:104AA000818121E0438190E00E941A250895E1EB85
:104AB000F3E0628120E1620F08F46FEF818121E071
:104AC000438190E00E941A250895E1EBF3E0818193
:104AD00090E021E04381628108970E941A250895A1
:104AE000E1EBF3E0818190E021E04381628108966F
:104AF0000E941A2508959091B1039370A1F081113D
:104B000002C0946007C08D3210F0906B03C0880F14
:104B1000880F982B9093B10310921A018091100482
:104B2000682B6093100408958091B1038695869553
:104B3000815009F48CE261E00E947B250895809108
:104B4000B103869586958F5F8D3208F081E061E034
:104B50000E947B250895880F982F990F990F890F30
:104B60009AE0980F913308F090E308954F925F9286
:104B70006F927F928F929F92AF92BF92CF92DF926D
:104B8000EF92FF92CF9380910B0490910C04A0912F
:104B90000D04B0910E042FB7F894C0901205D09078
:104BA0001305E0901405F09015052FBFC81AD90A17
:104BB000EA0AFB0A0E94F42E4B015C0160930B048D
:104BC00070930C0480930D0490930E04A091E20363
:104BD000E2EEF3E08A2F90E04FEF5FEF60E070E0ED
:104BE0004C195D096E097F09A91799F0218D328D45
:104BF0002901612C712C441555056605770510F4C3
:104C0000815004C02C0D3D1D328F218F9F5F329645
:104C1000EBCF8093E20380910F04811108C0C09113
:104C2000B1038C2F837019F0C695C69501C0C0E002
:104C300080911A018130D9F028F0823021F183303F
:104C400079F159C0109215018092AD039092AE0394
:104C5000A092AF03B092B00389E2E2EEF3E0A9EBD9
:104C6000B3E001900D928A95E1F781E016C08C2F98
:104C70000E94DC10CC2309F43EC0809115018150C4
:104C80000E94AB2538C0C09319018091B103837095
:104C9000809318010E94A22283E080931A012BC006
:104CA00080911004882351F048E050E068E170E002
:104CB00081EB93E00E947834109210044091AD0390
:104CC0005091AE036091AF037091B0032FB7F89489
:104CD0008091120590911305A0911405B0911505CE
:104CE0002FBF841B950BA60BB70B4097A105B105F1
:104CF00010F010921A01CF91FF90EF90DF90CF90BB
:104D0000BF90AF909F908F907F906F905F904F90EB
:104D1000089580E0089590916D0292FF10C041E0E7
:104D2000282F2471243009F040E031E0282F287129
:104D3000283009F030E0431711F02CE0822793FF70
:104D400010C041E0282F2471243109F040E031E007
:104D5000282F2871283109F030E0431711F02CE09A
:104D6000822730916E0230FF10C051E0282F217150
:104D7000213009F050E041E0282F2871283009F057
:104D800040E0541711F029E0822731FF10C041E0C4
:104D9000282F2171213109F040E031E0282F2871BE
:104DA000283109F030E0431711F029E0822794FD03
:104DB000877E08958238910569F1B0F481339105B9
:104DC00009F475C048F48932910509F467C08A3244
:104DD000910509F471C008958533910509F459C00E
:104DE00089339105B9F00895833E910589F138F42E
:104DF000803E9105D1F0823E910529F10895863ECD
:104E00009105C9F1873E9105D9F1843E910509F0DC
:104E10006CC027C020916D0220FD57C021FD55C0F8
:104E200020916E0223FD5BC0089580916D0280FD8C
:104E300048C080916E0280FF48C080916D0284FD61
:104E400046C083EE51C080916D0282FF3CC0F5CF19
:104E500080916D0282FD37C080916E0280FD35C069
:104E6000ECCF80916E0281FF36C080916D0284FD8F
:104E70002EC087EE39C080916D0283FF2AC0F5CF26
:104E800080916D0283FD25C080916E0281FD23C05B
:104E9000ECCF80916D0285FD22C01FC080916D0214
:104EA00085FD1BC080916E0283FF19C00AC08091EE
:104EB0006D0286FD16C017C080916D0286FD13C07D
:104EC00010C089E311C082EE0FC080EE0DC080E0FB
:104ED0000BC086EE09C084EE07C085E305C089E2F9
:104EE00003C08AE201C081E390E00895A3E0B0E04E
:104EF000ECE7F7E20C94443504E612E088E6682E0D
:104F000082E0782ED80190E2E92E91E0F92E212C52
:104F1000AA24A394B12C4D013C901C92F7018191DD
:104F20007F01E82FE295EF702E2F30E03B832A833C
:104F3000F90121A18F70A50102C0440F551F8A9568
:104F4000E2F7CA01242B21A322A1409549832423FF
:104F500022A350EA5A95F1F768E271E06B0120E074
:104F600030E0F60151906F01452D42954F7050E0B1
:104F7000FA0140A14C9050E0F52DFF7002C055950C
:104F80004795FA95E2F740FD07C04A2D022E01C071
:104F9000440F0A94EAF701C040E0442A4C922F5F84
:104FA0003F4F27303105E9F6EA81FB8191A1F98174
:104FB0009F23EA81FB8191A392A1892B82A3119661
:104FC00081E0F4019081931101C080E0282A6A16E3
:104FD0007B0609F0A0CF40E050E0EE24E394F12CF2
:104FE000DB018D91BD01E82FE295EF70F0E021A18A
:104FF0008F70D70102C0AA0FBB1F8A95E2F7CD01BF
:105000002A2B21A322A14A2E4094242122A3B0EAD4
:10501000BA95F1F79701042E01C0220F0A94EAF71E
:10502000622E922E909428E632E03B832A83A0E2FF
:10503000CA2EA1E0DA2E812CAA80BB80D5017C90FB
:10504000D6015D906D01252D22952F7030E0D9019C
:1050500090962C9130E0B52DBF705B2E02C0359537
:105060002795BA95E2F720FD04C0272D2629D50102
:1050700004C0272D2921AA81BB812C932A813B8141
:105080002F5F3F4F3B832A83D5012C91721611F07D
:10509000882483942A813B812C56324069F691A161
:1050A0004922498241A292A1892B82A328284F5FDD
:1050B0005F4F4730510509F093CF10920205B09130
:1050C0000105B983BB2309F43FC00E94002F209142
:1050D000FF0430910005FC01E21BF30B9F0190934C
:1050E00000058093FF04EF3FF10509F020F4EF2B5A
:1050F00009F481C002C02FEF30E010920105109238
:10510000FE04E0916202F0916302BF01685C7F4F90
:1051100090E030E0AF01495F5F4F8081882341F02C
:10512000281718F01082998103C0821B808339816F
:105130003196E417F50789F76E177F0759F7309313
:1051400001059093FE0457C0222009F44CC00E9430
:10515000002F909300058093FF041092FE0480912D
:105160006202909163027091010560910205A3E8CB
:10517000B2E09C01285C3F4F3B832A83EE24E394FA
:10518000F12C32E3B32EF80131918F012C913227AB
:10519000FC0140E050E06701042E02C0CC0CDD1C95
:1051A0000A94E2F7A32EAC2039F0A080A11004C02D
:1051B000B0822C2561E071E031964F5F5F4F473040
:1051C000510549F707962D932A813B812817390706
:1051D000D1F6709301056093020580910205239634
:1051E000E2E10C94603580E09091FE049923A9F3EC
:1051F0008111B3CFACCF2110B0CF81E0F5CF7830A3
:1052000048F46730C8F48430B8F4462F672F0E9402
:10521000862408957D3F31F4633070F4843060F467
:1052200041E007C07C3F41F4633030F4843020F427
:1052300040E00E94C223089580E090E008951F930B
:10524000CF93DF930E94DA26EC01C11580E5D807E1
:10525000E8F5C11590E4D90708F0A8C0C03ED10513
:1052600030F5CD3CD10508F094C0C83AD10578F4AA
:10527000C53AD10508F083C0C130D10509F47CC01E
:1052800008F4F2C0C430D10508F0F1C0EDC0C33C51
:10529000D10508F0E9C0C85AD0E0CC0FDD1FCE5DC3
:1052A000DD4F0990D881C02DCE019464E1C0C115B5
:1052B00080E2D80708F0CBC0C11591E0D90708F00B
:1052C0006BC0C83ED10508F4D2C0CEC0C03682E55E
:1052D000D80728F5C03492E5D90708F079C0C03264
:1052E00082E5D80708F06CC0C11592E5D90708F42B
:1052F00081C04C2F4695469580E2489FA00111241D
:10530000C37021E030E0C90102C0880F991FCA951F
:10531000E2F7EA01C82BD92BCE019D68A9C0C03A9B
:1053200082E5D807B8F48C2F8F71C03892E5D90781
:1053300008F07BC08695869590E2899F90011124A4
:10534000C37081E090E002C0880F991FCA95E2F710
:105350009A6868C0C03C82E5D80708F46DC0C03EBA
:1053600092E5D90708F080C0CF71DD27DC2FCC276C
:10537000CE01806F906A7CC081E090E079C0C55A10
:10538000D0E0C15EDD4F8881C82FD0E0CE019064AF
:105390006FC0CE0190656CC08D2F0E948B26182F98
:1053A000CE0199270E94DA261F715CC0CE01992791
:1053B0000E94DA26CC27DF70D06A8C2B9D2B58C038
:1053C000CF71D0E0DC2FCC27CE01816F906A50C026
:1053D0008C2F8F718695869590E2899F900111247C
:1053E000C37081E090E002C0880F991FCA95E2F770
:1053F0009C6818C08C2F8F710E948B2695E0D695E3
:10540000C7959A95E1F7CF70D0E0DC2FCC27282FF5
:1054100030E084FF05C084E0220F331F8A95E1F756
:10542000D069CE01822B932B23C090E0D82FCC27BC
:10543000CE01846F906A1CC08C2F8F710E948B26C6
:105440008F7190E0D82FCC27CE01906211C08D2FA4
:105450008F710E948B26182FCE0199270E94DA2681
:105460001F719062912B04C080E090E001C0CE01DA
:10547000DF91CF911F910895A6E0B0E0E2E4FAE257
:105480000C9452350E94002F8C018091FC04909165
:10549000FD040817190781F019821A820E94002F53
:1054A000682F49815A81792F80E090E00E94760B25
:1054B0001093FD040093FC042696E4E00C946E35F2
:1054C00080E090E00E947234863E9E4F19F40E9464
:1054D000ED22089580E00895A8E0B0E0E2E7FAE266
:1054E0000C94543566EE7EEF80E090E00E94A63486
:1054F00060E082E090E00E94883481E08093FB04C9
:1055000061E083E090E00E94883460E074E184E030
:1055100090E00E94A63460E086E090E00E9488342B
:105520006FEF87E090E00E94883440E050E0BA01DD
:1055300088E090E00E949A3460E084E290E00E946B
:10554000883460E087E190E00E94883460E08CE07D
:1055500090E00E94883460E08DE090E00E94883402
:1055600019821A821B821C821D821E821F8218864B
:1055700048E050E068E170E0CE0101960E94783486
:1055800040E050E0BA0180E290E00E949A3480E06E
:105590000E94CE220E94762440E050E0BA018FE0C3
:1055A00090E00E949A3440E050E0BA0183E190E03C
:1055B0000E949A342896E2E00C9470358095909180
:1055C0009603892380939603089590919603809182
:1055D000F204892B9091F104992379F0892BE5E06D
:1055E000F5E027E090E0215029F031913323D9F301
:1055F0009F5FF9CF91111092F1048093030548E069
:1056000050E063EF74E083E095E00E949C36892BC4
:10561000A9F088E0E3E0F5E0A3EFB4E001900D929B
:105620008A95E1F7E0910D05F0910E05309731F084
:105630000280F381E02D83E095E009950895909133
:10564000F004809589238093F004282F277069F453
:10565000981759F090916E0292FF07C08695869533
:1056600086950E94E61A1092F004089590916E02B9
:1056700092FB222720F9281779F080FB92F990936A
:105680006E0260916D0270916E0284E090E00E9463
:10569000A63482E00E941F2B08952091EF04909180
:1056A000B60457E02917A9F030E0529FF001539F4C
:1056B000F00D1124E954FB4F7181761306C07081FF
:1056C000781303C07581741306C02F5F3F4F277096
:1056D000E9CF80E0089581E008958091EF049091F2
:1056E000B604891719F08F5F8770FBCF0895CF93A9
:1056F000DF938091B50482958F7009F04EC0809140
:10570000B404882309F449C08091EF044091B604A1
:105710005091B0046091AF04C091B104D091B20433
:1057200077E08417D1F190E0789FF001799FF00D38
:105730001124DF01A954BB4F14962C9114972223F6
:1057400049F111962C911197251324C02C91261301
:1057500021C015962C91159721111CC012962D91E0
:105760003C9113972C1B3D0B283C310598F48091FC
:10577000B5048F7080618093B504E354FB4F808142
:105780008F70806180838FEA94E00E94080C0E94F1
:105790006D2B03C001968770C4CFDF91CF91089520
:1057A00008958091980308951F920F920FB60F925B
:1057B00011242F933F934F935F936F937F938F9316
:1057C0009F93AF93BF93CF93DF93EF93FF93C091DA
:1057D000E900CF708091EC00D82FD17080FDD0E827
:1057E0001092E9008091F000877F8093F000789418
:1057F0000E947D1F1092E9008091F00088608093E4
:10580000F000CD2BCF70C093E900FF91EF91DF91B5
:10581000CF91BF91AF919F918F917F916F915F9148
:105820004F913F912F910F900FBE0F901F901895A1
:10583000E8EDF0E080818E7F80831092E20010928C
:10584000DA001092E100A0EEB0E08C9181608C93C0
:1058500080818F77808319BCA7EDB0E08C918E7F1B
:105860008C9380818F7E80831092160508952091FD
:10587000E4003091E50095E64091EC00842F8170C2
:1058800040FF23C08091E80080FD1DC08091A303EC
:10589000882399F0853099F08091EB0085FD11C047
:1058A0004091E4005091E5002417350729F3915009
:1058B00011F09A01E1CF84E0089582E0089583E039
:1058C000089581E0089580E008954091E80042FF46
:1058D000DDCF08958091A50387FF11C08091E80076
:1058E00082FD05C08091A3038111F8CF11C0809182
:1058F000E8008B770BC08091A303882349F0809147
:10590000E80080FFF8CF8091E8008E778093E80070
:105910000895982F973068F59093E900981739F01B
:105920007091EC002091ED005091F00003C0242F05
:10593000762F50E021FD02C09F5FECCF3091EB004D
:105940003E7F3093EB003091ED003D7F3093ED00D2
:105950003091EB0031603093EB007093EC002093BA
:10596000ED005093F0002091EE0027FDE5CF80E0A0
:1059700008958F708093E90081E00895A0E0B0E081
:10598000E4ECFCE20C944E35C8EDD0E088818F7ECB
:105990008883E7EDF0E080818160808384E082BFCE
:1059A00081E08093160588818E7F888302EE10E067
:1059B000F80110821092DA0081EEC82ED12CF60187
:1059C000108288818F778883888180688883888126
:1059D0008F7D888319BC1092A3031092A4031092A8
:1059E000A2031092A10390EEE92EF12CF701808121
:1059F0008B7F808388818160888342E060E080E0E3
:105A00000E94892CF60180818E7F8083F80180813D
:105A100081608083808188608083F70180818E7FB0
:105A20008083888180618883CDB7DEB7E8E00C94FD
:105A30006A351F920F920FB60F9211242F933F9346
:105A40004F935F936F937F938F939F93AF93BF9386
:105A5000EF93FF938091E10082FF09C08091E20003
:105A600082FF05C08091E1008B7F8093E1008091EF
:105A7000DA0080FF2AC08091D80080FF26C0809184
:105A8000DA008E7F8093DA008091D90080FF18C001
:105A900080E189BD82E189BD09B400FEFDCF81E0CE
:105AA0008093A3038091160581110FC00E94182CCA
:105AB0000E94BE2C8091E20084608093E20005C0C9
:105AC00019BC1092A303109216058091E10080FF8B
:105AD00017C08091E20080FF13C08091E2008E7FAA
