:100000000C94D1020C94EE020C94EE020C94EE02CD
:100010000C94EE020C94EE020C94EE020C94EE02A0
:100020000C94EE020C94EE020C9499120C94DB11D9
:100030000C94071E0C94EE020C94EE020C94EE024B
:100040000C94EE020C94EE020C94EE020C94EE0270
:100050000C94EE020C9414140C94EE020C94EE0228
:100060000C94EE020C94EE020C94EE020C94EE0250
:100070000C94EE020C94EE020C94EE020C94EE0240
:100080000C94EE020C94EE020C94EE020C94EE0230
:100090000C94EE020C94EE020C94EE020C94EE0220
:1000A0000C94EE020C94EE020C94EE02DC07DF07D7
:1000B0001208220828083308E708E708E708E708D5
:1000C000E708360838083C0861088308860889086C
:1000D000AD08CD08D808FC0BFC0B320C320CB40C6C
:1000E000D20CE00DE00DD70C4D0D600D600DF30F3F
:1000F0001A10C3111A10C31166108910C3117E1192
:100100008E11000000000000000000000000000050
:1001100000000000000000000000000000000000DF
:100120000000000000007E0F00D4FFFFFFC70000AA
:10013000007800000000000000002A2B28000000CA
:100140000000000000000000000000000029000086
:1001500000002C1E3420212224342627252E362D63
:100160003738271E1F202122232425263333362EFD
:1001700037381F0405060708090A0B0C0D0E0F106F
:100180001112131415161718191A1B1C1D2F3130B4
:10019000232D350405060708090A0B0C0D0E0F1058
:1001A0001112131415161718191A1B1C1D2F313094
:1001B000354C05010902A10185020901A1000509CB
:1001C000190129081500250195087501810205010D
:1001D000093009311581257F950275088106093896
:1001E0001581257F950175088106050C0A380215D1
:1001F00081257F950175088106C0C005010980A190
:1002000001850319012AB700150126B7009501756C
:10021000108100C0050C0901A101850419012AA063
:1002200002150126A002950175108100C00660FF2D
:100230000961A1010962150026FF0095207508815A
:10024000020963150026FF00952075089102C0057C
:10025000010906A101050719E029E7150025019507
:1002600008750181029501750881010507190029AA
:10027000FF150026FF009506750881000508190185
:100280002905150025019505750191029501750354
:100290009101C009025B00030100A0FA09040000FB
:1002A0000103010100092111010001224400070599
:1002B0008103080001090401000203000000092174
:1002C0001101000122220007058203200001070519
:1002D00003032000010904020001030000000921BA
:1002E00011010001227B0007058403200001120197
:1002F00000020000000809126C5101000102000117
:1003000020035400520065004B00200047003700D6
:100310003000200043004C004100560049005300CB
:1003200000001A036400690067006900740061003E
:10033000720068007900740068006D00000004031A
:10034000090401003A003B003C003D003E006152C0
:10035000167C14001A000800150017005F002B21FE
:1003600004001600070009000A005C00E1001D00FF
:100370001B0006001900050059004A0091242A2894
:100380002C42620037005A00A80063523F00400030
:10039000410012002A00600061001C0018000C00DF
:1003A0000F002D005D005E000B000D000E003700F9
:1003B00013005B00050011001000360043003400FC
:1003C00036002C4228389031420033003832010088
:1003D0000100010001000100010061520100010063
:1003E0000100010001000100010001000100010005
:1003F00001000100010001000100010001000100F5
:10040000010001000100010001002A21010001009A
:1004100001000100010001000100010001000100D4
:1004200001000100010001000100010001000100C4
:1004300001000100010001000100010001000100B4
:1004400001000100010001000100010001000100A4
:1004500028319038010001000100010044004500EE
:10046000680069006A00615235001E001F0020000C
:10047000210022004A0001000100010001000100EA
:100480000100010001000100010001000100010064
:100490004D00010001004C000100010001000100BD
:1004A000A80063526B006C006D0026002A0001005A
:1004B0004B002300240025004F002E00A600010061
:1004C000500051005200300001004E0001002F0882
:1004D00030082F006F000100010001003B00010007
:1004E0006E00270031000100010001000100010041
:1004F00001000100010001000100010001000100F4
:100500004A0001000100010001000100010050004B
:100510000100010001000100010001004D00010087
:1005200001000100010001000100510001006352BF
:100530000100010001000100010052004B00010018
:10054000010001000100010029004F00010001002D
:100550000100010001004E00010001000100010046
:100560000100010001000100010001000100010083
:1005700001004E014B01A900AA00D900DA000100D8
:100580000100010001000100010001000100010063
:100590000100DC00DB00010001000100010001009E
:1005A000010011241FBECFEFDAE0DEBFCDBF11E0A6
:1005B000A0E0B1E0EEE0F5E402C005900D92A238B3
:1005C000B107D9F722E0A2E8B1E001C01D92A3363D
:1005D000B207E1F70E94F0020C9485220C9400000F
:1005E000AEE3B0E0E6EFF2E00C940C2185B7806852
:1005F00085BF85B7806885BF84B7877F84BF0FB606
:10060000F894A895809160008861809360001092B2
:1006100060000FBE90E080E80FB6F8948093610010
:10062000909361000FBE82E594E1909383018093E3
:1006300082010E941F120E943E128091E20084609B
:100640008093E20078948091C8018823A1F01091F2
:10065000E9001F709091EC00892F817090FD80E877
:10066000182B1092E9008091E80083FD0E940E0F84
:100670001F701093E90082E084BD93E095BD9AEF6E
:1006800097BD80936E000E940620811102C00E94D7
:10069000F61F83E08093A501A6E3B1E043E351E0B8
:1006A00099E3E92E91E0F92E8A019D0161E070E065
:1006B000F90181919F01E82FE295EF70F0E0D1A060
:1006C0008F705B0102C0AA0CBB1C8A95E2F7C501C2
:1006D0009A2D90959D2191A392A1892B82A3F80137
:1006E00081918F01E82FE295EF70F0E0D1A08F703B
:1006F0005B0102C0AA0CBB1C8A95E2F7C5019A2DCA
:1007000090959D2191A392A1892B82A3E216F306D5
:1007100079F68FE891E00197F1F700C00000709141
:10072000A50106EA11E060E0671751F12D91822FD3
:1007300082958F7090E0FC0180A190E02F7002C044
:10074000959587952A95E2F78170FA019191AF010D
:10075000292F22952F7030E0F90120A130E09F7001
:1007600002C0359527959A95E2F720FF02C092E0E6
:1007700001C090E0892BF80181938F016F5FD4CF86
:10078000AFE0B1E029E131E0AD0101E010E0FA01B4
:100790008191AF01E82FE295EF70F0E061A18F70D9
:1007A000580102C0AA0CBB1C8A95E2F7C5019A2D1C
:1007B0009095962391A392A1892B82A324173507A4
:1007C00031F749E151E000E211E0BA01EE24E3948F
:1007D000F12CFB018191BF01E82FE295EF70F0E071
:1007E000D1A08F70570102C0AA0CBB1C8A95E2F7FA
:1007F000C5019A2D90959D2191A392A1892B82A349
:100800000617170731F701E010E0FA018191AF01F7
:10081000E82FE295EF70F0E061A18F70580102C0FF
:10082000AA0CBB1C8A95E2F7C5019A2D90959623D8
:1008300091A392A1892B82A381E04032580729F726
:1008400061E070E08D91E82FE295EF70F0E041A15A
:100850008F705B0102C0AA0CBB1C8A95E2F7C50130
:100860009A2D9095942391A392A1892B82A32A1764
:100870003B0741F7E6E8F1E0AAEAB1E011921D92E8
:1008800001E0E039F007D1F786E490E00E945721BB
:10089000AC01909385018093840120E030E0FA015F
:1008A000E20FF31F90E011929F5F9730E1F7295F0D
:1008B0003F4F2634310599F780E090E00E94A12057
:1008C000863E9E4F21F40E940620811167C066EE8D
:1008D0007EEF80E090E00E94D52060E082E090E032
:1008E0000E94B72060E083E090E00E94B720109261
:1008F000900160E074E184E090E00E94D52060E027
:1009000086E090E00E94B7206FEF87E090E00E94C1
:10091000B72040E050E0BA0188E090E00E94C92092
:1009200060E084E290E00E94B72060E087E190E020
:100930000E94B72060E08CE090E00E94B72060E069
:100940008DE090E00E94B72019821A821B821C82DF
:100950001D821E821F82188648E050E068E170E028
:10096000CE0101960E94A72040E050E0BA0180E24B
:1009700090E00E94C92080E00E94D71F0E94F61FCD
:1009800040E050E0BA018FE090E00E94C92040E0D2
:1009900050E0BA0183E190E00E94C92082E090E03B
:1009A0000E9499208093940184E090E00E94A1200D
:1009B00090939301809392010E945F152FEF41EE77
:1009C00054E0215040405040E1F700C000000E9438
:1009D0005F158091AA0180FF08C06FEF7FEF80E074
:1009E00090E00E94D5200E94031483E090E00E94D2
:1009F00099200E94B21B86E091E090935B02809365
:100A00005A02F8E1AF2EB12CFF24F394EE24E394C4
:100A10008E010F5F1F4F8091C801853009F046C0DD
:100A200070E1C72EE2E1DE2E8091C801853009F029
:100A300037C08091C801843011F110925E0280E4C9
:100A40000FB6F894A895A09260000FBE8093600046
:100A500083B7817F846083BF83B7816083BF7894CD
:100A6000889583B78E7F83BF0FB6F894A895809141
:100A70006000886180936000109260000FBE8091DA
:100A8000C701882309F4D0CF0E945F15EAEAF1E09C
:100A900081918111A5C391E0E43BF907C9F7C4CF67
:100AA0001092BB010E94D81B0E94A11E0E945F15DC
:100AB00065E9C62E61E0D62EAAEAB1E0F601919171
:100AC0008D91892721E0EF39F20719F08823B9F3D6
:100AD00005C0811103C00E94251836C05AEA852E30
:100AE00051E0952E712CF40131904F01F6014080B8
:100AF000432409F1612C55245394842D8521A1F0C0
:100B000069AE7AAE0E9446149CAF8BAFEDAE91E019
:100B1000832D852109F490E09EAF49AD5AAD6BADB0
:100B20007CAD8DAD0E9457096394550CF7E06F12B0
:100B3000E4CFF60130827394FFEFCF1ADF0A2AE088
:100B40007212D1CF0E943A14712C612C92E0592E6E
:100B50002DEF422E3CEF332E43E0242E8091A50151
:100B6000781608F0BEC0C72CD12CF601EA5CFE4F07
:100B70002081E22FE295EF70F0E080A190E02F70ED
:100B800002C0959587952A95E2F78170F601ED5C94
:100B9000FE4F9081E92FE295EF70F0E020A130E068
:100BA0009F7002C0359527959A95E2F720FF02C005
:100BB00022E001C020E0982F922BF601EA55FE4F6B
:100BC0008081282F237030E0492F092E000C550B0F
:100BD0002417350709F483C0880F880F892B808379
:100BE000F601E05DFE4F2081E82FEF70F0E0E05E5F
:100BF000FE4FA6014E555E4F4A013081FA019081A9
:100C0000930F9083492F092E000C550B30E04217AB
:100C1000530754F43195219531092417350724F4ED
:100C20008370833009F059C0191644F5F601E15676
:100C3000FE4F80818F5F80830E9446147DA63EA672
:100C4000682F8FA798AB29AAFAAA472D5CEF792FB6
:100C500083E091E00E9457090E9446147BAA3CAAB7
:100C6000682F8DAB9EAB2FAA18AE472D5CEF792F66
:100C700083E090E00E94570981E001C080E0F40128
:100C8000908197FF27C0F601E156FE4F8081815089
:100C900080830E94461479A24AA2682F8BA39CA34A
:100CA0005DA2FEA2472D5DEF792F82E091E00E94C8
:100CB00057090E9446147FA248A6682F89A79AA7C1
:100CC0005BA61CA6472D5DEF792F82E090E00E9485
:100CD000570981E0F401108201C080E0682A739412
:100CE0003DCF61100E943A1486E0E2E5F2E0D801BF
:100CF00001900D928A95E1F770905302C0905402D2
:100D000080905502D0905602909057021092540253
:100D1000109255021092560210925702C11003C051
:100D2000882009F456C020915002309151024FB7EB
:100D3000F8948091B6019091B701A091B801B0915B
:100D4000B9014FBFAC01421B530B80914B0288236A
:100D500009F467C245315105E0F18F3F19F08F5F0B
:100D600080934B02CC2061F00E946B201C1414F085
:100D70009FEF01C091E0899F802D11248093540240
:100D8000882061F00E946B20181414F09FEF01C0BE
:100D900091E0899F802D1124809355028091540207
:100DA0008823B9F060905502662099F00E948B204C
:100DB000882319F08093540202C0F0925402862DC9
:100DC0000E948B20882319F08093550202C0F09274
:100DD0005502D11003C0992009F456C020914E024B
:100DE00030914F024FB7F8948091B6019091B701BE
:100DF000A091B801B091B9014FBFFC01E21BF30B08
:100E000080914C02882309F411C2E135F105E0F12B
:100E10008F3F19F08F5F80934C02DD2061F00E94BC
:100E200049201D1414F09FEF01C091E0899F802D8F
:100E3000112480935602992061F00E9449201914D0
:100E400014F09FEF01C091E0899F802D11248093C1
:100E50005702809156028823B9F0609057026620AD
:100E600099F00E948B20882319F08093560202C0CB
:100E7000F0925602862D0E948B20882319F08093D1
:100E8000570202C0F09257028091530287111AC094
:100E900080915402882311F08C1114C08091550266
:100EA000882311F088110EC080915702882311F019
:100EB000891108C090915602992331F081E0D9122E
:100EC00004C002C081E001C080E080FD15C08091B7
:100ED000540281110FC08091550281110BC0809185
:100EE0005602811107C081E090915702911103C011
:100EF00080E001C081E080FD0E941F207A82CB82C9
:100F00008C82DD829E8286E0F801A2E5B2E001904B
:100F10000D928A95E1F70E94A11E9091A90189176F
:100F200021F08093A9010E943A148091C801843075
:100F300009F071CD83E08093E9008091E80082FFA1
:100F40006ACD8091E80085FF21C00E947013811155
:100F50001BC080E2C82ED12C480109C08091F1004D
:100F6000F40181934F01F1E0CF1AD10869F080912B
:100F7000E80085FDF3CF8091E8008B778093E8004F
:100F80000E947013882399F391E001C090E0809152
:100F9000E8008B778093E800992309F43CCDE98140
:100FA0008E2F90E0FC013197E531F10508F00FC17B
:100FB000EA5AFF4F0C94FF201A828CE05BC08A81B2
:100FC000823009F425C150F4813009F000C10E943B
:100FD0003A149B838C837D836E83FBC0833041F006
:100FE000843009F0F4C01B821C821D821E82F1C075
:100FF0004B81DE01149680E090E0242F30E0B901AF
:10100000680F791F6A30710508F0E3C0E42FE80F1C
:10101000F0E0E655FE4F50815D9301968C319105CD
:1010200071F7D7C08A81823021F0853009F4D1C0B0
:10103000CEC06B817C818D819E810E9405210E94A2
:10104000D21FC7C04C816B818A810E94A41FAEC091
:101050002D813E813227232732274C816B818A8163
:101060000E94291FB6C00E94501FB3C080E14FC02C
:10107000FA8287E78B83ADC0CA80DB80DC24CD2475
:10108000DC248C80912C3801C60187579D4F930139
:10109000201B310B2815390508F09BC027E7C21625
:1010A00021E0D20628F40E949920F301848302C033
:1010B000F3011482FFEFCF1ADF0A2FEF621A720AD0
:1010C000E3CFCA80DB80DC24CD24DC248C80912C0F
:1010D0003801C60187579D4F9301201B310B2815FE
:1010E000390508F076C047E7C41641E0D40620F47D
:1010F000F30164810E94B720FFEFCF1ADF0A2FEFC0
:10110000621A720AE6CF0E94AE1E63C084E08A8330
:1011100060C0CA80DB80DC24CD24DC248C80912C50
:101120003801C60189969301201B310B281539051A
:1011300008F04FC040E3C41642E0D40628F40E94F1
:101140009920F301848302C0F3011482FFEFCF1AC8
:10115000DF0A2FEF621A720AE4CFCA80DB80DC2438
:10116000CD24DC248C80912C3801C6018996930112
:10117000201B310B2815390560F540E3C41642E009
:10118000D40620F4F30164810E94B720FFEFCF1A48
:10119000DF0A2FEF621A720AE8CF41E08C818111D9
:1011A00001C040E06B818A810E94F01E9D8337C0A0
:1011B0002D813E8132272327322741E08C81811106
:1011C00001C040E06B818A810E94BE1E02C08FEF89
:1011D000898340E250E0B80182E00E94A3131BCC57
:1011E000C9BCD9BC09B400FEFDCF8091D8008F7D69
:1011F0008093D8008091E00082608093E00080912D
:10120000E00081FDFCCF1092BB010E94D81B0CCCEA
:1012100088E290E00E9499201B821C821D828E83AE
:10122000D8CF4B30510508F4D4CD99CD3B9708F475
:101230002BCEF0CDA6E0B0E0E0E2F9E00C941B216B
:1012400049835A8349815A81992361F0222351F0BD
:10125000CA010E94051B182F682F89819A810E945C
:101260005A1B04C0CA010E94411B182F69817A8150
:10127000812F0E94E8162696E3E00C943721109205
:10128000BB010E94D81B2FEF84E39CE021508040DB
:101290009040E1F700C000009AE088E10FB6F894B2
:1012A000A895809360000FBE90936000FFCFABE1E4
:1012B000B0E0EDE5F9E00C941A214E8B5F8B688F5E
:1012C000798F8A8F9B8F192F911110922502DE0141
:1012D0001F9687E0FD0111928A95E9F786E0FE01ED
:1012E000769601900D928A95E1F70A8D002341F0E0
:1012F00021E04F85588969897A89C8010E941A09B5
:101300000B8B1C8B87E0FE013F96DE011896019047
:101310000D928A95E1F7CE0108960E941D19811160
:101320002CC087E0FE013896DE01119601900D92E7
:101330008A95E1F76C85662301F12091E10130E0A7
:10134000C90101968770992740911A0250E08417CD
:10135000950761F16D8397E0929FD001939FB00D47
:101360001124AE51BE4FFE01319601900D929A9517
:10137000E1F78093E1010E94BA1817E080911A0208
:101380009091E101891709F1189FC00111248E5134
:101390009E4F0E941D198823C1F080911A0290E08F
:1013A00001968770992780931A02E8CF1092BB01AB
:1013B0000E94D81B1092E10110921A02EAEDF1E0AE
:1013C00087E0DF011D928A95E9F76B96E4E00C94C3
:1013D0003621A8E0B0E0EFEEF9E00C940C21FC011E
:1013E0008481882309F461C48F0121E04081518107
:1013F0006281738195810E941A09F8012581222357
:1014000009F480C19C0137572038310508F041C1EB
:10141000F82EFFE0F81708F452C18FEF93E00E9416
:10142000992081114CC169E8A62E62E0B62EFF20FA
:1014300079F0A11424E0B20609F441C1C5010E946B
:101440009920811101C0FA943FEFA31AB30AEFCF9C
:10145000CE0101962C0188E0F20111928A95E9F7FC
:101460005AE0352E7501FFEFEF1AFF0AC5010E9401
:10147000992089831A82882309F421C1813009F0D7
:1014800044C0650122E0C20ED11CC7010E94992010
:101490008A83882309F413C19FEF980F933060F477
:1014A00033E0A30EB11CC6010E9499208B838823D0
:1014B00009F405C11C822CC0843049F54E0183E03B
:1014C000880E911C42E0E42EF12C56019FEFA91AE0
:1014D000B90AC6010E949920F40181934F01882323
:1014E00009F4EDC08C3741F4E2E0F0E0EC0FFD1FB1
:1014F000EE0DFF1D10820CC0FFEFEF1AFF0A650111
:1015000027E0E216F10409F7DAC0570101C05601DD
:101510007201F7012081222309F4A4CF213009F0C0
:1015200056C08181813081F46701F2E0CF0ED11C79
:10153000F7018281893319F460E570E002C060E050
:1015400070E00E94EF1D0AC0823051F46701F2E0A2
:10155000CF0ED11CF70182810E944A1D760195C0F1
:10156000833049F46701F2E0CF0ED11CF70182818C
:101570000E94E61CF3CF843021F0FFEFEF1AFF0A40
:1015800084C0F7012281C70102967C0180E090E0CF
:1015900030E0205331092A30310570F4389EA00123
:1015A000399E500D1124C901840F951FEFEFEE1ADB
:1015B000FE0AF7012081ECCF009709F466C0EFE93D
:1015C000FFE03197F1F700C000000197F5CFE22F5F
:1015D000F0E0EE5CFE4F2490822F869586958695EE
:1015E00090E0FC01EE5DFE4F64902770712C022E9E
:1015F00002C0759467940A94E2F7F1E06F227724B1
:10160000FC01EE5EFE4F8490912C022E02C0959458
:1016100087940A94E2F731E083229924FC01EE5F7B
:10162000FE4FC490D12C02C0D594C7942A95E2F7FE
:1016300081E0C822DD246114710419F081EE0E945A
:101640004A1D8114910409F452C086EE0E944A1D7D
:1016500099E3291609F445C060E070E0822D0E94EC
:10166000EF1D8114910419F086EE0E94E61C6114AE
:10167000710419F081EE0E94E61CC114D10429F016
:1016800060E070E08CE20E94EF1DEFEFEE1AFE0AC0
:1016900040CF86312CE7920709F0C6C28091BB018A
:1016A0008A7A91E009F490E09093B401811128C006
:1016B00069E282ED91E00E943D1E0E9450188091E7
:1016C0001B02877009F4F1C2F8018581882309F4AF
:1016D000ECC28091930182FFE8C282E00E948C18E4
:1016E000E4C260E570E089E30E94EF1DBDCFF9E33D
:1016F0002F12B2CF60E570E089E30E94EF1DB7CFF3
:1017000065E3D7CF86313CE7930709F481C2873779
:10171000FCE79F0711F481E004C088379C47C9F4B7
:1017200082E00E94991B43E062E081E00E94771B07
:10173000C6CF8330FCE79F0709F4A3C208F083C239
:1017400081153CE7930709F48CC281309C4709F46A
:101750009EC2F8018581E080F180882349F0C701AD
:101760000E94051BD82E682FC7010E945A1B04C077
:10177000C7010E94411BD82EB7018D2D0E94E8168B
:101780000E940817D82EF92EA82EF801E580C680F1
:10179000C2943FE0C32280911B028770E9F0EE20E3
:1017A000D9F0892F807F803451F080E28D0D883010
:1017B00098F0C11004C0892F807E803269F080913A
:1017C000930182FF09C082E00E948C1880911B0265
:1017D0008770BB24B3948111B12C9F2C92942FE07D
:1017E0009222892D90E08C30910508F0E9C1FC012E
:1017F000E559FF4F0C94FF208F2D807F9F2D9F7008
:10180000F92E882319F0F29490EFF922EE20B9F026
:10181000FF2009F4C3C180E28D0D883010F0A110C3
:1018200006C09091BB01F92AF092BB0105C09091CE
:101830002502F92AF09225020E945018AFC18D2D81
:101840000E94E61CFF2009F4BBC180E28D0D8830A8
:10185000A0F1AA2091F1F09490912502F922F09242
:1018600025022EC08F2D807F9F2D9F70F92E8032F4
:1018700019F0F29480EFF8228D2DAA2029F0F1E0E2
:10188000AF1609F44CC057C08091930182FD1BC074
:10189000EE2069F0FF2039F09091BB01F92AF09217
:1018A000BB010E94501880E00E944A1D89C180E05F
:1018B0000E94E61CFF2009F483C18F2D0E94491865
:1018C0000E9450187DC1EE2081F0CC20C1F121E0B2
:1018D000C21276C1909124028F2D8923F81609F443
:1018E0006FC1F92AF09224026BC1C11069C18F2D1A
:1018F0000E94FD1B809124029F2D982329F09F2D8B
:1019000090958923809324028091B5019F2D98237F
:1019100009F456C1F0948F218093B50151C1EE2096
:1019200029F035E03C1508F44BC109C084E08C1562
:1019300008F446C115C0EE2031F0C1102FC18F2D23
:101940000E94041C3DC1CC2059F0893309F035C1F7
:101950009FEFE7EEF3E09150E040F040E1F72BC15C
:101960008F2D0E94FD1B2CC18F2D8695869583702F
:1019700019F0813061F024C1EE2021F08D2D9F2DD2
:10198000937002C080E090E00E947C1E1FC1EE2098
:1019900021F08D2D9F2D937002C080E090E00E9479
:1019A000571E14C16E2D8D2D0E940E1C0FC18F2D40
:1019B0008370B1F5E11008C14D2D429546954770F1
:1019C000440F440F8D2D8F7090E09C01042E01C0B8
:1019D000220F0A94EAF7D4FE08C08FE090E001C01D
:1019E000880F4A95EAF7809501C080E04F2D469513
:1019F00046954370423069F088F4909190014130EF
:101A000019F0822B892302C0922B892B0E94B21BD2
:101A1000DBC0822B909190018927F8CF822BF6CFE3
:101A2000EE2019F08F2D817001C08695882309F46E
:101A3000CBC04D2D429546954770440F440F8D2DD8
:101A40008F7090E09C01042E01C0220F0A94EAF7E7
:101A5000D4FE08C08FE090E001C0880F4A95EAF7F5
:101A6000809501C080E04F2D4695469543704230E9
:101A700059F078F490919101413019F0822B89232B
:101A800009C0922B892B06C0822B90919101892746
:101A900001C0822B0E94741B97C02F2D2F70F22E35
:101AA000EE2039F0822F0E94A61B8D2D0E94041C6F
:101AB0008BC08D2D0E94FD1B8F2D0E94991B84C011
:101AC0008D2D32EFA31681F13A1538F090EFA9165B
:101AD00059F0E1EFAE1619F15DC0F3EFAF1659F111
:101AE00024EFA216C1F056C0EE2081F034E03C1580
:101AF00008F466C02F2D2F7181E090E001C0880F9F
:101B00002A95EAF790919101892720C085E08C15EC
:101B100008F456C0EFCF8091930182FD1AC0EE20E9
:101B200029F08F2D8F7129C0EE20D9F38F2D8F7161
:101B30000E94991B45C0EE2041F09F2D9F7181E0CE
:101B400001C0880F9A95EAF701C080E00E94741BDB
:101B500037C0EE20A9F09F2D9F71F92E892F0E948A
:101B6000A61B8091930182FF07C0E8E0FE9EC001A2
:101B70001124836080931B028F2D0E94A61B20C01E
:101B800081E00E948C18F1E0FC15D0F482E00E9404
:101B90008C1816C0EE2021F0CC2019F28D2D84CEA9
:101BA000CC2021F2893349F42FEF37EE83E0215026
:101BB00030408040E1F700C000008D2D0E94E61CFF
:101BC00088EF890D843010F40E94A11EBB20A9F07B
:101BD00080911B0280FD11C0F801158286958695C3
:101BE00086950E94A61BC8010E94E90980911B02EC
:101BF0008695869586950E94991B20E0F801408184
:101C0000518162817381848195810E941A094DC03E
:101C10008091B401811106C069E282ED91E00E94D9
:101C2000301E4BCD65E3F9CF8737ECE79E0711F403
:101C300081E006C08837FCE79F0709F07ACD82E093
:101C40000E94A61B70CD8B35FCE79F0751F18C35A8
:101C50002CE79207F1F08A359C4709F07ACD81E0B4
:101C600021C01092BB010E94D81B8FEF94E3ECE0DF
:101C700081509040E040E1F700C000000E94031452
:101C80001ECD6FEF7FEF80E090E00E94D5200E9494
:101C90003F098091930182FB882780F991E0892791
:101CA00001C080E00E94A31854CD2896E2E10C9474
:101CB00028218091CA0187FF11C08091E80082FD30
:101CC00005C08091C8018111F8CF11C08091E80052
:101CD0008B770BC08091C801882349F08091E80080
:101CE00080FFF8CF8091E8008E778093E800089518
:101CF000982F973068F59093E900981739F0709114
:101D0000EC002091ED005091F00003C0242F762FBD
:101D100050E021FD02C09F5FECCF3091EB003E7F91
:101D20003093EB003091ED003D7F3093ED0030912A
:101D3000EB0031603093EB007093EC002093ED00EA
:101D40005093F0002091EE0027FDE5CF80E008954C
:101D50008F708093E90081E008952091D001309147
:101D6000D1012617370748F06115710539F4209124
:101D7000E8002E772093E80001C0B901FC0120E0C3
:101D80006115710579F18091C8018823F1F18530E1
:101D9000F1F18091E80083FD3CC08091E80082FD74
:101DA0002EC08091E80080FFEBCF2091F30080915E
:101DB000F20090E0922B6115710551F08830910589
:101DC00038F421912093F100615071090196F3CF0D
:101DD00021E0089709F020E08091E8008E77809359
:101DE000E800CECF2111CFCF0AC08091C80188234F
:101DF00061F0853061F08091E80083FD0AC0809138
:101E0000E80082FFF2CF80E0089582E0089583E049
:101E1000089581E008958091BD010895AAE2B0E09F
:101E2000E4E1FFE00C941B21EAECF1E082ED91E0AB
:101E30002091F10021938E179F07D1F78091CB015C
:101E4000833009F463C030F4813071F0823009F4DA
:101E50009FC0B6C08A3009F48BC08B3009F46EC0C5
:101E6000893009F0ADC020C08091CA01813A09F0E3
:101E7000A7C08091E800877F8093E8008091CE0121
:101E80009091CF01892B21F468E08EEB91E003C0A3
:101E900060E080E090E070E00E94AD0E8091E8008C
:101EA0008B778093E8008CC08091CA01813209F061
:101EB00087C08091CE019091CF01009719F00297D1
:101EC00009F07EC08091E800877F8093E8008091D0
:101ED000E80082FD05C08091C8018111F8CF70C073
:101EE0002091F3008091F20090E0922B029731F460
:101EF0008091F100813011F0863021F48091F10061
:101F00008093BD018091E8008B7756C08091CA0113
:101F1000813A09F055C08091CE019091CF01892B73
:101F200009F04EC08091E800877F8093E80080919F
:101F3000E80080FFFCCF80910E0139C08091CA017A
:101F40008132F1F58091CE019091CF01892BC1F5BD
:101F50008091E800877F8093E8000E94590E80916D
:101F6000CC0180930E011092BB010E94D81B28C0A7
:101F70008091CA01813221F58091E800877F8093AA
:101F8000E8000E94590E8091CD018093BC0118C0D9
:101F90008091CA01813AA1F48091E800877F809303
:101FA000E8008091E80080FFFCCF8091BC01809325
:101FB000F1008091E8008E778093E8000E94590E2E
:101FC0008091E80083FFDFC18091CA019091CB012D
:101FD000492F50E04A30510508F0D5C1FA01E958BF
:101FE000FF4F0C94FF20803821F0823809F0CBC1DC
:101FF00008C08091C6019091C701992389F0826041
:102000000FC08091CE018F70873008F0BCC18093E3
:10201000E9008091EB0085FB882780F91092E900A8
:102020009091E800977F9093E8008093F1001092E0
:10203000F10070C1282F2D7F09F0A5C1882319F068
:10204000823061F0A0C18091CC01813009F09BC148
:10205000933009F080E08093C7012EC08091CC01BD
:1020600081112AC08091CE018F702FEF280F26306A
:1020700008F089C18093E9002091EB0020FF1CC08B
:10208000933021F48091EB00806214C09091EB00BA
:1020900090619093EB0021E030E0A90102C0440F71
:1020A000551F8A95E2F74093EA001092EA0080916A
:1020B000EB0088608093EB001092E9008091E800CB
:1020C000877F8093E8000E94590E5DC181115BC13A
:1020D0001091CC011F778091E3008078812B809351
:1020E000E3008091E800877F8093E8000E94590E0A
:1020F0008091E80080FFFCCF8091E30080688093AE
:10210000E300111102C082E001C083E08093C801A6
:102110003AC18058823008F036C12091CC0130910C
:10212000CD012C3D53E0350779F583E08A838AE2BF
:1021300089834FB7F894DE01139620E03EE051E228
:10214000E32FF0E050935700E49120FF03C0E295A5
:10215000EF703F5FEF708E2F90E0EA3010F0C7967F
:1021600001C0C0968D939D932F5F243149F74FBFD7
:102170008091E800877F8093E8006AE270E0CE01FA
:1021800001960E94AD0EB4C08091CE019091CF0116
:10219000432F552743305105A9F068F441305105CC
:1021A00009F400C14230510509F0EDC08BE590E023
:1021B000E3E9F2E04BC04132510529F142325105C9
:1021C00089F1E1C0C901992781309105A1F058F04A
:1021D000029709F0D8C0E0E0F3E0E4918E2F90E0A0
:1021E000E0E0F3E030C0EEE3F3E0E4918E2F90E026
:1021F000EEE3F3E028C0E2E2F3E0E4918E2F90E01A
:10220000E2E2F3E020C08330910508F0BCC0880F03
:10221000991FFC01EE5BFE4F0190F081E02D89E0FB
:1022200090E014C08330910508F0ADC0FC01EE0FC2
:10223000FF1FE45CFE4F0190F081E02DDC01A75C04
:10224000BE4F8C9190E0009709F49DC02091E8006A
:10225000277F2093E8002091D0013091D1012817E9
:10226000390708F4C90140E0009789F12091C801BD
:10227000222309F43DC02530D9F12091E80023FD47
:1022800037C02091E80022FD2FC02091E80020FFF8
:10229000EBCF4091F3002091F20030E0342B009717
:1022A00059F02830310540F444914093F1003196C3
:1022B00001972F5F3F4FF3CF41E02830310509F000
:1022C00040E02091E8002E772093E800CDCF411127
:1022D000CDCF0AC08091C801882351F0853041F0EC
:1022E0008091E80083FD04C08091E80082FFF2CF76
:1022F0008091E8008B778093E80045C0803809F032
:1023000042C08091E800877F8093E8008091C901F6
:102310008093F1008091E8008E77D3CE811133C095
:102320008091CC019091CD019927029764F580911D
:10233000E800877F8093E8001091CC011093C901D9
:102340000E94590E111106C08091E30087FD02C062
:1023500081E001C084E08093C80142E061EC81E04B
:102360000E94780E42E261EC84E00E94780E42E224
:1023700061EC82E00E94780E42E260EC83E00E9411
:10238000780E8091C8018091E80083FF10C0809191
:10239000E800877F8093E8008091EB008062809363
:1023A000EB0005C082E190E0EEEEF2E04FCFAA969E
:1023B000E3E00C9437211F920F920FB60F92112475
:1023C0002F933F934F935F936F937F938F939F933D
:1023D000AF93BF93CF93DF93EF93FF93C091E90047
:1023E000CF708091EC00D82FD17080FDD0E8109292
:1023F000E9008091F000877F8093F00078940E943C
:102400000E0F1092E9008091F00088608093F00038
:10241000CD2BCF70C093E900FF91EF91DF91CF9169
:10242000BF91AF919F918F917F916F915F914F91EC
:102430003F912F910F900FBE0F901F901895E8EDD0
:10244000F0E080818E7F80831092E2001092DA00AB
:102450001092E100A0EEB0E08C9181608C938081BD
:102460008F77808319BCA7EDB0E08C918E7F8C9321
:1024700080818F7E80831092BA010895A0E0B0E041
:10248000E4E4F2E10C941621C8EDD0E088818F7E5F
:102490008883E7EDF0E080818160808384E082BF03
:1024A00081E08093BA0188818E7F888302EE10E0FC
:1024B000F80110821092DA0081EEC82ED12CF601BC
:1024C000108288818F77888388818068888388815B
:1024D0008F7D888319BC1092C8011092C901109297
:1024E000C7011092C60190EEE92EF12CF701808110
:1024F0008B7F808388818160888342E060E080E018
:102500000E94780EF60180818E7F8083F8018081A1
:1025100081608083808188608083F70180818E7FE5
:102520008083888180618883CDB7DEB7E8E00C9432
:1025300032211F920F920FB60F9211242F933F93C7
:102540004F935F936F937F938F939F93AF93BF93BB
:10255000EF93FF938091E10082FF09C08091E20038
:1025600082FF05C08091E1008B7F8093E100809124
:10257000DA0080FF2AC08091D80080FF26C08091B9
:10258000DA008E7F8093DA008091D90080FF18C036
:1025900080E189BD82E189BD09B400FEFDCF81E003
:1025A0008093C8018091BA0181110FC00E941F124F
:1025B0000E943E128091E20084608093E20005C098
:1025C00019BC1092C8011092BA018091E10080FFFD
:1025D00017C08091E20080FF13C08091E2008E7FDF
:1025E0008093E2008091E20080618093E20080911C
:1025F000D80080628093D80019BC85E08093C80120
:102600008091E10084FF30C08091E20084FF2CC003
:1026100080E189BD82E189BD09B400FEFDCF8091D2
:10262000D8008F7D8093D8008091E1008F7E8093C9
:10263000E1008091E2008F7E8093E2008091E200D1
:1026400081608093E2008091C901882311F084E0C9
:1026500007C08091E30087FD02C081E001C083E0F4
:102660008093C8018091C8018091E10083FF27C059
:102670008091E20083FF23C08091E100877F8093F7
:10268000E10082E08093C8011092C9018091E100CD
:102690008E7F8093E1008091E2008E7F8093E20044
:1026A0008091E20080618093E20042E060E080E09F
:1026B0000E94780E8091F00088608093F000FF9176
:1026C000EF91BF91AF919F918F917F916F915F91AA
:1026D0004F913F912F910F900FBE0F901F90189523
:1026E0002091E4003091E50095E64091EC00842FC4
:1026F000817040FF23C08091E80080FD1DC0809163
:10270000C801882399F0853099F08091EB0085FD10
:1027100011C04091E4005091E5002417350729F3DA
:10272000915011F09A01E1CF84E0089582E008957C
:1027300083E0089581E0089580E008954091E800E5
:1027400042FFDDCF08950F931F93CF93DF938B014B
:10275000EA019091C801943079F58F708093E90077
:102760008FEF9091E800815095FD06C095ED9A9508
:10277000F1F700008111F5CF8091E80085FF1CC0C2
:102780000E947013882361F08091E8008E77809317
:10279000E80012C0F80181918F018093F100219728
:1027A000209791F38091E80085FDF4CF8091E800B7
:1027B0008E778093E800E4CFDF91CF911F910F9146
:1027C000089543E050E0BC0184E00E94A313089503
:1027D00046E050E0BC0184E00E94A3130895CF932B
:1027E000DF93EC0148E050E0BC0181E00E94A313BC
:1027F00088E0FE01AEEBB1E001900D928A95E1F721
:10280000DF91CF91089587E797E790930108809330
:1028100000089AE088E10FB6F894A89580936000CC
:102820000FBE90936000FFCF78941F920F920FB667
:102830000F9211248F939F93AF93BF938091B60112
:102840009091B701A091B801B091B9010196A11D75
:10285000B11D8093B6019093B701A093B801B093D6
:10286000B901BF91AF919F918F910F900FBE0F90C3
:102870001F9018952FB7F8946091B6017091B70129
:102880008091B8019091B9012FBF08952FB7F894A6
:102890008091B6019091B701A091B801B091B901B2
:1028A0002FBF089580E008959091920192FF10C08B
:1028B00041E0282F2471243009F040E031E0282F36
:1028C0002871283009F030E0431711F02CE08227FE
:1028D00093FF10C041E0282F2471243109F040E01B
:1028E00031E0282F2871283109F030E0431711F02A
:1028F0002CE082273091930130FF10C051E0282F47
:102900002171213009F050E041E0282F2871283052
:1029100009F040E0541711F029E0822731FF10C080
:1029200041E0282F2171213109F040E031E0282FCA
:102930002871283109F030E0431711F029E082278F
:1029400094FD877E08958238910569F1B0F4813352
:10295000910509F475C048F48932910509F467C0FE
:102960008A32910509F471C008958533910509F4FF
:1029700059C089339105B9F00895833E910589F1D5
:1029800038F4803E9105D1F0823E910529F10895F9
:10299000863E9105C9F1873E9105D9F1843E9105A6
:1029A00009F06CC027C02091920120FD57C021FD85
:1029B00055C02091930123FD5BC008958091920141
:1029C00080FD48C08091930180FF48C080919201B2
:1029D00084FD46C083EE51C08091920182FF3CC0CD
:1029E000F5CF8091920182FD37C08091930180FDE7
:1029F00035C0ECCF8091930181FF36C08091920168
:102A000084FD2EC087EE39C08091920183FF2AC0D9
:102A1000F5CF8091920183FD25C08091930181FDC6
:102A200023C0ECCF8091920185FD22C01FC0809110
:102A3000920185FD1BC08091930183FF19C00AC0DC
:102A40008091920186FD16C017C08091920186FD8B
:102A500013C010C089E311C082EE0FC080EE0DC01C
:102A600080E00BC086EE09C084EE07C085E305C098
:102A700089E203C08AE201C081E390E008952091D9
:102A80001A029091E10157E02917A9F030E0529F16
:102A9000F001539FF00D1124EE51FE4F718176131A
:102AA00006C07081781303C07581741306C02F5F50
:102AB0003F4F2770E9CF80E0089581E00895A3E0BB
:102AC000B0E0E5E6F5E10C940C2106E811E08BE8B6
:102AD000682E81E0782ED8019FE0E92E91E0F92E52
:102AE000212CAA24A394B12C4D013C901C92F701F7
:102AF00081917F01E82FE295EF702E2F30E03B832C
:102B00002A83F90121A18F70A50102C0440F551F2E
:102B10008A95E2F7CA01242B21A322A1409549837B
:102B2000242322A350EA5A95F1F769E171E06B0181
:102B300020E030E0F60151906F01452D42954F7035
:102B400050E0FA0140A14C9050E0F52DFF7002C01A
:102B500055954795FA95E2F740FD07C04A2D022E9C
:102B600001C0440F0A94EAF701C040E0442A4C92A5
:102B70002F5F3F4F27303105E9F6EA81FB8191A1B4
:102B8000F9819F23EA81FB8191A392A1892B82A3E2
:102B9000119681E0F4019081931101C080E0282A10
:102BA0006A167B0609F0A0CF40E050E0EE24E394E3
:102BB000F12CDB018D91BD01E82FE295EF70F0E083
:102BC00021A18F70D70102C0AA0FBB1F8A95E2F71F
:102BD000CD012A2B21A322A14A2E4094242122A3F5
:102BE000B0EABA95F1F79701042E01C0220F0A94BA
:102BF000EAF7622E922E90942BE831E03B832A83F1
:102C0000AFE0CA2EA1E0DA2E812CAA80BB80D501CC
:102C10007C90D6015D906D01252D22952F7030E0BE
:102C2000D90190962C9130E0B52DBF705B2E02C07B
:102C300035952795BA95E2F720FD04C0272D262962
:102C4000D50104C0272D2921AA81BB812C932A817B
:102C50003B812F5F3F4F3B832A83D5012C91721616
:102C600011F0882483942A813B812059314069F6F0
:102C700091A14922498241A292A1892B82A32828AD
:102C80004F5F5F4F4730510509F093CF10922C02F0
:102C9000B0912B02B983BB2309F43FC00E944614B4
:102CA0002091290230912A02FC01E21BF30B9F01C3
:102CB00090932A0280932902EF3FF10509F020F456
:102CC000EF2B09F481C002C02FEF30E010922B02ED
:102CD00010922802E0918401F0918501BF016A5BA6
:102CE0007F4F90E030E0AF01495F5F4F80818823E4
:102CF00041F0281718F01082998103C0821B80834D
:102D000039813196E417F50789F76E177F0759F770
:102D100030932B029093280257C0222009F44CC014
:102D20000E94461490932A0280932902109228024E
:102D3000809184019091850170912B0260912C0209
:102D4000AAEAB1E09C012A5B3F4F3B832A83EE2431
:102D5000E394F12C32E3B32EF80131918F012C91E1
:102D60003227FC0140E050E06701042E02C0CC0C89
:102D7000DD1C0A94E2F7A32EAC2039F0A080A1104C
:102D800004C0B0822C2561E071E031964F5F5F4F47
:102D90004730510549F707962D932A813B81281723
:102DA0003907D1F670932B0260932C0280912C028C
:102DB0002396E2E10C94282180E090912802992347
:102DC000A9F38111B3CFACCF2110B0CF81E0F5CF03
:102DD0007A3048F46730C8F48430B8F4462F672F4F
:102DE0000E94A41F08957D3F31F4633070F4843055
:102DF00060F441E007C07C3F41F4633030F484303C
:102E000020F440E00E94F01E089580E090E00895D4
:102E10001F93CF93DF930E94A314EC01C11580E5AB
:102E2000D807E8F5C11590E4D90708F0A8C0C03E5E
:102E3000D10530F5CD3CD10508F094C0C83AD10594
:102E400078F4C53AD10508F083C0C130D10509F442
:102E50007CC008F4F2C0C430D10508F0F1C0EDC068
:102E6000C33CD10508F0E9C0C85AD0E0CC0FDD1F43
:102E7000C55BDE4F0990D881C02DCE019464E1C0BE
:102E8000C11580E2D80708F0CBC0C11591E0D90781
:102E900008F06BC0C83ED10508F4D2C0CEC0C03621
:102EA00082E5D80728F5C03492E5D90708F079C043
:102EB000C03282E5D80708F06CC0C11592E5D90789
:102EC00008F481C04C2F4695469580E2489FA001AA
:102ED0001124C37021E030E0C90102C0880F991F9E
:102EE000CA95E2F7EA01C82BD92BCE019D68A9C08B
:102EF000C03A82E5D807B8F48C2F8F71C03892E5BC
:102F0000D90708F07BC08695869590E2899F90014D
:102F10001124C37081E090E002C0880F991FCA9508
:102F2000E2F79A6868C0C03C82E5D80708F46DC033
:102F3000C03E92E5D90708F080C0CF71DD27DC2FB5
:102F4000CC27CE01806F906A7CC081E090E079C090
:102F5000C55AD0E0C85BDE4F8881C82FD0E0CE01D3
:102F600090646FC0CE0190656CC08D2F0E94541488
:102F7000182FCE0199270E94A3141F715CC0CE01A7
:102F800099270E94A314CC27DF70D06A8C2B9D2B2D
:102F900058C0CF71D0E0DC2FCC27CE01816F906A72
:102FA00050C08C2F8F718695869590E2899F9001F5
:102FB0001124C37081E090E002C0880F991FCA9568
:102FC000E2F79C6818C08C2F8F710E94541495E012
:102FD000D695C7959A95E1F7CF70D0E0DC2FCC2736
:102FE000282F30E084FF05C084E0220F331F8A952C
:102FF000E1F7D069CE01822B932B23C090E0D82F2C
:10300000CC27CE01846F906A1CC08C2F8F710E94D8
:1030100054148F7190E0D82FCC27CE01906211C04C
:103020008D2F8F710E945414182FCE0199270E9462
:10303000A3141F719062912B04C080E090E001C046
:10304000CE01DF91CF911F910895A6E0B0E0EBE2B1
:10305000F8E10C941A210E9446148C0180912602FA
:10306000909127020817190781F019821A820E948D
:103070004614682F49815A81792F80E090E00E94A0
:10308000570910932702009326022696E4E00C9439
:10309000362180959091BB0189238093BB010895CF
:1030A0009091BB0180912502982B9093D201809141
:1030B0002402882389F0892B8093D201E4EDF1E08A
:1030C00097E080E0915029F021912223D9F38F5F7E
:1030D000F9CF81111092240248E050E06CE172E0D7
:1030E00082ED91E00E947822892BA9F088E0E2ED40
:1030F000F1E0ACE1B2E001900D928A95E1F7E09148
:103100005A02F0915B02309731F00280F381E02D9A
:1031100082ED91E00995089590911B028095892395
:1031200080931B02282F277069F4981759F090910B
:10313000930192FF07C08695869586950E94991BFC
:1031400010921B0208959091930192FB222720F97F
:10315000281779F080FB92F9909393016091920186
:103160007091930184E090E00E94D52082E00E945B
:103170008C18089580911A029091E101891719F035
:103180008F5F8770FBCF0895CF93DF938091E0012D
:1031900082958F7009F04EC08091DF01882309F479
:1031A00049C080911A024091E1015091DB01609188
:1031B000DA01C091DC01D091DD0177E08417D1F113
:1031C00090E0789FF001799FF00D1124DF01AE515E
:1031D000BE4F14962C911497222349F111962C91ED
:1031E0001197251324C02C91261321C015962C91DC
:1031F000159721111CC012962D913C9113972C1BF1
:103200003D0B283C310598F48091E0018F7080617E
:103210008093E001E851FE4F80818F708061808350
:103220008AED91E00E94E9090E94BA1803C0019654
:103230008770C4CFDF91CF910895A4E1B0E0E3E2BD
:10324000F9E10C9412218C0186E0F801DE011F9651
:1032500001900D928A95E1F7D80114968C911497FC
:103260001596EC909AED892E91E0992E9091DE01C1
:10327000911120C0882309F46CC1EE2009F442C0EA
:10328000C8010E94B51BF82E8823E1F187E0F80100
:10329000D40101900D928A95E1F78091DE01813091
:1032A00031F48091DA019091DB010E94341B0E947D
:1032B000C41851C1F801D080C180A280B380F090C1
:1032C000DF012091DC013091DD01FF2009F4F0C025
:1032D000A501421B530B483C510508F0A6C08823AA
:1032E00009F439C18091E001282F207F9091DB0102
:1032F000222361F09C1509F469C0C8010E94B51B26
:1033000081116CC0C8010E94E90923C19C1114C03D
:103310009091DA019D1110C0E1100EC08F70806194
:103320008093E0018AED91E00E94E9098091E0013B
:10333000D80116968C930BC1E1103AC040E06C2D79
:103340008D2D0E943F1540E06C2D8D2D0E943F1564
:10335000E82E8111FCC0DF86C88A8F8598890E947B
:10336000341B292F22952F70243020F49F70223097
:1033700028F009C02A50223080F014C0992349F067
:10338000811107C013C0992321F0F8019681907F25
:1033900069F0805E883030F409C0803F38F0815F8A
:1033A000833020F0C8010E94E909EF2CFE2CD3C025
:1033B0008091E00181608093E0018AED91E00E94BC
:1033C000E909EAEDF1E087E0DF013AC09091DA0126
:1033D0009D1193CFE11091CFF80198C0EE2009F430
:1033E00091CF2091E001822F82958F7090E002971B
:1033F0008CF08091DA019091DB0199878887BB86F8
:10340000AA868091DE018C871D862E87CE010896C4
:103410000E94E90987E0F801AAEDB1E001900D9260
:103420008A95E1F70E94C41894C09091E001292F79
:10343000207F51F48AED91E00E94E90987E0D401F0
:103440001D928A95E9F783C0882309F484C080918E
:10345000DB018C110CC08091DA018D1108C0E110E4
:1034600006C0F8019683C8010E94E9096AC0C80134
:103470000E94B51B882309F445CFEE2009F442CF02
:103480002091E001822F82958F7090E0029714F2D4
:103490008091DA019091DB019A838983BC82AB82AF
:1034A0008091DE018D831E822F83CE010196B0CFE5
:1034B000A21AB30AB8ECAB16B10408F042C08823D4
:1034C00009F447C0FE2CEE2009F41CCF8091DB01EB
:1034D0008C1129C08091DA018D1125C09091E001F5
:1034E00090FD18C0892F82958F70282F30E021150C
:1034F000310581F0F80196832F30310541F08F5F5F
:10350000982F9295907F86818F70892B8683C80132
:103510000E94E90987E0F801AAEDB1E001900D925F
:103520008A95E1F718C0C8010E94B51B811172CFBE
:103530008091E00181608093E001C8010E94E90967
:103540000AC087E0D4011D928A95E9F704C0F12CE6
:1035500002C0FF24F3948F2D6496ECE00C942E218E
:103560009B01782F777043E0969587954A95E1F710
:10357000FC01EE0FFF1F8E0F9F1FF901E80FF91FCF
:1035800040E050E080E0219130E0072E02C0369507
:1035900027950A94E2F721703327042E01C0220FE9
:1035A0000A94EAF7822B4F5F5F4F4330510559F77A
:1035B0000895962F9770A1E001C0AA0F9A95EAF797
:1035C00093E0769567959A95E1F7FB01EE0FFF1F63
:1035D0006E0F7F1FFA01E60FF71F40E050E0682FE3
:1035E00070E090819B01042E02C0369527950A94C5
:1035F000E2F72170219529272A23292721934F5F5C
:103600005F4F4330510569F70895CF92DF92FF92E3
:103610000F931F93CF93DF936C01009191018091E1
:103620009001082BC3E0D0E010E0C8010C2E02C0CE
:10363000959587950A94E2F780FD04C02197A8F735
:10364000F12C09C0FC2EB6018C2F0E94E8160E94B6
:103650000817019799F38F2DDF91CF911F910F914B
:10366000FF90DF90CF900895CF93DF93EC010E94FD
:10367000051BBE010E94E8160E940817DF91CF913A
:103680000895292F9A3058F4873048F490E060E389
:1036900072E037E0239F800D911D112406C02C5F3E
:1036A000223030F46DE272E090E00E94B01A08958A
:1036B00080E00895282F862F9A3060F4273050F448
:1036C000622F70E027E0929F600D711D112440E38E
:1036D00052E007C09C5F923030F4622F70E04DE200
:1036E00052E00E94D91A0895809391010895909113
:1036F000910121E030E0F90101C0EE0F8A95EAF76F
:10370000D90102C0AA0FBB1F6A95E2F7BD016E2B5B
:1037100001C0220F4A95EAF7892F8623681303C058
:10372000892F822B03C02095822F89230E94741B2E
:10373000089521E030E001C0220F8A95EAF7209534
:103740008091910182230E94741B089521E030E052
:1037500001C0220F8A95EAF780919101822B0E9485
:10376000741B0895809390010895FC012481222305
:10377000D9F0808191810E94341B92959F70963080
:1037800079F010F4925001C09A50923068F4803F62
:1037900069F018F4883E40F409C0843F29F406C05B
:1037A000883E20F0813F11F080E0089581E0089587
:1037B000CF93C6E0E4EDF1E0DF018C2F1D928A95F6
:1037C000E9F780E090E00E947C1E80E090E00E949B
:1037D000571E109225020E945018E2E5F2E0DF0128
:1037E0001D92CA95E9F710924B0210924C0210926A
:1037F0004D020E941F20CF910895882321F00E943E
:1038000049180E9450180895882339F09091BB01FF
:10381000892B8093BB010E9450180895662309F4F8
:103820005CC08D3C21F40E946B20819504C08E3CCD
:1038300029F40E946B2080935502C5C08F3C21F46F
:103840000E946B20819504C0803D29F40E946B206A
:1038500080935402B8C0893D19F40E94492005C0E4
:103860008A3D31F40E944920819580935602ABC075
:103870008B3D21F40E944920819504C08C3D29F4A0
:103880000E944920809357029EC09FE2980F983073
:1038900078F421E030E0A90102C0440F551F9A9549
:1038A000E2F7CA0190915302892B809353028BC097
:1038B0008D3D21F480914D0281600CC08E3D21F43C
:1038C00080914D02826006C08F3D09F07CC08091DE
:1038D0004D02846080934D0276C08D3C39F4909106
:1038E000550297FF35C01092550259C08E3C29F4FD
:1038F000909155021916BCF32BC0909154028F3C45
:1039000029F497FF25C01092540249C0803D19F454
:103910001916CCF31DC090915602893D29F4191651
:10392000BCF4109256023BC08A3D19F497FF10C0B8
:10393000F8CF8B3D39F49091570297FF09C0109250
:1039400057022DC08C3D21F4909157021916BCF3FB
:103950009FE2980F983080F421E030E0A90102C086
:10396000440F551F9A95E2F7CA0180959091530232
:1039700089238093530213C08D3D21F480914D0221
:103980008E7F0BC08E3D21F480914D028D7F05C04E
:103990008F3D29F480914D028B7F80934D02809161
:1039A0005402811106C080915502811102C010920B
:1039B0004B0280915602811106C0809157028111FD
:1039C00002C010924C020E941F200895882309F41F
:1039D00060C0823869F40E94A11E81FF5AC069E369
:1039E00082ED91E00E943D1E0E94501869E30EC0D6
:1039F000833899F40E94A11E80FF4BC063E582EDDD
:103A000091E00E943D1E0E94501863E582ED91E016
:103A10000E94301E0E9450180895843869F40E9454
:103A2000A11E82FF36C067E482ED91E00E943D1E38
:103A30000E94501867E4EACF9CEF980F913A10F477
:103A4000682FE4CF90E2980F983050F4877091E09F
:103A500001C0990F8A95EAF7892F0E944918DACF99
:103A60009BE5980F933028F480E090E00E947C1E44
:103A7000089598E5980F9B3128F480E090E00E942B
:103A8000571E089593E3980F933118F460E00E9455
:103A90000E1C0895CF93882309F49FC0C82F823845
:103AA000B1F40E94A11E81FD98C069E382ED91E00E
:103AB0000E943D1E0E9450182FEF87EE93E0215088
:103AC00080409040E1F700C0000069E317C08338F0
:103AD000E1F40E94A11E80FD80C063E582ED91E0CB
:103AE0000E943D1E0E9450182FEF81EE94E021505D
:103AF00080409040E1F700C0000063E582ED91E076
:103B00000E94301E0E94501868C08438B1F40E9490
:103B1000A11E82FD62C067E482ED91E00E943D1E1D
:103B20000E9450182FEF81EE94E021508040904089
:103B3000E1F700C0000067E4E1CF8CEF8C0F813A21
:103B400080F4E4EDF1E08AED91E02191C217E9F112
:103B50008E179F07D1F76C2F82ED91E00E943D1EDA
:103B6000D1CF80E28C0F883068F4C77081E090E09C
:103B700001C0880FCA95EAF79091BB01892B809309
:103B8000BB01C0CFEBE5EC0FE33040F4F0E0E85BC5
:103B9000FE4F808190E00E947C1E1FC0E8E5EC0F84
:103BA000EB3150F4F0E0EE0FFF1FE55BFE4F80813C
:103BB00091810E94571E11C083E38C0F833168F4FA
:103BC00061E08C2F0E940E1C08C06C2F82ED91E0EA
:103BD0000E94301E0E945018BECFCF9108951F93AF
:103BE000CF93DF93182FEB010E944A1D209741F0DD
:103BF0008FE99FE00197F1F700C000002197F6CF11
:103C0000812F0E94E61CDF91CF911F9108951F9292
:103C10000F920FB60F9211248F939F93AF93BF9380
:103C200080915E02811113C08091B6019091B7011D
:103C3000A091B801B091B9014196A11DB11D809329
:103C4000B6019093B701A093B801B093B901BF91A9
:103C5000AF919F918F910F900FBE0F901F9018956D
:103C60009C012A5F3F4FFC014281461301C0128232
:103C7000019682179307B9F708959C01FC013296CB
:103C80009FEF80E04191461789F09F3F19F4411161
:103C900001C0982F8F5F8630A9F79F3F39F0F90157
:103CA000E90FF11D97FDFA95628308950895A3E049
:103CB000B0E0EDE5FEE10C941C2120915C02309116
:103CC0005D0228173907A1F090935D0280935C0292
:103CD000E0915A02F0915B02309751F024E0298381
:103CE0009B838A830680F781E02DCE01019609959A
:103CF0002396E2E00C943821A3E0B0E0E2E8FEE194
:103D00000C941C2120915802309159022817390730
:103D1000A1F09093590280935802E0915A02F091D9
:103D20005B02309751F023E029839B838A830680CE
:103D3000F781E02DCE01019609952396E2E00C94DF
:103D40003821E0915A02F0915B02309729F00190FE
:103D5000F081E02D0995089580E00895CF93DF93D9
:103D6000C9E8D2E060E0CE010E94B7202196C115DB
:103D700084E0D807B9F7DF91CF9108950F931F938F
:103D8000CF93DF93843038F5633028F594E0699F52
:103D9000E00111249CE0899FC00DD11D1124C75A58
:103DA000DD4F411103C082E090E002C080E090E06E
:103DB000632F022F142F8C0F9D1F0E94B72011110B
:103DC00003C083E090E002C081E090E0602F8C0FA0
:103DD0009D1F0E94B720DF91CF911F910F910895F1
:103DE000FF920F931F93CF93DF93843058F5633086
:103DF00048F524E0629F800111243CE0839F000D80
:103E0000111D1124075A1D4F411103C082E090E09B
:103E100002C080E090E0F42E800F911F0E94992054
:103E200090E0D82FCC27F11003C083E090E002C0CF
:103E300081E090E0800F911F0E9499209E01282B25
:103E4000C90102C080E090E0CDB7DEB7E5E00C9498
:103E500035211F93CF93DF93962F8430E8F46A3097
:103E6000D8F44730C8F4632F122FC42FD0E0CC0F02
:103E7000DD1F2EE0929FC00DD11D11249CE8899F6B
:103E8000C00DD11D1124CE0189960E94B720612F4B
:103E9000CE018A960E94B720DF91CF911F9108959D
:103EA000A0E0B0E0E6E5FFE10C94122192E7C92E14
:103EB00095E0D92EE12CF12C912C812C00E010E022
:103EC000C0E0D0E05701A00EB11EFE01EE0FFF1FB3
:103ED000EA0DFB1DEE5BFC4F259134914C2F682DB4
:103EE000892D0E94291F2196C730D10571F7025FE5
:103EF0001F4F83948AE08812E3CF8601C0E0F80167
:103F00002591349141E06C2F892D0E94BE1EF8014D
:103F100032962591349140E06C2F892D0E94BE1E6F
:103F20000C5F1F4FCF5FC33051F78CE0C80ED11C20
:103F300093948CE8E80EF11C84E09812BECFCDB7C4
:103F4000DEB7ECE00C942E210F931F93CF93DF93F9
:103F5000843008F56A30F8F44730E8F4C42FD0E034
:103F6000CC0FDD1F2EE0629FC00DD11D11243CE857
:103F7000839FC00DD11D1124CE0189960E949920E6
:103F800090E0182F0027CE018A960E949920980170
:103F9000282BC90102C080E090E0DF91CF911F91F2
:103FA0000F91089588E290E00E94B7200895CF9382
:103FB000C82F811102C06FEF01C063E285E290E07B
:103FC0000E94B720C11102C06FEF01C060E186E21C
:103FD00090E00E94B720C11102C06FEF01C065E2FE
:103FE00087E290E00E94B720CF91089580E00E9480
:103FF000D71F60E070E0CB010E94D21F0E94501FCB
:104000000E94AE1E81E00E94D71F089585E290E0D5
:104010000E949920833281F486E290E00E949920E8
:10402000803151F487E290E00E94992091E085323E
:1040300009F090E0892F01C080E0817008950E940E
:10404000461420915402211104C0209155022223CC
:1040500021F0909351028093500220915602211139
:1040600004C020915702222321F090934F028093A5
:104070004E02E0915A02F0915B02309749F082E0E3
:10408000809352020480F581E02D82E592E009954B
:10409000089580914D0280FD16C081FD16C082FDFD
:1040A00018C080914C02882391F0883290F428E067
:1040B000829FC001112468E270E00E94EB20862FED
:1040C000672B29F007C082E0089584E0089581E01D
:1040D000089588E0089580914D0280FD14C081FD0F
:1040E00014C082FD16C080914B02882381F08E316E
:1040F00080F420E5829FC00111246EE170E00E94EF
:10410000EB20862F089584E1089588E2089588E0E1
:10411000089580E50895282F35EB2303C00111246D
:1041200097FF03C08058910902C080589F4F892F84
:104130000895F999FECF92BD81BDF89A992780B56F
:104140000895A8E1B0E042E050E00C94DD20DC01ED
:10415000A40FB51F4150504048F0CB01840F951F6C
:104160002E910E94B82041505040D0F70895262F3C
:10417000F999FECF92BD81BDF89A019700B402165D
:1041800039F01FBA20BD0FB6F894FA9AF99A0FBE0B
:1041900008950396272F0E94B8200E94B720252F4C
:1041A0000E94B820242F0C94B8200196272F0E943B
:1041B000B8200C94B720DC01CB01FC01F999FECFAB
:1041C00006C0F2BDE1BDF89A319600B40D9241509F
:1041D0005040B8F7089597FB072E16F4009407D0C7
:1041E00077FD09D00E94432107FC05D03EF490954D
:1041F00081959F4F0895709561957F4F0895EE0FBB
:10420000FF1F0590F491E02D0994692796276927EF
:1042100078278727782708952F923F924F925F92B1
:104220006F927F928F929F92AF92BF92CF92DF92C6
:10423000EF92FF920F931F93CF93DF93CDB7DEB72B
:10424000CA1BDB0B0FB6F894DEBF0FBECDBF0994BF
:104250002A88398848885F846E847D848C849B8416
:10426000AA84B984C884DF80EE80FD800C811B8124
:10427000AA81B981CE0FD11D0FB6F894DEBF0FBE53
:10428000CDBFED010895AA1BBB1B51E107C0AA1FBA
:10429000BB1FA617B70710F0A61BB70B881F991FE7
:1042A0005A95A9F780959095BC01CD0108950F937B
:1042B0001F93CF93DF938230910510F482E090E05A
:1042C000E0916102F091620220E030E0A0E0B0E015
:1042D000309719F1408151810281138148175907A4
:1042E000C8F08417950769F4109731F012960C9373
:1042F000129713961C9327C00093610210936202D9
:1043000022C02115310519F04217530718F49A01FC
:10431000BD01EF01DF01F801DBCF21153105F9F017
:10432000281B390B2430310580F48A819B8161156B
:10433000710521F0FB019383828304C09093620294
:1043400080936102FE01329644C0FE01E20FF31F2A
:104350008193919322503109398328833AC0209167
:104360005F0230916002232B41F4209102013091D1
:1043700003013093600220935F022091000130918D
:1043800001012115310541F42DB73EB740910401DB
:1043900050910501241B350BE0915F02F091600202
:1043A000E217F307A0F42E1B3F0B2817390778F00C
:1043B000AC014E5F5F4F2417350748F04E0F5F1F6B
:1043C0005093600240935F028193919302C0E0E0BA
:1043D000F0E0CF01DF91CF911F910F910895CF931E
:1043E000DF93009709F481C0FC0132971382128297
:1043F000A0916102B0916202109781F42081318115
:10440000820F931F20915F023091600228173907B5
:1044100051F5F0936002E0935F0267C0ED0120E088
:1044200030E0CE17DF0740F44A815B819E014115E1
:104430005105F1F0EA01F5CFD383C2834081518168
:10444000840F951FC817D90759F488819981840F63
:10445000951F0296918380838A819B8193838283B7
:104460002115310529F4F0936202E09361023DC009
:10447000E901FB83EA8349915991C40FD51FEC17D9
:10448000FD0761F480819181840F951F0296E901F7
:1044900099838883828193819B838A83E0E0F0E023
:1044A00012968D919C911397009719F0FD01DC01F4
:1044B000F7CF8D919C9111979D012E5F3F4F820FF9
:1044C000931F20915F02309160022817390769F429
:1044D000309729F4109262021092610202C0138296
:1044E0001282B0936002A0935F02DF91CF91089592
:1044F000FB01DC0104C08D910190801921F4415031
:0E4500005040C8F7881B990B0895F894FFCF20
:10450E000000630220000B0FEF13E813E11301917B
:10451E00909466970000000000F4F5F6F731333200
:10452E0000FF0100010000FFFF0000010001FF007D
:10453E0004040492343693C63544227B4F022D0276
:10454E00B201A502BE02DE02818283E200E900EA28
:10455E0000B500B600B700CD008301CC008A0192F1
:10456E000194012102230224022502260227022A97
:10457E0002B300B4006F0070009F01CB019F02A038
:02458E00020029
:00000001FF
